:020000040800F2
:10000000704F00204D030008C13B0008A1380008D4
:100010006D3B0008190A0008294A0008000000008A
:100020000000000000000000000000008D02000839
:100030003D16000800000000E9020008C540000865
:1000400067030008670300086703000867030008E8
:1000500067030008670300086703000867030008D8
:1000600067030008670300086703000867030008C8
:1000700067030008670300086703000867030008B8
:1000800067030008670300086703000867030008A8
:10009000D50A000867030008670300086703000823
:1000A0006703000867030008670300086703000888
:1000B0006703000867030008670300086703000878
:1000C0006703000867030008670300086703000868
:1000D00067030008BD4900086703000867030008BC
:1000E0006703000867030008670300086703000848
:1000F0006703000867030008670300086703000838
:100100006703000867030008670300086703000827
:100110006703000867030008D1410008670300086F
:100120006703000867030008C91100086703000897
:1001300067030008670300086703000867030008F7
:100140009D0B0008670300086703000867030008A9
:1001500067030008670300086703000867030008D7
:1001600067030008670300086703000867030008C7
:100170006703000867030008670300080000000029
:1001800067030008670300086703000867030008A7
:100190006703000867030008670300086703000897
:1001A00000000000000000006703000800F002F8F3
:1001B00000F05CF80AA090E8000C82448344AAF1A5
:1001C0000107DA4501D100F051F8AFF2090EBAE8A3
:1001D0000F0013F0010F18BFFB1A43F0010318477B
:1001E00030800000508000000A444FF0000C10F8EE
:1001F000013B13F0070408BF10F8014B1D1108BFA5
:1002000010F8015B641E05D010F8016B641E01F844
:10021000016BF9D113F0080F1EBF10F8014BAD1C94
:100220000C1B09D16D1E58BF01F801CBFAD505E0B2
:1002300014F8016B01F8016B6D1EF9D59142D6D30C
:10024000704700000023002400250026103A28BF34
:1002500078C1FBD8520728BF30C148BF0B60704738
:100260001FB507F090FE1FBD10B510BD00F0BAF924
:100270001146FFF7F5FF05F078FC00F0D8F903B45C
:10028000FFF7F2FF03BC00F0DBF900002C4B19680C
:100290000868B0E8F04F80F30988BFF36F8F4FF024
:1002A000000080F3118870470000000008480068D3
:1002B000006880F308884FF0000080F3148862B66D
:1002C00061B6BFF34F8FBFF36F8F00DF00BF00BF7A
:1002D00008ED00E0DFF80C00016841F470010160F6
:1002E000704700BF88ED00E0EFF30980BFF36F8F28
:1002F000134B1A681EF0100F08BF20ED108A20E97A
:10030000F04F106009B44FF0500080F31188BFF334
:100310004F8FBFF36F8F06F09FFA4FF0000080F30E
:10032000118809BC19680868B0E8F04F1EF0100F7A
:1003300008BFB0EC108A80F30988BFF36F8F704755
:1003400024000020EFF30580704700000948804733
:1003500009480047FEE7FEE7FEE7FEE7FEE7FEE7A7
:10036000FEE7FEE7FEE7FEE704480549054A064BBF
:1003700070470000B5410008AD0100087049002039
:10038000704F0020704B0020704B002053EA020C8D
:1003900000F069802DE9F04B4FF00006002B1FBFE5
:1003A000B3FA83F503FA05F424FA05F65E4012BFAA
:1003B0001643B2FA82F502FA05F4C5F120051EBF14
:1003C00022FA05FC44EA0C04203556EA044C4FEAB4
:1003D000144418BF641C4FF000084FF0000990420D
:1003E00071EB030C39D3002919BFB1FA81F701FA77
:1003F00007F6B0FA80F700FA07F6C7F120071EBF2C
:1004000020FA07FC46EA0C062037B6FBF4FCA7EB03
:100410000507103F07F01F0BCBF120060CFA0BFB72
:100420002CFA06F644BFB3460026202FA4BF5E4632
:100430004FF0000B5BEA060C08BF4FF0010B19EB05
:100440000B09ABFB027C48EB0608C01B06FB02CC89
:100450000BFB03CC71EB0C01C1E70B460246414696
:100460004846BDE8F08B13B54FF000004FF0000197
:10047000AFF30080BDE81C407047032A40F2308093
:1004800010F0030C00F0158011F8013BBCF1020FD5
:10049000624498BF11F801CB00F8013B38BF11F856
:1004A000013BA2F1040298BF00F801CB38BF00F86D
:1004B000013B11F0030300F02580083AC0F00880EA
:1004C00051F8043B083A51F804CBA0E80810F5E7CE
:1004D000121D5CBF51F8043B40F8043BAFF30080B1
:1004E000D20724BF11F8013B11F801CB48BF11F826
:1004F000012B24BF00F8013B00F801CB48BF00F8F6
:10050000012B704710B5203AC0F00B80B1E81850AD
:10051000203AA0E81850B1E81850A0E81850BFF4ED
:10052000F5AF5FEA027C24BFB1E81850A0E818508C
:1005300044BF18C918C0BDE810405FEA827C24BFE0
:1005400051F8043B40F8043B08BF7047D20728BF6E
:1005500031F8023B48BF11F8012B28BF20F8023BBD
:1005600048BF00F8012B70474FF0000200B513465A
:1005700094469646203922BFA0E80C50A0E80C50C3
:10058000B1F12001BFF4F7AF090728BFA0E80C5074
:1005900048BF0CC05DF804EB890028BF40F8042B6D
:1005A00008BF704748BF20F8022B11F0804F18BFDA
:1005B00000F8012B704770477047704710B500F086
:1005C00009F8006810BD10B5044600F003F8046097
:1005D00010BD0000004870470C49002000487047DB
:1005E0000C4900207546FFF7F9FFAE460500694645
:1005F000534620F00700854618B020B5FFF7B4FE3B
:10060000BDE820404FF000064FF000074FF0000813
:100610004FF0000B21F00701AC46ACE8C009ACE894
:10062000C009ACE8C009ACE8C0098D46704710B5F8
:100630000446AFF300802046BDE81040FFF71FBE20
:1006400001491820ABBEFEE7260002007047D0ED3E
:10065000000AF4EEC00AF1EE10FA01DD80ED000AA6
:10066000D0ED000AB1EE401AF4EEC10AF1EE10FA34
:1006700003D2F1EE400AC0ED000A704710B52DED2F
:10068000068BB0EE408A18EE100A07F00BFC41EC26
:100690001A0B9FED070B53EC102B07F043F941ECBD
:1006A000190B06F0B3FE00EE100ABDEC068B10BD70
:1006B000CAC342AD69DE913F0FB438B500250024AE
:1006C0000020009004A8057CA5F12504C82C7CDA44
:1006D000002D7AD0BDF82000000AB5490870084600
:1006E00000780F2872D004DC092807D00E286ED1BC
:1006F00050E010286CD01B28F9D129E104EB8400CC
:10070000AC4901EB8000AC49086004EB8400A949C6
:1007100041F82050002004EB8401A64A02EB81013D
:10072000486069460DF1110005F0FBF900EE100A72
:10073000B8EEC00A04EB84009E4901EB800080ED16
:10074000020A69460DF1110005F0DDF900EE100A0C
:10075000B8EEC00AF2EE040A80EE201A04EB840020
:10076000944901EB800080ED031A69460DF11100F8
:1007700005F0C9F900EE100AB8EEC00ADFED8F0AE5
:1007800080EE201A04EB84008A4901EB800080EDA2
:10079000041A09E18748503000EB041088490860CA
:1007A0008448503000EB041005600021814850302F
:1007B00000EB0410416069460DF1110005F0B1F93C
:1007C00000EE100AB8EEC00A03E0EEE01FE0EAE037
:1007D00055E0DFED7C0A80EE201A7648503000EBC1
:1007E000041080ED021A69460DF1110005F099F927
:1007F00000EE100AB8EEC00ADFED720A80EE201A91
:100800006C48503000EB041080ED031ACCE06948CE
:10081000903000EB04106C4908606648903000EBA3
:100820000410056000216348903000EB0410416023
:1008300069460DF1110005F074F900EE100AB8EEEA
:10084000C00ADFED600A80EE201A5A48903000EBB3
:10085000041080ED021A69460DF1110005F061F9EE
:1008600000EE100AB8EEC00ADFED560A80EE201A3C
:100870005048903000EB041080ED031A94E004EB34
:1008800044014C48D03000EBC1005049086004EBF3
:1008900044014848D03040F83150002104EB440274
:1008A00000EBC200416069460DF1110005F02BF923
:1008B00000EE100AB8EEC00AF2EE040A80EE201A2A
:1008C00004EB44013B48D03000EBC10080ED021A3C
:1008D00069460DF1110005F016F900EE100AB8EEA8
:1008E000C00AF2EE040A80EE201A04EB44013148FB
:1008F000D03000EBC10080ED031A69460DF1110004
:1009000005F001F900EE100AB8EEC00AF2EE040A92
:1009100080EE201A04EB44012648D03000EBC100E1
:1009200080ED041A69460DF1110005F0ECF800EEB7
:10093000100AB8EEC00ADFED260A80EE201A04EB9A
:1009400044011C48D03000EBC10080ED051A2BE0BB
:10095000204800EB0410204908601E4800EB0410FA
:10096000056000211B4800EB0410416069460DF151
:10097000110005F0D6F80146164800EB0410C160DE
:1009800069460DF1110005F0BEF800EE100AB8EE50
:10099000C00AF2EE040A80EE201A0E4800EB0410A2
:1009A00080ED021A00E000BF00BF38BC5DF814FB08
:1009B0001C0400207C4700202004002000007A4412
:1009C0002404002000401C46280400202C040020A1
:1009D00000004842AC4800203004002000B587B039
:1009E00018220B496846FFF78DFD094810380FC8DB
:1009F00000F0BCF8074801F08AFB0648006840692F
:100A000040F0020003490968486107B000BD0000DA
:100A100098040020D804002000BFFEE710B58AB07B
:100A200004460D480068406900F0020088B10120CA
:100A30008DF800000DF1010303AA0021064801F022
:100A400010F800231A4669460448006806F0EAF8E0
:100A500000BF0AB010BD0000B0040020100000204C
:100A600010B58AB004460D480068406900F00200E5
:100A700088B101208DF800000DF1010303AA0021C7
:100A8000064800F0EEFF00231A4669460448006855
:100A900006F0C8F800BF0AB010BD0000B004002086
:100AA000100000200FB410B50020069007900B90A6
:100AB0000890012009900A90002002900390049071
:100AC000059002A9024800F039FF10BC5DF814FB44
:100AD000B004002000B58BB04FF400610F4801F066
:100AE00039FE0F480068406900F0020088B101201B
:100AF0008DF804000DF1050304AA0021084800F058
:100B0000B0FF00231A4601A90648006806F08AF8DB
:100B100000BF034801F062F80BB000BD00100240B6
:100B2000B00400201000002010B58AB004460D4823
:100B30000068406900F0020088B102208DF80000D2
:100B40000DF1010303AA0021064800F08AFF0023EB
:100B50001A4669460448006806F064F800BF0AB007
:100B600010BD0000D8040020100000200FB410B504
:100B70000020069007900B900890012009900A90A1
:100B80000020029003900490059002A9024800F012
:100B9000D5FE10BC5DF814FBD804002000B58BB066
:100BA0004FF480510F4801F0D5FD0F4800684069AF
:100BB00000F0020088B102208DF804000DF1050359
:100BC00004AA0021084800F04CFF00231A4601A99E
:100BD0000648006806F026F800BF034800F0FEFF54
:100BE0000BB000BD00100240D8040020100000200F
:100BF00090B000BF4FF0FF3206A92348006806F00E
:100C00008DF89DF8180001282CD140F20222099895
:100C1000811A90420CD005DC012816D0A0F20120E8
:100C2000F0B904E0012904D0022919D102E000BF83
:100C300000BF00BF18220AA96846FFF763FC1348EB
:100C4000846806A80FC8A0470BE018220AA96846C6
:100C5000FFF758FC0E48846906A80FC8A04700E0BB
:100C600000BF00BF9DF81800022809D118220AA968
:100C70006846FFF747FC0748446806A80FC8A04726
:100C8000052004F08FFFB5E710000020D4000020FD
:100C90003404002004040020F0B587B007460C4659
:100CA00015461E460CB9019500E0029503940020FC
:100CB00004900820059000208DF81800012332468A
:100CC00001A9384600F08FFD07B0F0BDF0B587B040
:100CD00007460C4615461E460CB9019500E00295E4
:100CE0000394002004900820059000208DF818003F
:100CF0000123324601A9384600F075FD07B0F0BD6A
:100D000010B588B004460020049005900690079026
:100D1000944B0FCB8DE80F00207C012804D00228D3
:100D20007ED003287DD1DCE08F488168204688474B
:100D3000002014E08D4901EB800191ED000A04F1DF
:100D4000240101EB8001D1ED000A9FED891A00EE2C
:100D5000810A864901EB800181ED000A401C0428CC
:100D6000E8DB844890ED011AB8EEC11AF0EE410AB2
:100D70007E4890ED001AB0EE410A7F4802F021FF54
:100D80007D485438B0F9020001EE100AB8EEC11ADD
:100D9000F0EE410A7848543890ED201AB0EE410A3E
:100DA0008C3002F00EFF7448543890ED2E0A8DED11
:100DB000040A704890ED031AB8EEC11AF0EE410A29
:100DC0006A4890ED011AB0EE410A6B48C83002F053
:100DD000F8FE69485438B0F9CA0001EE100AB8EEBE
:100DE000C11AF0EE410A6448543890ED521AB0EE40
:100DF000410A00F5AA7002F0E4FE5F48543890ED15
:100E0000600A8DED050A5B4890ED051AB8EEC11A2F
:100E1000F0EE410A554890ED021AB0EE410A01E0A9
:100E200060E09AE0554802F0CCFE53485438B0F9DF
:100E3000920101EE100AB8EEC11AF0EE410A4E48D6
:100E4000543890ED841AB0EE410A00F5077002F0B4
:100E5000B8FE4948543890ED920A8DED060A45488F
:100E600090ED071AB8EEC11AF0EE410A3F4890ED36
:100E7000031AB0EE410A4148C83002F0A2FE3E48D3
:100E80005438B0F95A0201EE100AB8EEC11AF0EE69
:100E9000410A3948543890EDB61AB0EE410A00F5CF
:100EA000397002F08EFE3448543890EDC40A8DED4E
:100EB000070A9DED072AF0EE421A9DED062AB0EED4
:100EC000421A9DED052AF0EE420A9DED042AB0EE8D
:100ED000420A2549086980472348C1682046884757
:100EE0003CE03BE02049DFED261A9FED251ADFEDBF
:100EF000240A9FED230A08698047002029E09FED1E
:100F0000200A04A901EB800181ED000A00EBC00179
:100F100001EB0011184A543A02EBC1014A6900EB97
:100F2000C00101EB0011144B543B03EBC101CA603B
:100F30009FED130A04F1140101EB800181ED000A19
:100F40009FED0F0A04F1240101EB800181ED000AFD
:100F5000401C0428D3DB08B010BD00BF00BF00BF99
:100F6000F9E700002080000884000020980000209D
:100F7000CDCCCC3DEC48002038010020C802002038
:100F80000000000000BF04480168044888470520AD
:100F900004F008FEF7E70000840000204847002026
:100FA0002DE9FC4107460C4615461E46380A8DF8C9
:100FB0000000F8B28DF80100200A8DF80200E0B2BE
:100FC0008DF80300280A8DF80400E8B28DF80500BA
:100FD000300A8DF80600F0B28DF807006B464FF42A
:100FE000007200210248FFF757FEBDE8FC810000B7
:100FF000B00400200FB410B50599059A521ED0B266
:10100000B1F5007F02D9B1F5017F02D910BC5DF8BE
:1010100014FB9DF80A209DF8093042EA032200EBF8
:10102000C00303EB0013574C24F833209DF80C3019
:101030009DF80B2043EA022212B200EBC00303EB3F
:10104000001304EBC3035A809DF80E309DF80D2069
:1010500043EA022212B200EBC00303EB001304EBDD
:10106000C3039A809DF80F2000EBC00303EB00132D
:1010700004EBC3039A7100EBC00202EB001223469B
:1010800033F8323000EBC00202EB001204EBC20274
:10109000128A9A1A3C4B9A4211DA00EBC00202EB18
:1010A0000012234603EBC202128B521C13B200EB58
:1010B000C00202EB001204EBC202138324E000EB37
:1010C000C00202EB00122F4B33F8323000EBC002AB
:1010D00002EB00122B4C04EBC202128A9A1A41F264
:1010E00070739A4210DD00EBC00202EB001223463F
:1010F00003EBC202128B521E13B200EBC00202EBD2
:10110000001204EBC202138300EBC00202EB0012D8
:101110001C4B33F8323000EBC00202EB0012194CCA
:1011200004EBC202128B4FF4005414FB023300EBA9
:10113000C00202EB0012134C04EBC202536100EB3D
:10114000C00202EB0012234633F8323000EBC0023B
:1011500002EB001204EBC202138200EBC00202EBAE
:101160000012234603EBC202B2F8C420521C00EB6B
:10117000C00303EB001304EBC303A3F8C42000BFB8
:1011800044E70000E400002090E8FFFF00B587B0CE
:1011900018220B496846FFF7B5F9094810380FC8FF
:1011A000FFF780FC074800F0B2FF0648006840697E
:1011B00040F0020003490968486107B000BD000023
:1011C00070040020B004002010B5024800F0EAFFCF
:1011D00010BD0000D40700200146087810381823FD
:1011E000B0FBF3F20848805CC865032A05D908689B
:1011F0006FF30900001D886503E008686FF30900BC
:101200008865886D70470000008000080146002056
:101210008A6A8B69CBB932B1012A0DD0022A03D078
:10122000032A10D10EE000BFCB6A03F08073B3F144
:10123000807F00D1012007E0CB6AB3F1C07F00D1ED
:10124000012001E000E000BF34E08B69B3F5005FEE
:101250001AD132B1012A07D0022A03D0032A11D1B0
:101260000AE000BF01200EE0CB6A03F08073B3F107
:10127000807F00D1012006E0CB6AB3F1C07F00D1AE
:10128000012000E000BF15E032B1012A05D0022A9A
:1012900004D0032A0CD103E000BF00BF012008E006
:1012A000CB6A03F08073B3F1807F00D1012000E0AE
:1012B00000BF00BF704730B50468246824F4802460
:1012C00005682C60046863608468402C04D104685D
:1012D000A2600468E16003E00468A1600468E26061
:1012E00030BD000038B504462068006800F01000EA
:1012F00010282CD12068C06800F0100038B300BF5F
:1013000000200090206800680090206840680090ED
:1013100000BF00BF606B0068006820F00100616BD7
:1013200009680860606B00684068042803D10848B9
:10133000016A084888471620616B09684860606B3D
:101340000068006840F00100616B0968086038BD02
:10135000A80000203047002010B52DED0A8B044670
:1013600014B9BDEC0A8B10BD2078617840EA0120E9
:10137000C0F30A008C4908806078C010A17840EA68
:101380004110C0F30A0088494880A0788011E178B4
:1013900040EA8100217940EA8120C0F30A008249B5
:1013A000888020794010617940EAC110C0F30A00BA
:1013B0007D49C88060790011800808726079C0F3A7
:1013C00001104872A079E17940EA012000B2764923
:1013D0008881207A617A40EA012001B27248C18195
:1013E000A07AE17A40EA012001B26F480182217BB4
:1013F0008174617BC174A07BE17B40EA01206A4972
:101400008882207C617C40EA0120C0F30A006649A2
:10141000488108460088A0F5806000B20880084630
:101420004088A0F5806000B2488008468088A0F51A
:10143000806000B288800846C088A0F5806000B255
:10144000C88008464089A0F5806000B248810846FF
:10145000B0F90000142807DC0846B0F9000010F1CC
:10146000140F01DB002008804F48B0F90200142857
:1014700008DC4D48B0F9020010F1140F02DB002027
:10148000494948804848B0F90400142808DC464817
:10149000B0F9040010F1140F02DB002042498880EB
:1014A0004148B0F90600142808DC3F48B0F90600AE
:1014B00010F1140F02DB00203B49C8803A48B0F914
:1014C0000A00142808DC3848B0F90A0010F1140F9B
:1014D00002DB0020344948813348B0F9060000EEB1
:1014E000100AB8EEC00AF2EE040A20EE200ABDEEA1
:1014F000C00A2E4880ED000A2B48B0F9040000EE27
:10150000100AB8EEC00AF2EE040A20EE200ABDEE80
:10151000C00A264880ED010A0146086806F0D7F99E
:1015200041EC1B0B2149486806F0D1F941EC1C0B3A
:10153000B0EE4B1AF0EE6B1AB0EE4C0AF0EE6C0AFD
:1015400003F0A6FCB0EE40AAF0EE60AA9FED180BE7
:1015500053EC102B51EC1A0B06F0E4F941EC190B8B
:101560009FED150B53EC102B06F02AF841EC180BED
:1015700005F04CFF0D4988600B48B0F9000000EE03
:10158000100AB8EEC00AF2EE040A20EE200ABDEE00
:10159000C00A084680ED030A0348007A087402482E
:1015A000407A487400BFDCE6A800002048470020CD
:1015B000000000000080664054E3A59BC420094061
:1015C00000200949088048808880C88008724872D5
:1015D000888100210448C18101828174C174002086
:1015E0000149888248817047A800002008B500BFE3
:1015F000002000900F480068006800900D480068C7
:101600004068009000BF00BF0A480068C06840F40E
:10161000005008490968C86006480068C06840F082
:10162000100004490968C86016220349014803F004
:10163000D9F908BD9407002030470020704700000A
:1016400000B587B018220B496846FEF75BFF0948D2
:1016500010380FC8FFF726FA074800F058FD064873
:101660000068406940F0020003490968486107B01A
:1016700000BD000070040020B00400207CB50446CA
:101680000D4604208DF800008DF8014003208DF8F0
:101690000200E8B28DF803006B46224600210248A2
:1016A000FFF714FB7CBD0000B00400207CB50446AD
:1016B0000D4604208DF800008DF8014002208DF8C1
:1016C00002008DF803506B46224600210148FFF7C7
:1016D000FDFA7CBDB00400200FB40020039901295D
:1016E0001ED19DF8031001291AD19DF80210881E01
:1016F0009DF802100C4A02F830109DF807100A06F7
:101700009DF8061042EA01429DF8051042EA0121C7
:101710009DF804201143044A02EBC002516001E02D
:1017200004B0704700BFFBE7EC4800201CB504463E
:1017300004208DF800008DF8014001208DF8020092
:1017400000208DF803006B46224600210148FFF778
:10175000BDFA1CBDB00400201CB5044604208DF861
:1017600000008DF801408DF80200AA208DF80300DA
:101770006B46224600210248FFF7A8FA1CBD000074
:10178000B00400207CB505460C4605208DF800000D
:101790008DF801508DF80200E0B28DF803002012A0
:1017A0008DF804006B462A4600210248FFF78EFAA6
:1017B0007CBD0000B00400201CB5044604208DF858
:1017C00000008DF8014006208DF8020000208DF801
:1017D00003006B46224600210148FFF777FA1CBD43
:1017E000B00400207047F0B504460D461E4694F83C
:1017F000207020688368A86800B900E000BF012F4E
:1018000001D0022F7CD103F0806030B903F000607A
:1018100018B903F08050002873D0C3F30161022986
:1018200005D9606A40F4000060620120F0BD01202B
:1018300088403060A86860B9B5F800C0E86840EA40
:101840004C5C206800F5C07000EB0110C0F800C0CF
:101850000FE0D5E901C040EACC00D5F80CC040EA61
:101860000C00D4F800C00CF5C07C0CEB011CCCF8CB
:101870000000D5F810C0206800F5C07000EB011022
:10188000C0F804C0287D01280ED1206800F5C07082
:1018900000EB0110406840F4807C206800F5C070C7
:1018A00000EB0110C0F804C0D079000692F806C021
:1018B00040EA0C4092F805C040EA0C2C10794CEA42
:1018C000000C206800F5C07000EB0110C0F80CC0DF
:1018D000D078000692F802C040EA0C4092F801C0AD
:1018E00040EA0C2092F800C040EA0C00D4F800C096
:1018F0000CF5C07C0CEB011CCCF80800206801E062
:1019000016E00FE000F5C07000EB0110006840F039
:10191000010C206800F5C07000EB0110C0F800C099
:10192000002083E7606A40F40010606201207DE7D8
:10193000606A40F480206062012077E7F0B50446D9
:101940000A46216894F82050012D01D0022D7ED145
:10195000424901F50071086840F00100086008681C
:1019600020F47C5008600868566A40EA0620086047
:10197000107D00F01F06012000FA06F3C8699843A5
:10198000C861A1F50071D069C8B9D1F80C029843BB
:10199000C1F80C02908880B2968940EA064601F5AB
:1019A0001070576940F83760108880B2168940EA95
:1019B000064601F51070576900EBC7004660D06914
:1019C000012819D1D1F80C021843C1F80C029088F3
:1019D00080B2168840EA064601F51070576940F853
:1019E0003760908980B2168940EA064601F510708A
:1019F000576900EBC7004660906928B9D1F8040226
:101A00009843C1F8040204E0D1F804021843C1F875
:101A10000402106928B9D1F814029843C1F81402DD
:101A200004E0D1F814021843C1F81402106A012826
:101A300004D1D1F81C021843C1F81C02D1F80002ED
:101A400020F00100C1F800020020F0BDFFE7606A4D
:101A500040F4802060620120F7E70000006400404D
:101A6000704770B5044694F82050012D01D0022D26
:101A70007DD151B92068C06800F0030080B9606A68
:101A800040F400106062012070BD2068006900F021
:101A9000030028B9606A40F4001060620120F3E797
:101AA000206800F5D87000EB0110006800F0040019
:101AB0009060906840B9206800F5D87000EB011084
:101AC0000068400D106007E0206800F5D87000EB5A
:101AD00001100068C0085060206800F5D87000EB65
:101AE0000110006800F00200D060206800F5D87096
:101AF00000EB0110406800F00F001061206800F555
:101B0000D87000EB0110406800F47F40000A90613B
:101B1000206800F5D87000EB01104068000C50619F
:101B2000206800F5D87000EB0110806818702068FC
:101B300000F5D87000EB0110806800F47F40000AC7
:101B40005870206800F5D87000EB0110806800F430
:101B50007F00000C9870206800F5D87000EB011031
:101B60008068000ED870206800F5D87000E02FE083
:101B700000EB0110C0681871206800F5D87000EB08
:101B80000110C06800F47F40000A5871206800F519
:101B9000D87000EB0110C06800F47F00000C987151
:101BA000206800F5D87000EB0110C068000ED871F5
:101BB00031B92068C06840F020002668F06005E078
:101BC0002068006940F020002668306100205BE753
:101BD000606A40F480206062012055E72DE9F05FE3
:101BE00004460025206846692068D0F804902068E3
:101BF00087682068D0F80CA02068D0F810B0206862
:101C0000D0F8188006F00100002855D007F0010038
:101C1000C0B101202168886007F0020018B1204699
:101C200000F0A5FA0EE007F0040010B145F40065DD
:101C300008E007F0080010B145F4805502E02046A6
:101C400000F094FA07F48070C8B14FF480702168F6
:101C5000886007F4007018B1204600F08AFA0EE0A0
:101C600007F4806010B145F4005508E007F4006007
:101C700010B145F4804502E0204600F079FA07F4FF
:101C80008030C8B14FF480302168886007F400309C
:101C900018B1204600F06FFA0EE007F4802010B172
:101CA00045F4004508E007F4002010B145F4803504
:101CB00002E0204600F05EFA06F0080038B10AF0B3
:101CC000100020B145F4007510202168C86006F0AE
:101CD000040040B10AF0080028B108202168C8605B
:101CE000204600F00FFA06F0020038B12068C06804
:101CF00000F0030010B1204600F005FA06F04000A5
:101D000038B10BF0100020B145F480651020216837
:101D1000086106F0200040B10BF0080028B108204F
:101D200021680861204600F0EFF906F0100038B194
:101D30002068006900F0030010B1204600F0E5F9CA
:101D400006F4003040B109F0100028B110202168DD
:101D50004860204600F0DAF906F4803040B109F01E
:101D6000080028B1082021684860204600F004FAE5
:101D700006F4004088B309F0040078B306F48070DC
:101D800020B108F0010008B145F0010506F400702B
:101D900020B108F0020008B145F0020506F48060A9
:101DA00020B108F0040008B145F0040506F4006015
:101DB000A0B108F0700088B108F07000402817D07A
:101DC00006DC10280BD020280CD0302819D10CE0CC
:101DD000502810D0602814D110E01DE019E045F023
:101DE00008050FE045F010050CE045F0200509E07E
:101DF00045F0400506E045F0800503E045F48075B8
:101E000000E000BF00BF2068806920F070002168FA
:101E100088610420216848602DB1606A28436062AF
:101E20002046FFF71DFEBDE8F09F70B504460CB9D3
:101E3000012070BD94F8200010B9204600F0B0F8E1
:101E40002068006820F002002168086000F092FC21
:101E500005460DE000F08EFC401B0A2808D9606A98
:101E600040F400306062052084F820000120E0E7A3
:101E70002068406800F002000028EBD1206800686C
:101E800040F001002168086000F074FC05460DE098
:101E900000F070FC401B0A2808D9606A40F400304A
:101EA0006062052084F820000120C2E720684068B5
:101EB00000F001000028EBD0207E012806D1206828
:101EC000006840F080002168086005E02068006834
:101ED00020F0800021680860607E012806D120681B
:101EE000006840F040002168086005E02068006854
:101EF00020F0400021680860A07E012806D12068FB
:101F0000006840F020002168086005E02068006853
:101F100020F0200021680860E07E012806D12068BA
:101F2000006820F010002168086005E02068006863
:101F300040F0100021680860207F012806D1206849
:101F4000006840F008002168086005E0206800682B
:101F500020F0080021680860607F012806D1206811
:101F6000006840F004002168086005E0206800680F
:101F700020F0040021680860D4E9020108432169C7
:101F80000843616908436168491E08432168C861C4
:101F900000206062012084F82000002049E7000052
:101FA00010B586B00446142101A8FEF7DDFA4F49AA
:101FB0002068884241D14E480068401C4C49086066
:101FC0000846006801280FD100BF00200090494852
:101FD000006840F00070474908600846006800F05B
:101FE0000070009000BF00BF00BF0020009041487B
:101FF0001038006840F008003E4910390860084673
:10200000006800F00800009000BF00BF03200190AE
:1020100002200290002003900320049009200590E4
:1020200001A9354800F088FA00220521142000F0AB
:1020300051FC142000F03EFC55E0304920688842F5
:1020400051D100BF002000902A48006840F0806015
:10205000284908600846006800F08060009000BFD2
:1020600000BF23480068401C2149086008460068FA
:1020700001280FD100BF002000901E48006840F0EA
:1020800000701C4908600846006800F0007000906D
:1020900000BF00BF00BF0020009016481038006845
:1020A00040F002001349103908600846006800F04B
:1020B0000200009000BF00BF4FF44050019002208A
:1020C000029000200390032004900920059001A9AC
:1020D0000B4800F031FA00220521402000F0FAFB05
:1020E000402000F0E7FB06B010BD00000064004097
:1020F0000000002040380240000C02400068004010
:10210000000402407047704770477047704770B5D1
:10211000044694F82000012822D1022084F82000EF
:102120002068006820F001002168086000F022FBB0
:1021300005460DE000F01EFB401B0A2808D9606A26
:1021400040F400306062052084F82000012070BD5A
:102150002068406800F001000028EBD16062F6E7DB
:10216000606A40F4002060620120F0E77047704729
:1021700070477047704770477047014691F83500C7
:10218000022803D08020486501207047052081F88F
:1021900035000868006820F001000A68106000201F
:1021A000F3E70000F8B50446002000908C48006872
:1021B0004FF41651B0FBF1F7A56D2E6894F85C1042
:1021C00008208840304098B12068006800F0040082
:1021D00070B12068006820F004002168086094F85D
:1021E0005C1008208840A860606D40F001006065C8
:1021F00094F85C1001208840304068B12068406944
:1022000000F0800040B194F85C1001208840A86084
:10221000606D40F00200606594F85C100420884016
:10222000304068B12068006800F0020040B194F8C6
:102230005C1004208840A860606D40F00400606578
:1022400094F85C1010208840304078B32068006813
:1022500000F0080050B394F85C1010208840A8608B
:102260002068006800F4802080B12068006800F4D5
:10227000002028B9206CC8B12046216C884715E0A1
:10228000A06C98B12046A16C88470FE020680068D8
:1022900000F4807028B92068006820F008002168E8
:1022A0000860206C10B12046216C884794F85C10BF
:1022B000202088403040002865D02068006800F069
:1022C000100000285FD094F85C1020208840A8609F
:1022D00094F83500052828D12068006820F0160001
:1022E000216808602068406920F08000216848610A
:1022F000206C08B9A06C28B12068006820F00800A4
:102300002168086094F85C103F208840A86000BFF6
:10231000002084F8340000BF012084F83500206DCF
:1023200010B12046216D8847F8BD2068006800F490
:10233000802080B12068006800F4002028B9606C1B
:1023400010B12046616C88471DE0E06BD8B1204693
:10235000E16B884717E02068006800F4807068B976
:102360002068006820F010002168086000BF00208D
:1023700084F8340000BF012084F83500E06B10B110
:102380002046E16B8847606D38B3606D00F0010056
:10239000F0B1052084F835002068006820F00100C5
:1023A0002168086000BF0098401C0090B84200D926
:1023B00005E02068006800F001000028F3D100BFAC
:1023C00000BF002084F8340000BF012084F83500ED
:1023D000E06C10B12046E16C884700BFA4E7000024
:1023E000200000202DE9F0410446002500F0C2F94C
:1023F000074614B90120BDE8F081606A00B100BF52
:1024000000BF002084F8340000BF022084F83500AB
:102410002068006820F00100216808600AE000F0F0
:10242000A9F9C01B052805D920206065032084F880
:102430003500E0E72068006800F001000028EED1D8
:102440002068056821480540D4E901010843E16896
:1024500008432169084361690843A1690843E169A8
:102460000843216A08430543606A042803D1D4E97C
:102470000B0108430543206805602068456925F085
:102480000705606A0543606A04280DD1A06A054308
:10249000E06A48B12046FEF7B9FE28B140206065E9
:1024A000012084F83500A6E7206845612046FEF744
:1024B00093FE064694F85C103F208840B0600020F0
:1024C0006065012084F83500002094E73F8010F01B
:1024D0002DE9F04104460D4616461F464FF0000810
:1024E00000BF94F83400012802D10220BDE8F08139
:1024F000012084F8340000BF94F83500012811D180
:10250000022084F83500002060653B4632462946AB
:102510002046FEF7D0FE2068006840F001002168E8
:10252000086006E000BF002084F8340000BF4FF0D0
:1025300002084046DAE70000F8B502460B460025DF
:10254000002400200021E6E0012606FA01F51E68BD
:1025500006EA0504AC4273D15E68012E08D05E68BD
:10256000022E05D05E68112E02D05E68122E13D1A5
:1025700090684F000326BE40B0434F00DE68BE4067
:1025800030439060506801268E40B0431E79C6F3F8
:1025900000168E4030435060D0684F000326BE4086
:1025A000B0434F009E68BE403043D0605E68022E4C
:1025B00002D05E68122E13D1CF0802F1200656F821
:1025C00027004E07F70E0F26BE40B0434F07FF0E01
:1025D0001E69BE403043CF0802F1200646F82700AE
:1025E00010684F000326BE40B0431E7906F0030674
:1025F0004F00BE40304310605E6806F08056B6F172
:10260000805FA8D100BF00260096454E366846F48C
:102610008046434F3E603E46366806F4804600964C
:1026200000BF00BF3F4E8F0856F827008E07370FB8
:102630000F26BE40B0433C4EB24202D100262EE0EF
:1026400068E03A4EB24201D1012628E0384EB2424B
:1026500001D1022623E0374EB24201D103261EE00B
:10266000354EB24201D1042619E0344EB24201D1B6
:10267000052614E0324EB24201D106260FE0314E5B
:10268000B24201D107260AE02F4EB24201D10826FC
:1026900005E02E4EB24201D1092600E00A268F073E
:1026A0003F0FBE4030431F4E8F0846F82700284E8C
:1026B0003068A0435E6806F48036B6F5803F00D1EE
:1026C0002043234E3060361D3068A0435E6806F418
:1026D0000036B6F5003F00D120431D4E361D306058
:1026E000361D3068A0435E6806F48016B6F5801F7C
:1026F00000D12043164E08363060361D3068A043A6
:102700005E6806F40016B6F5001F00D12043104E97
:102710000C363060491C1029FFF416AFF8BD0000DC
:1027200044380240083801400000024000040240E2
:1027300000080240000C0240001002400014024059
:1027400000180240001C0240002002400024024009
:10275000003C014042690A408A4202D10A04826177
:1027600000E0816170470AB1816101E00B0483617F
:102770007047000001480068704700001400002006
:102780000348006803490978084401490860704714
:10279000140000201C00002010B50D48006840F413
:1027A00000700B4908600846006840F480600860CB
:1027B0000846006840F480700860032000F0C8F804
:1027C000002000F007F800F04BF8002010BD0000DA
:1027D000003C024070B588B0044600250026002267
:1027E0002146362000F076F8362000F063F800BF6E
:1027F000002001901648006840F01000144908605D
:102800000846006800F01000019000BF00BF02A958
:1028100003A800F0B9F900F0DFF945000D48B5FB59
:10282000F0F0461E0C480D49086040F2E7310B48B5
:10283000C160466000210161816000F0E5FC20B9C3
:10284000064800F0FCFC08B070BD0120FBE700006A
:102850004038024040420F00001000403408002081
:1028600008B500BF002000901148006840F4804087
:102870000F4908600846006800F48040009000BFDF
:1028800000BF00BF00200090081F006840F080508B
:10289000091F08600846006800F08050009000BFE3
:1028A00000BF00220F21901E00F014F808BD0000A8
:1028B0004438024001460846002809DB00F01F03A7
:1028C00001229A4043099B0003F1E023C3F8002151
:1028D00000BF70472DE9F05F80460D461646002781
:1028E00002F04CF9074639462A46334601F0070004
:1028F000C0F1070ABAF1040F02D94FF0040A01E04F
:10290000C0F1070AD14600F1040ABAF1070F02D25A
:102910004FF0000A01E0A0F1030AD4464FF0010A8B
:102920000AFA09FAAAF1010A0AEA020A0AFA0CFAF0
:102930004FF0010B0BFA0CFBABF1010B0BEA030B95
:102940004AEA0B042146404602F020F9BDE8F09F18
:1029500000BF00F00702064B19684FF6FF0319404D
:10296000044B0B4343EA0221014B196000BF70473F
:102970000CED00E00000FA0538B5002400BF00208F
:1029800000901D48006840F080501B4908600846D0
:10299000006800F08050009000BF00BF0120174980
:1029A0000864FFF7E7FE044607E0FFF7E3FE001BBD
:1029B000B0F57A7F01D9032038BD1148406800F492
:1029C0008030B0F5803FF0D101200C494864FFF71A
:1029D000D1FE044607E0FFF7CDFE001BB0F57A7F7D
:1029E00001D90320E8E70648406800F40030B0F55C
:1029F000003FF0D10020DFE74038024000000E42E7
:102A00000070004070B504460D460CB9012070BD41
:102A10005848006800F00F00A84209D255490D70CF
:102A20000846006800F00F00A84201D00120EEE740
:102A3000207800F0020002281DD1207800F0040068
:102A4000042805D14C48006840F4E0504A49086029
:102A5000207800F00800082805D14748006840F4B5
:102A60006040454908604448006820F0F000A168D3
:102A7000084341490860207800F00100A8B360686D
:102A8000012807D13C4808380068C0F34040B8B975
:102A90000120BCE76068022802D06068032807D1E3
:102AA000354808380068C0F3406048B90120AEE7F7
:102AB000314808380068C0F3400008B90120A6E793
:102AC0002D48006820F00300616808432A49086027
:102AD000FFF750FE064609E0FFF74CFE801B41F26F
:102AE0008831884202D9032091E707E02248006834
:102AF00000F00C006168B0EB810FEDD11D4800685B
:102B000000F00F00A84209D91A490D700846006864
:102B100000F00F00A84201D0012078E7207800F0F3
:102B20000400042807D11448006820F4E050E1684C
:102B3000084311490860207800F00800082808D1EF
:102B40000D48006820F46040216940EAC1000A494C
:102B5000086000F061F808490968C1F30311074AE9
:102B6000515CC8400649086006480068FFF732FE1D
:102B700000204CE7003C0240083802400880000872
:102B800020000020180000200F2202600D4A126869
:102B900002F0030242600B4A126802F0F002826007
:102BA000084A126802F4E052C260064A126802F44F
:102BB0006042D2080261044A126802F00F020A6001
:102BC0007047000008380240003C0240014800689D
:102BD000704700002000002000B5FFF7F7FF044910
:102BE0000968C1F38221034A515CC84000BD00005E
:102BF000083802401880000800B5FFF7E7FF0449D5
:102C00000968C1F34231034A515CC84000BD00006D
:102C100008380240188000082DE9F04700240025FC
:102C20000026A1462548006800F00C0020B10428C9
:102C300005D008283AD105E0DFF8849039E0DFF8C4
:102C4000849036E01D48001F006800F03F041B48D8
:102C5000001F006800F4800078B11A481749091F66
:102C60000968C1F38811A0FB0170014622460023C8
:102C70003846FDF78BFB05460EE011480F49091F4A
:102C80000968C1F38811A0FB0170014622460023A8
:102C90003846FDF77BFB05460848001F0068C0F377
:102CA0000140401C4600B5FBF6F902E0DFF8109049
:102CB00000BF00BF4846BDE8F0870000083802406A
:102CC0000024F400001BB700F8B504460CB901203D
:102CD000F8BD207800F00100002874D0F9480068A1
:102CE00000F00C0004280DD0F648006800F00C003D
:102CF000082813D1F348001F006800F48000B0F5E5
:102D0000800F0BD1EF4808380068C0F3404000281E
:102D100059D06068002856D10120D9E700BF60680B
:102D2000B0F5803F08D1E7480838006840F48030AB
:102D3000E449083908601EE06068B0F5A02F0DD1A5
:102D4000E0480838006840F48020DE49083908600F
:102D50000846006840F4803008600CE0D948083824
:102D6000006820F48030D7490839086008460068B8
:102D700020F48020086000BF606890B1FFF7FAFC83
:102D8000054606E0FFF7F6FC401B642801D9032046
:102D90009EE7CC4808380068C0F340400028F1D0D6
:102DA00011E0FFF7E7FC054606E0FFF7E3FC401BF8
:102DB000642801D903208BE7C24808380068C0F3B3
:102DC00040400028F1D1207800F0020002285FD1B5
:102DD000BC48006800F00C0058B1BA48006800F028
:102DE0000C0008281CD1B748001F006800F48000C0
:102DF000B0B9B44808380068C0F3400020B1E068BA
:102E0000012801D0012063E7AE480838006820F0AF
:102E1000F800216940EAC100AA490839086037E092
:102E2000E06800B30120A8490860FFF7A3FC05464D
:102E300006E0FFF79FFC401B022801D9032047E76B
:102E4000A04808380068C0F340000028F1D09D4831
:102E50000838006820F0F800216940EAC10099496B
:102E60000839086014E0002097490860FFF782FCE9
:102E7000054606E0FFF77EFC401B022801D903202F
:102E800026E7904808380068C0F340000028F1D1D8
:102E9000207800F0080008282CD16069A8B1012032
:102EA0008A490860FFF766FC054606E0FFF762FC0A
:102EB000401B022801D903200AE782486C300068D1
:102EC000C0F340000028F1D014E000207F490860E2
:102ED000FFF750FC054606E0FFF74CFC401B0228BC
:102EE00001D90320F4E677486C300068C0F3400055
:102EF0000028F1D1207800F00400042870D10027C8
:102F000070483830006800F0805090B900BF002051
:102F100000906C483830006840F080506949383182
:102F200008600846006800F08050009000BF00BFB5
:102F300001276748006800F48070B0B964480068F1
:102F400040F4807062490860FFF714FC054606E013
:102F5000FFF710FC401B022801D90320B8E65C48AB
:102F6000006800F480700028F2D000BFA06801283B
:102F700008D154486830006840F001005149683178
:102F800008601DE0A06805280DD14E486830006833
:102F900040F004004B49683108600846006840F082
:102FA000010008600CE047486830006820F001002C
:102FB0004449683108600846006820F00400086051
:102FC00000BFA068A8B1FFF7D5FB054609E0FFF7F1
:102FD000D1FB401B41F28831884202D9032077E6B9
:102FE00026E0384868300068C0F340000028EED082
:102FF00013E0FFF7BFFB054608E0FFF7BBFB401BF4
:1030000041F28831884201D9032061E62D486830B9
:103010000068C0F340000028EFD1012F07D12948F4
:103020003830006820F0805026493831086000BFF1
:10303000A069002845D02348006800F00C0008284B
:103040005DD0A069022845D100201F490866FFF71E
:1030500091FB054606E0FFF78DFB401B022801D9D6
:10306000032035E6174808380068C0F340600028A0
:10307000F1D1D4E907010843616A40EA81110122D4
:10308000A06AC2EB500041EA00412C20005D41EAF9
:1030900000600C49091F086001200B490866FFF712
:1030A00069FB054606E0FFF765FB401B022801D9D6
:1030B00003200DE6034808380068C0F3406000288C
:1030C000F1D03FE00838024000004742800E4742FE
:1030D0000070004000201C490866FFF74BFB0546C6
:1030E00006E0FFF747FB401B022801D90320EFE56C
:1030F00016480068C0F340600028F2D122E0A069C1
:10310000012800D1E4E51148001D066806F480019D
:10311000E069814214D106F03F01206A81420FD15B
:1031200047F6C0703040616A884209D106F44031E8
:10313000A06A814204D106F07061E06A814201D048
:103140000120C5E50020C3E50000474200380240E9
:103150007047704730B502460B4600BF92F83C00FE
:10316000012801D1022030BD012082F83C0000BFBF
:10317000022082F83D00106844681068816824F0DD
:1031800070041868044310684460184D1068A84221
:103190001BD01068B0F1804F17D0154D1068A842B1
:1031A00013D0144D1068A8420FD0134D1068A842D8
:1031B0000BD0124D1068A84207D0114D1068A842DC
:1031C00003D0104D1068A84205D121F08001586845
:1031D000014310688160012082F83D0000BF00209B
:1031E00082F83C0000BF00BFBDE7000000000140C6
:1031F0000004004000080040000C004000040140B2
:10320000004001400018004010B504460CB90120F0
:1032100010BD94F83D0028B9002084F83C002046F9
:1032200000F00CF8022084F83D00211D206800F019
:10323000D7FF012084F83D000020E9E770470146F0
:103240000868C06840F001000B68D86008688068B2
:1032500000F00702062A05D00868006840F0010067
:103260000B68186000207047704710B5044620684E
:103270000069C0F34000D8B12068C068C0F34000C6
:10328000B0B16FF00200216808610120207720684A
:10329000806900F0030018B12046FFF7E5FF05E064
:1032A000204600F0DDF8204600F094F90020207759
:1032B00020680069C0F38000D8B12068C068C0F3FE
:1032C0008000B0B16FF0040021680861022020770F
:1032D0002068806900F4407018B12046FFF7C4FFF1
:1032E00005E0204600F0BCF8204600F073F900200D
:1032F000207720680069C0F3C000D8B12068C0689A
:10330000C0F3C000B0B16FF008002168086104206C
:1033100020772068C06900F0030018B12046FFF74D
:10332000A3FF05E0204600F09BF8204600F052F98C
:103330000020207720680069C0F30010D8B1206811
:10334000C068C0F30010B0B16FF0100021680861D0
:10335000082020772068C06900F4407018B120462A
:10336000FFF782FF05E0204600F07AF8204600F0E3
:1033700031F9002020772068006900F0010058B181
:103380002068C06800F0010030B16FF001002168D2
:103390000861204600F020F920680069C0F3C010E1
:1033A00058B12068C068C0F3C01030B16FF0800021
:1033B000216808612046FFF7CBFE20680069C0F352
:1033C000801058B12068C068C0F3801030B16FF031
:1033D000400021680861204600F00AF92068006971
:1033E000C0F3401058B12068C068C0F3401030B13D
:1033F0006FF02000216808612046FFF7AAFE10BD8B
:1034000010B586B00446142101A8FDF7ADF81149A6
:10341000206888421CD100BF002000900E48006840
:1034200040F001000C4908600846006800F0010007
:10343000009000BF00BF01200190022002900020F8
:10344000039004900220059001A90448FFF774F846
:1034500006B010BD000C00403038024000000240B1
:10346000704770B504460D46164600BF94F83C0000
:10347000012801D1022070BD012084F83C0000BF6A
:10348000022084F83D0036B1042E1BD0082E31D026
:103490000C2E5ED145E02946206800F00DFF206823
:1034A000806940F00800216888612068806920F008
:1034B00004002168886120688069296908432168BF
:1034C000886147E02946206800F02EFF2068806967
:1034D00040F40060216888612068806920F4806081
:1034E0002168886120688069296940EA0120216893
:1034F00088612FE02946206800F054FF2068C069E9
:1035000040F008002168C8612068C06920F004000C
:103510002168C8612068C069296908432168C861B9
:1035200018E02946206800F079FF2068C06940F45F
:1035300000602168C8612068C06920F4806021684B
:10354000C8612068C069296940EA01202168C86112
:1035500000E000BF00BF012084F83D0000BF002054
:1035600084F83C0000BF00BF85E710B504460CB9E5
:10357000012010BD94F83D0028B9002084F83C00DB
:10358000204600F00DF8022084F83D00211D20683F
:1035900000F026FE012084F83D000020E9E700004D
:1035A00008B50A4A016891420FD100BF002100917D
:1035B0000749096841F00801054A11601146096888
:1035C00001F00801009100BF00BF08BD000C0040E1
:1035D000403802407047000010B504460349206897
:1035E000884201D1FFF7CCF810BD00000010004068
:1035F000704770472DE9F047044620680568206849
:10360000C668206847694FF00008C14605F00F08FA
:10361000B8F1000F0AD105F0200038B106F0200003
:1036200020B1204600F04EFFBDE8F087B8F1000F52
:1036300072D007F0010018B906F4907000286BD022
:1036400005F0010030B106F4807018B1E06B40F075
:103650000100E06305F0040030B107F0010018B18B
:10366000E06B40F00200E06305F0020030B107F0CB
:10367000010018B1E06B40F00400E06305F00800C1
:1036800048B106F0200010B907F0010018B1E06B56
:1036900040F00800E063E06B70B305F0200028B153
:1036A00006F0200010B1204600F00CFF20684069B1
:1036B000C0F38019E06B00F0080010B9B9F1000FF9
:1036C00023D0204600F0DEFE2068406900F0400074
:1036D000402816D12068406920F0400021684861E8
:1036E000606B50B11748616B0865606BFEF745FD74
:1036F00010B1606B016D88470CE02046FFF779FF41
:1037000008E02046FFF775FF04E02046FFF771FF51
:103710000020E06388E7FFE705F0800030B106F0A5
:10372000800018B1204601F015F97DE705F0400052
:1037300030B106F0400018B1204600F0B3FE73E748
:1037400000BF71E77144000810B504460CB90120B0
:1037500010BDA06900B100E000BF94F8390028B99D
:10376000002084F83800204600F028F8242084F84F
:1037700039002068C06820F400502168C8602046E5
:1037800000F0F4FE2068006920F490402168086190
:103790002068406920F02A00216848612068C068DC
:1037A00040F400502168C8600020E063202084F8C5
:1037B000390084F83A000020CAE7000010B586B04E
:1037C0000446142101A8FCF7CFFE2F492068884247
:1037D00057D100BF002000902C48006840F0100036
:1037E0002A4908600846006800F01000009000BFF9
:1037F00000BF00BF0020009024481438006840F04B
:1038000002002249143908600846006800F00200EE
:10381000009000BF00BFC020019002200290002055
:103820000390032004900720059001A91848FEF793
:1038300083FE1848184908604FF000604860002176
:1038400015488160C1604FF48061016100214161D0
:1038500081614FF48071C161002101624162FEF714
:10386000C1FD08B1FDF7BEFF00BF0B486063846374
:1038700000BF002205212520FFF72CF82520FFF7A7
:1038800019F806B010BD0000001001404438024095
:103890000004024040640240D40700207047704793
:1038A00000BFFEE710B50E480E49086005204860CD
:1038B00000210C488160C1604FF400310161490171
:1038C0004161002101760121417681760021C17696
:1038D00001774177FEF7A9FA08B1FDF783FF10BD24
:1038E00000640040B004002010B50E480E49086086
:1038F0000520486000210C488160C1604FF4003110
:103900000161490141610021017601214176817601
:103910000021C17601774177FEF787FA08B1FDF7FC
:1039200061FF10BD00680040D804002008B500BF4A
:10393000002000900A48006840F4800008490860B0
:103940000846006800F48000009000BF00BF00221D
:1039500005213A20FEF7BEFF3A20FEF7ABFF08BD77
:103960003038024000B599B0184B0FCBCDE9172382
:10397000CDE91501002115A802F025F914490860C8
:103980001C22124910310EA8FCF7BCFD00210EA824
:1039900002F02DF90F4908601C220C492C3107A8B0
:1039A000FCF7B0FD002107A802F021F90A490860E0
:1039B0001C22064948316846FCF7A4FD00216846F0
:1039C00002F015F90549086019B000BD9C7F000898
:1039D0001000002004000020080000200C0000203F
:1039E00000B587B0142102A8FCF7BEFD00BF00207F
:1039F00001902E48006840F080002C49086008467D
:103A0000006800F08000019000BF00BF00BF0020F0
:103A100001900846006840F0010008600846006810
:103A200000F00100019000BF00BF00BF0020019026
:103A30000846006840F0100008600846006800F082
:103A40001000019000BF00BF00BF00200190084699
:103A5000006840F0020008600846006800F00200BC
:103A6000019000BF00BF00BF002001900846006821
:103A700040F0080008600846006800F00800019067
:103A800000BF00BF01224FF478510948FEF76BFEDA
:103A90004FF478500290012003900020049005908C
:103AA00002A90348FEF748FD07B000BD30380240C8
:103AB0000010024000B589B00020079008901C213A
:103AC0006846FCF751FD19481949086042F2273051
:103AD0004860002116488160C821C1600021016151
:103AE0008161FFF742FD08B1FDF77CFE00200790E1
:103AF000089007A90E48FFF72DFB08B1FDF772FEED
:103B0000602000904FF47A700190002002900490A1
:103B1000002269460648FFF7A4FC08B1FDF762FEE3
:103B20000348FFF76DFC09B000BD0000000C004029
:103B30005407002010B50A480A4908600A4848603E
:103B4000002108488160C16001610C2141610021B0
:103B50008161C161FFF7F8FD08B1FDF743FE10BDBB
:103B60000010014094070020A086010000BFFEE77E
:103B700010B52DED048BB0EE408AF0EE608AB0EE09
:103B8000419AF0EE619A0D48BDEEE90AC46810EE64
:103B9000100A03B2BDEEC90A10EE100A02B2BDEE61
:103BA000E80A10EE100A01B2BDEEC80A10EE100AC3
:103BB00000B2A047BDEC048B10BD0000D400002073
:103BC000704700B50146F0EE401AB0EE602AC1ED34
:103BD000001A81ED012A91ED000AD1ED010A30EEC3
:103BE000600A81ED020A91ED020AD1ED030A30EE7E
:103BF000600A81ED040A91ED050AD1ED020A20EE7A
:103C0000200A81ED080A91ED090AD1ED060A91ED2D
:103C1000021A00EE810A81ED090A91ED020AD1ED46
:103C2000030A30EE600AD1ED070A20EE200A81ED8A
:103C30000A0AD1ED0D0AF8EE600AB0EE600A01F151
:103C40002400FCF704FD91ED080AD1ED090A30EEDD
:103C5000200AD1ED0A0A30EE200A81ED0B0AD1EDDF
:103C60000C0AF8EE600AB0EE600A01F12C00FCF7D5
:103C7000EEFC91ED020A81ED030A91ED0B0A00BD05
:103C800010B52DED068BB0EE408A18EE100A04F048
:103C900009F941EC1A0B9FED070B53EC102B03F0C5
:103CA00041FE41EC190B03F0B1FB00EE100ABDEC34
:103CB000068B10BDC36E7D593EA74C4010B504461F
:103CC0000949086880470949086880470849886A9F
:103CD00080470849086A804702F0A6FB002002F0EE
:103CE000B3FC02F0CBFB10BDD40000200404002084
:103CF000A800002034040020F0B52DED0E8B8DB00F
:103D000005469FEDAC0A10EE106A9FEDAA0A10EE70
:103D1000107A9FEDA80AF0EE408A9FEDA60AB0EE59
:103D2000408A002009900A900B900C9095ED010AB2
:103D3000B8EEC00A10EE106A95ED000AB8EEC00A9F
:103D400010EE107A95ED020AF0EE408A95ED030A26
:103D5000B8EEC00AB0EE408AB5EEC08AF1EE10FAB5
:103D60001CDD95499FED950A086880478DED090A8D
:103D700091499FED930A086880478DED0A0A8E49A4
:103D80009FED900A086880478DED0B0A8A499FEDE8
:103D90008E0A086880478DED0C0A31E0B5EEC08AC6
:103DA000F1EE10FA1CD284499FED870A086880471B
:103DB0008DED090A80499FED830A086880478DEDE3
:103DC0000A0A7D499FED7E0A086880478DED0B0A3F
:103DD00079499FED7A0A086880478DED0C0A0FE05B
:103DE0009FED740A8DED090A9FED720A8DED0A0AA6
:103DF0009FED700A8DED0B0A9FED6E0A8DED0C0A9A
:103E0000002464E009A800EB840090ED000A10EEA5
:103E1000101A084604F046F841EC1E0BB0EE4E0AAC
:103E2000F0EE6E0A01F090F9B0EE40CAF0EE60CA12
:103E300018EE100A04F036F841EC1D0B53EC1C2B65
:103E400003F070FD41EC1A0B304604F02BF841EC06
:103E50001B0B53EC1A2B03F00BFB41EC190B03F07B
:103E6000D5FA05A941F8240009A800EB840090EDDB
:103E7000000A10EE101A084604F014F841EC1E0B6C
:103E8000B0EE4E0AF0EE6E0A01F0FAF8B0EE40CA5B
:103E9000F0EE60CA18EE100A04F004F841EC1D0BB5
:103EA00053EC1C2B03F03EFD41EC1A0B384603F09B
:103EB000F9FF41EC1B0B53EC1A2B03F0D9FA41EC40
:103EC000190B03F0A3FA01A941F82400641C042C87
:103ED00098DB002468E005A800EB840090ED000A60
:103EE00020EE000A01A800EB8400D0ED000A01A832
:103EF00000EB840090ED001A00EE810A10EE101A1B
:103F0000084603F0CFFF41EC1A0BB0EE4A0AF0EE80
:103F10006A0A01F07DF9B0EE409AF0EE609A51EC39
:103F2000190B03F073FA05F1140141F8240009A8F4
:103F300000EB840090ED000AB5EEC00AF1EE10FA35
:103F400016D009A901EB8401D1ED000AB0EE600A98
:103F500019494868804730EE280AF0EE000A80EEE2
:103F6000201A05F1240000EB840080ED001A05E022
:103F700005F1240000EB8400C0ED008A204604EB2C
:103F8000D0714910A4EB410169B105F1140000EBB7
:103F9000840090ED000AB1EE400A05F1140000EB38
:103FA000840080ED000A641C042C94DB0DB0BDEC91
:103FB0000E8BF0BD000000005804002000003442C9
:103FC00000000743000034C2000007C310B52DED08
:103FD000068B84B004469FED220AB0EE408A9FED26
:103FE000200AF0EE408A0020009001900290039099
:103FF000206803F06CFC41EC1A0B9FED1A0B53EC9C
:10400000102B03F08FFC41EC190B03F0FFF908EEC5
:10401000100AE06803F05BFC41EC1A0B9FED110BFA
:1040200053EC102B03F07EFC41EC190B03F0EEF97E
:1040300008EE900A00200CE004F1140101EB80016D
:1040400081ED008A04F1240101EB8001C1ED008AB9
:10405000401C0428F0DB04B0BDEC068B10BD000052
:10406000000000009A9999999999B93F10B50446B2
:10407000D4ED050AB0EE600A1048272142691048C5
:104080009047D4ED060AB0EE600A0C482821426938
:104090000B489047D4ED070AB0EE600A0748262186
:1040A000426907489047D4ED080AB0EE600A034819
:1040B000252142690248904710BD000004040020F9
:1040C000D804002010B500BF502080F31188BFF342
:1040D0004F8FBFF36F8F00BF02F0B6FF18B14FF0E4
:1040E00080500449086000BF002080F3118800BFA1
:1040F00010BD000004ED00E000B593B0302107A82A
:10410000FCF732FA142102A8FCF72EFA00BF0020B7
:1041100001902648006840F0805024490860084615
:10412000006800F08050019000BF00BF00BF002079
:1041300001901F48006840F440401D49086008464F
:10414000006800F44040019000BF00BF01200790CC
:104150000004089002200D9041050E9106210F9158
:10416000B4211091022111910421129107A8FEF7A8
:10417000ABFD08B1FDF736FBFEF7FEFB08B1FDF71E
:1041800031FB0F20029002200390002004904FF496
:10419000A05005904FF480500690052102A8FEF72C
:1041A00031FC08B1FDF71EFB13B000BD40380240E2
:1041B000007000400548006840F470000349086042
:1041C0004FF00060014980390860704788ED00E0D9
:1041D00010B50248FFF749F810BD00003408002070
:1041E00010B50268294B98420ED0B0F1804F0BD029
:1041F000274B984208D0274B984205D0264B98422F
:1042000002D0264B984203D122F070024B681A4329
:104210001E4B984220D0B0F1804F1DD01C4B9842CD
:104220001AD01C4B984217D01B4B984214D01B4BF2
:10423000984211D01A4B98420ED01A4B98420BD08C
:10424000194B984208D0194B984205D0184B984208
:1042500002D0184B984203D122F44072CB681A4323
:1042600022F080034C6943EA040202608B68C36257
:104270000B688362054B984202D0084B984201D1EB
:104280000B6903630123436110BD0000000001407E
:104290000004004000080040000C00400004014001
:1042A0000040014000440140004801400018004027
:1042B000001C00400020004030B5056A25F00105D3
:1042C0000562026A4368846924F0700424F00304E0
:1042D0000D682C4322F002028D682A43104DA8423B
:1042E00000D103E00F4DA84206D100BF22F0080222
:1042F000CD682A4322F00402094DA84202D0094D9C
:10430000A84207D123F4807323F400734D692B4333
:104310008D692B43436084614D684563026230BD03
:10432000000001400004014030B5056A25F0100589
:104330000562026A4368846924F4E04424F440740A
:104340000D6844EA052422F020028D6842EA051235
:10435000124DA84200D103E0114DA84207D100BF81
:1043600022F08002CD6842EA051222F040020B4D95
:10437000A84202D00A4DA84209D123F4806323F455
:1043800000634D6943EA85038D6943EA8503436011
:1043900084614D688563026230BD00000000014009
:1043A0000004014030B5056A25F480750562026A93
:1043B0004368C46924F0700424F003040D682C439E
:1043C00022F400728D6842EA0522124DA84200D103
:1043D00003E0114DA84207D100BF22F40062CD686E
:1043E00042EA052222F480620A4DA84202D00A4D18
:1043F000A84209D123F4805323F400534D6943EAC2
:1044000005138D6943EA05134360C4614D68C563B4
:10441000026230BD000001400004014030B5056A71
:1044200025F480550562036A4468C26922F4E042BB
:1044300022F440720D6842EA052223F400538D688D
:1044400043EA0533084DA84202D0084DA84204D1E2
:1044500024F480444D6944EA85144460C2614D6887
:104460000564036230BD000000000140000401400B
:1044700070B50546AC6B0020E085E0842046FFF770
:10448000B8F870BD0168C96821F490710268D16004
:104490000168496921F0010102685161202180F819
:1044A0003A10704710B504462068C06820F04000FC
:1044B0002168C860202084F839002046FFF7EFF912
:1044C000002010BD70B5044694F83A0022284AD165
:1044D000A068B0F5805F13D1A56A206940B9206853
:1044E0004068C0F308002880A06A801CA06219E020
:1044F00020684068C0B22880A06A401CA06211E019
:10450000206938B920684068C1B2A26A501CA06214
:10451000117007E02068406800F07F01A26A501C1B
:10452000A0621170E08D401E80B2E085C8B920689D
:10453000C06820F020002168C8602068C06820F4AE
:1045400080702168C8602068406920F001002168FF
:104550004861202084F83A002046FFF79FF90020A8
:1045600070BD0020FCE70220FAE700002DE9F84FBB
:1045700004462068006920F44050E168084321683F
:1045800008612169A068084361690843E16908433B
:1045900000902068C06849F20C6188430099084384
:1045A0002168C8602068406920F44070A169084310
:1045B00021684861E069B0F5004F75D1E349206892
:1045C000884203D0E249206888426FD1FEF714FB8D
:1045D000814602206168A0FB01510B461920A9FB0E
:1045E00000712A463846FBF7D1FE6421B0FBF1F09A
:1045F0004FEA001A02206168A0FB01510B46192006
:10460000A9FB00712A463846FBF7C0FE0746022088
:104610006168A0FB01510B461920A9FB00B12A4695
:104620005846FBF7B3FE6421B0FBF1F000EBC0018C
:1046300001EB0010A7EB8000322101EBC0006421E8
:10464000B0FBF1F000F0F8000AEB400A02206168CC
:10465000A0FB01510B461920A9FB00712A463846E0
:10466000FBF794FE074602206168A0FB01510B4650
:104670001920A9FB00B12A465846FBF787FE6421A2
:10468000B0FBF1F000EBC00101EB0010A7EB8000E4
:10469000322101EBC0006421B0FBF1F000F0070013
:1046A0005044216888604FE16EE0FFE7FEF794FA1E
:1046B000814602206168A0FB01510B461920A9FB2D
:1046C00000712A463846FBF761FE6421B0FBF1F029
:1046D0004FEA001A02206168A0FB01510B46192025
:1046E000A9FB00712A463846FBF750FE0746022018
:1046F0006168A0FB01510B461920A9FB00B12A46B5
:104700005846FBF743FE6421B0FBF1F000EBC0011B
:1047100001EB0010A7EB8000322101EBC000642107
:10472000B0FBF1F000F0F8000AEB400A02206168EB
:10473000A0FB01510B461920A9FB00712A463846FF
:10474000FBF724FE074602206168A0FB01500346E8
:104750001920A9FB00B12A465846FBF717FE642131
:10476000B0FBF1F000EBC00101EB0010A7EB800003
:10477000322101EBC0006421B0FBF1F000F0070032
:10478000504421688860DFE070492068884203D087
:104790006F49206888426BD1FEF72EFA81460420CB
:1047A0006168A0FB01510B461920A9FB00712A4644
:1047B0003846FBF7EBFD824604206168A0FB0151FF
:1047C0000B461920A9FB00712A463846FBF7DEFD8F
:1047D0006421B0FBF1F000EBC00101EB0010AAEB8B
:1047E0008000322101EB00106421B0FBF1F000F0F9
:1047F000F00A04206168A0FB015003461920A9FBC0
:1048000000712A463846FBF7C1FD6421B0FBF1F088
:104810000AEB001A04206168A0FB01510B46192025
:10482000A9FB00712A463846FBF7B0FD0746042075
:104830006168A0FB015003461920A9FB00B12A467C
:104840005846FBF7A3FD6421B0FBF1F000EBC0017B
:1048500001EB0010A7EB8000322101EB0010642176
:10486000B0FBF1F000F00F005044216888606BE06D
:10487000FEF7B2F9814604206168A0FB01500346AF
:104880001920A9FB00712A463846FBF77FFD8246B6
:1048900004206168A0FB015003461920A9FB0071A8
:1048A0002A463846FBF772FD6421B0FBF1F000EBBD
:1048B000C00101EB0010AAEB8000322101EB0010D7
:1048C0006421B0FBF1F000F0F00A04206168A0FB65
:1048D000015003461920A9FB00712A463846FBF710
:1048E00055FD6421B0FBF1F00AEB001A0420616869
:1048F000A0FB017003461920A9FB005001463A466F
:104900002846FBF743FD074604206168A0FB0150E1
:1049100003461920A9FB00B12A465846FBF736FD8D
:104920006421B0FBF1F000EBC00101EB0010A7EB3C
:104930008000322101EB00106421B0FBF1F000F0A7
:104940000F00504421688860BDE8F88F00100140D6
:1049500000140140014691F8390021282CD18868C3
:10496000B0F5805F0FD10A6A1088C0F308000B68A9
:104970005860086918B9086A801C086209E0086A6A
:10498000401C086205E00B6A581C086218780B6826
:104990005860C88C401E80B2C88458B90868C06886
:1049A00020F080000B68D8600868C06840F04000C4
:1049B0000B68D860002070470220FCE710B54FF468
:1049C00080610548FDF7C6FE0448416A04488847EF
:1049D0000348FEF70FFE10BD00100240A8000020A3
:1049E0009407002070B504460D46164694F83A0028
:1049F000202815D105B10EB9012070BDA562A6858C
:104A00000020E0632268111D33462A46606BFDF7E3
:104A10005FFD2068406940F040002168486101E086
:104A20000220EAE70020E8E700BFFEE7F0B589B022
:104A300007460D4616461C46082C00DD0824049542
:104A40000421059100210691079401A801772246CF
:104A50003146FBF712FD0123324603A93846FCF725
:104A6000C2FE09B0F0BD000070B52DED068B82B01E
:104A700005460C46B0EE408A0020019018EE100A60
:104A800003F010FA41EC1A0B9FED0D0B53EC102BB9
:104A900002F048FF41EC190B02F0EAFE064601AABB
:104AA0003146684601F018F80198C3B244F48071A9
:104AB0006A462846FFF7BAFF02B0BDEC068B70BD10
:104AC0000000000000408F4030B52DED028B83B018
:104AD00005460C46B0EE408A002002909FED0B0A7E
:104AE00028EE000ABDEEC00A10EE101A02AA01A8B4
:104AF00000F0F2FF0298C3B2214601AA2846FFF750
:104B000095FF03B0BDEC028B30BD00000050C347E1
:104B100030B52DED028B83B005460C46B0EE408AD1
:104B20000020029002AABDEEC80A10EE101A01A8D9
:104B300000F0D2FF0298C3B244F4407101AA2846A3
:104B4000FFF774FF03B0BDEC028B30BD03B40198D6
:104B50004100009850EAC12018BF04204A0D18BF38
:104B600040F0010040F2FF72B2EB515F08BF40F02D
:104B70000200012808BF052002B070470248006803
:104B8000C0F30220704700000CED00E010B50028D3
:104B900004DB0A07130E054A135406E00A07140E35
:104BA000034A00F00F031B1FD45410BD00E400E0C3
:104BB00018ED00E00000000070B59B482DED020BE1
:104BC0002DED068B079D25F00044A04218DC974888
:104BD000844202DC0AD1069840B19DED060BBDEC83
:104BE000068B02B0BDE8704000F03ABF002DCCBF8C
:104BF0009FED8F0B9FED900BBDEC068B02B070BD4F
:104C00008F48A04215DD8F48A042D8BF4FF0FF3437
:104C100058DD9DED060B51EC100BFFF797FF0428B4
:104C200008BF00F041FF9DED060BBDEC068B02B006
:104C300070BD9DED060B51EC100B00F08AFFCDE925
:104C4000060181489FED828BA0423CDD8248A04254
:104C50001FDD00249FED82AB9DED060B53EC1A2B5C
:104C600051EC100B02F004FC9DED060B41EC190B0E
:104C700053EC1A2B51EC100B02F054FE53EC182B92
:104C800003F026F853EC192B02F09AFCCDE906014B
:104C900049E09DED060B012453EC182B51EC100B51
:104CA00002F0E6FB9DED060B41EC190B53EC182BC3
:104CB00051EC100B03F00CF853EC192B02F080FCB4
:104CC000CDE906012FE06848A0421FDD02249FEDD8
:104CD000689B9DED060B53EC192B51EC100B02F069
:104CE00021FE53EC182B02F0C3FB9DED060B41ECAB
:104CF000180B53EC192B51EC100B02F0E9FF53EC9D
:104D0000182B02F05DFCCDE906010CE09DED060BD1
:104D1000032453EC102B9FED580B51EC100B02F0B9
:104D20004FFCCDE906019DED060B53EC102B51EC29
:104D3000100B02F0F7FD41EC180B53EC182B02F0AE
:104D4000F1FD41EC190B4E480621B0EE490AF0EE98
:104D5000690A784400F070FD53EC182B51EC100BED
:104D600002F0E0FD41EC180B4648B0EE490AF0EEC7
:104D7000690A0521784400F05FFD53EC192B51ECD2
:104D8000100B02F0CFFD41EC100B51EC180B53EC63
:104D9000102B002C0EDA02F06BFB9DED061B53EC82
:104DA000112B02F0BFFD9DED061B53EC112B02F001
:104DB000B7FE35E002F05CFB9DED061B53EC112BBA
:104DC00002F0B0FD41EC100B2F48784400EBC4001A
:104DD00090ED001B51EC100B53EC112B02F078FFFF
:104DE0009DED061B53EC112B02F072FF41EC100BF2
:104DF0002648784400EBC40090ED001B51EC100BEA
:104E000053EC112B02F08CFE41EC100B002DA2BFD5
:104E1000BDEC068B02B070BD51EC100B02F0EAFA4B
:104E200041EC100B01E70000000010440000F07F8F
:104E3000182D4454FB21F93F182D4454FB21F9BF90
:104E40000000DC3F0000203E0000F33F00000000B7
:104E5000000000000000F03F0000E63F00000000FE
:104E6000000000000000004000800340000000003F
:104E7000000000000000F83F000000000000F0BF4C
:104E800042330000F8320000823200003A32000063
:104E900070B56B4E2DED040B2DED028B82B0DDF85D
:104EA0001CC0DDE905235C422CF000411C4341EAB3
:104EB000D474049D22F00040B44205D86C422C43C7
:104EC00040EAD474B4420BD99DED061B9DED040B52
:104ED00002B0BDEC028B04B0BDE8704000F0CABD6A
:104EE000ACF14054A4F17F641C430BD0022404EACB
:104EF000AC7444EAD27405439FED538B9FED542B61
:104F000007D015E09DED040B51EC100B00F0DCFD1B
:104F100042E0002C11BF012C9DED040B02B0BDEC52
:104F2000028B04BF04B070BD022C38D0032C3BD0E0
:104F30000B439FED491B9FED4A0B0AD0B14218D19C
:104F4000B04209D121F0804120F0804007910590C6
:104F50000FE0002A15DA10E0434B7B44002C08BF19
:104F600093ED000B0DD0012C10D0022C17D0032C88
:104F70001AD0B0421DD1002A03DAB0EE410AF0EE99
:104F8000610A02B0BDEC028B04B070BD93ED000B62
:104F900051EC100B02F02EFA41EC100BF1E7B0EEE1
:104FA000480AF0EE680AECE7B0EE420AF0EE620A58
:104FB000E7E7401A00153C28C8BF8DED000B19DC4F
:104FC000BCF1000FBEBF10F13C0F9FED290B8DED22
:104FD000000B0FDB9DED060B53EC102B9DED040B2E
:104FE00051EC100B02F0ECFA00F0B3FD00F06CFD98
:104FF000CDE90001002C08BF9DED000BC1D0012CB4
:1050000010D0022C9FED1C0B53EC102B9DED000BD0
:1050100051EC100B0DD002F05BFE53EC182B02F09C
:1050200057FEB9E7019880F0004001909DED000B1C
:10503000A7E702F04DFE53EC182B02F071FDABE731
:105040000000F07F00000000182D4454FB210940AF
:10505000182D4454FB2109C0182D4454FB21F9BFDD
:10506000182D4454FB21F93F9A3100000000000044
:105070000000000000000000075C143326A6A13CDD
:1050800010B52F499FED2C1B2DED020B84B0059818
:1050900020F000408842D8BF9DED040B2DDD29494A
:1050A000884209D1049840B94FF00100FBF78BFA10
:1050B00000F0EAFC06B010BD05DB9DED040B00F02E
:1050C000CFFC06B010BD68469DED040B00F0E0F883
:1050D00010F0030004BF9DED021B9DED000B0CD0F2
:1050E00001280ED09DED021B9DED000B022817D06C
:1050F000012000F01DFC06B010BD00F0E5FA06B07E
:1051000010BD9DED021B9DED000B012000F010FC79
:1051100051EC100B02F06EF906B041EC100B10BD13
:1051200000F0D2FA51EC100B02F064F906B041EC39
:10513000100B10BD00000000000000000000000087
:10514000FB21E93F0000F07F10B52F499FED2C1B9C
:105150002DED020B84B0059820F000408842DCBFA2
:1051600000209DED040B32DD2849884209D10498C6
:1051700040B94FF00100FBF726FA00F085FC06B0BD
:1051800010BD05DB9DED040B00F06AFC06B010BD00
:1051900068469DED040B00F07BF810F0030011D081
:1051A000012818D09DED021B9DED000B02281AD09E
:1051B00000F08AFA51EC100B02F01CF906B041EC39
:1051C000100B10BD9DED021B9DED000B012000F0AA
:1051D000AFFB06B010BD9DED021B9DED000B00F076
:1051E00073FA06B010BD012000F0A2FB51EC100BC9
:1051F00002F000F906B041EC100B10BD00000000F9
:105200000000000000000000FB21E93F0000F07FEB
:1052100000B52DED048BB0EE409AF0EE609A83B0AD
:1052200051EC190B02F088FC41EC180B18EE100A37
:1052300018EE901A8DED008B002818BF012008434E
:1052400020F00040C0F17F6000F1E040C00F14D0BA
:1052500019EE101A19EE900A8DED009B002918BF67
:105260000121084320F00040C0F17F6000F1E040E0
:10527000C00F04BF0120FBF7A6F9B0EE480A03B047
:10528000F0EE680ABDEC048B00BD000000000000D9
:105290002DE9F14F04462DED020B2DED088B8AB060
:1052A0009FEDE70B80ED020B139EE74826F00045CB
:1052B00085420ADC9DED120B002084ED000B0AB044
:1052C000BDEC088B03B0BDE8F08FE0489FEDE0AB8C
:1052D0009FEDE1BBA84247DDE14F9FEDE39B9FEDD2
:1052E000E48B9DED120B53EC1A2B51EC100B002E9E
:1052F0001CDD02F0EDFC41EC100BBD4208D053EC7C
:105300001B2B51EC100B02F0E3FCC4E900010BE095
:1053100053EC192B51EC100B02F0DAFC53EC182B68
:1053200002F0D6FCC4E900010120C8E702F0A0F8B1
:1053300041EC100BBD4208D053EC1B2B51EC100B71
:1053400002F096F8C4E900010BE053EC192B51EC84
:10535000100B02F08DF853EC182B02F089F8C4E919
:1053600000014FF0FF30AAE7C348A84279DB9DED6A
:10537000120B51EC100B00F0ECFB41EC180B9FED05
:10538000C00B53EC102B02F0CDFA9FEDBF1B53EC7A
:10539000112B02F06DF802F06BFA074602F097FA53
:1053A00041EC190B53EC1A2B02F0BCFA53EC182BFE
:1053B00002F0B6FB41EC180B53EC1B2B51EC190B14
:1053C00002F0B0FADFF8C8A241EC100B4FEA155812
:1053D0000125FA4453EC102B51EC180B02F078FC29
:1053E000032DC4E900013DD0C1F30A5005EB45117E
:1053F000A8EB00001139814234DA0AEB051BB0EE4C
:1054000048AA9BED000BF0EE68AA53EC102B51EC70
:10541000190B02F087FA41EC1B0B51EC1A0B53EC01
:105420001B2B02F055FC41EC180B51EC1A0B53EC02
:10543000182B02F04DFC53EC1B2B02F049FC9BEDAA
:10544000020B41EC1A0B53EC102B51EC190B02F030
:1054500069FA53EC1A2B02F03BFC41EC100B6D1C6B
:10546000B8E70EE0002EA8BF3846BFF628AF94ED8F
:10547000000B51EC100B01F0BDFFC4E900017842B4
:105480001DE7C6F3130040F4801EC6F30A50A0F2D5
:10549000F530471100F01F05C5F12000DDF848B0D8
:1054A00008900020069007900520EC467949002DD1
:1054B00007EB0002794408BF51F8221009D051F8D7
:1054C000223001EB8201AB404A68089922FA01F1CF
:1054D0001943A1FB0E26A1FB0B131A449A4234BFB9
:1054E0000123002303EB06080CEB8003D3E901A69C
:1054F0000E448E4234BF0121002192448A4411B1EE
:10550000924502D903E0924501D2012100E0002139
:10551000C3E901A641444CF82010011EA0F101008E
:10552000C4DC029800F10050850F0298DDE90367A2
:105530008000DDF8148002F0CAF941EC1A0B304605
:1055400002F0DCF99FED541B53EC112B02F0EAF949
:1055500041EC1B0B384602F0D1F99FED511B53EC87
:10556000112B02F0DFF941EC180B404602F0C6F9AE
:105570009FED4D1B53EC112B02F0D4F941EC190BAC
:1055800051EC180B53EC192B01F072FF53EC1B2B51
:1055900001F06EFF53EC1A2B01F06AFFCDE9080110
:1055A000002008909DED080B53EC1A2B51EC100BCA
:1055B00002F08EFB53EC1B2B02F08AFB53EC182BF2
:1055C00002F086FB53EC192B02F0AAFA9FED381B70
:1055D00053EC112B02F0A6F99FED370B41EC180BA1
:1055E00053EC102B9DED080B51EC100B02F09AF9C7
:1055F00053EC182B01F03CFF9FED310B41EC180BE5
:1056000053EC102B9DED080B51EC100B02F08AF9B6
:1056100053EC182B01F02CFF41EC100B139810F0F9
:10562000004F06D06D4251EC100B01F0E3FE41EC4F
:10563000100B284684ED000B41E60000000000003E
:105640000000000000000000FB21E93F7CD902407F
:1056500000004054FB21F93F3163621A61B4D03D30
:10566000FB21F93F000000000000601A61B4D03D4A
:105670007370032E8A19A33BFB21394100000000FF
:1056800083C8C96D305FE43F000000000000E03FC8
:105690002A2D0000782C0000000000000000103EC1
:1056A000000000000000103C000000000000103A64
:1056B000182D4454FB21F93D3326A611460B113C0D
:1056C00000000054FB21F93D10B52DED040B2DED2C
:1056D000088B82B0B0EE419AF0EE619A0B9820F000
:1056E00000449FED4BABB4F1795F11DA9DED0A0BED
:1056F00051EC100B02F0BCF8002801BFB0EE4A0AD2
:10570000F0EE6A0A02B0BDEC088B04BF04B010BD15
:105710009DED0A0B53EC102B51EC100B02F002F92B
:1057200041EC180B3C480621B0EE480AF0EE680A3E
:10573000784400F081F853EC182B51EC100B02F078
:10574000F1F89DED0A0B41EC1B0B53EC192B51ECBE
:10575000100B02F0E7F841EC190B53EC1B2B51EC4A
:10576000180B02F0DFF853EC192B02F0B1FA9FEDA1
:105770002C0B41EC190B53EC102B51EC180B02F0D5
:10578000D1F841EC100B2848844210DA53EC192B65
:1057900051EC100B02F09CFA53EC1A2B02F0C0F9FA
:1057A00041EC100B02B0BDEC088B04B010BD1F48DB
:1057B000A042BCBF9FED1E1B8DED001B06DBA4F5B8
:1057C00000100190002000909DED001B51EC100B8B
:1057D00053EC112B02F07CFA9DED000B41EC180B01
:1057E00053EC102B51EC1A0B02F072FA41EC1A0B2D
:1057F00053EC192B51EC180B02F06AFA53EC1A2BEC
:1058000002F08EF941EC100BCCE700000000000024
:10581000000000000000F03F94290000000000009C
:10582000000000000000E03F3333D33F0000E93FB9
:10583000000000000000D23F70B504462DED028B41
:105840004D1E00EBC500B0EE408AF0EE608A90ED90
:10585000000B35F0060017D053EC182B51EC100B51
:1058600002F060F841EC100B6D1E04EBC50090EDEA
:10587000001B51EC100B53EC112B01F0F9FD41EC26
:10588000100B35F00600E7D1022D36D0042D1CD0C8
:10589000062D1CBFBDEC028B70BD53EC182B51ECD8
:1058A000100B02F03FF894ED0A1B53EC112B01F0A2
:1058B000DFFD53EC182B02F035F894ED081B53EC88
:1058C000112B01F0D5FD41EC100B53EC182B51ECD2
:1058D000100B02F027F894ED061B53EC112B01F08E
:1058E000C7FD53EC182B02F01DF894ED040B53EC9C
:1058F000102B01F0BDFD41EC100B53EC182B51ECBB
:10590000100B02F00FF894ED021B53EC112B01F079
:10591000AFFD53EC182B02F005F894ED001B53EC8F
:10592000112B01F0A5FDBDEC028B41EC100B70BDFD
:1059300031B504462DED040B2DED0A8BB0EE41BAC6
:10594000F0EE61BA0B989DED0A0B20F00040B0F12B
:10595000795F0DDA51EC100BFFF7F8F8042808BF57
:1059600000F0A2F89DED0A0BBDEC0A8B05B030BD2E
:1059700053EC102B51EC100B01F0D4FF41EC180B41
:105980009DED0A0B53EC182B51EC100B01F0CAFFE4
:1059900041EC190B2C48B0EE480AF0EE680A0521DC
:1059A0007844FFF749FF9FED2ACBB0EE40AAF0EE16
:1059B00060AA9CB353EC1C2B51EC190B01F0B2FF05
:1059C00041EC1C0B53EC1A2B51EC190B01F0AAFF04
:1059D0009FED210B41EC190B53EC102B51EC1B0BE1
:1059E00001F0A0FF53EC192B02F072F953EC182BC5
:1059F00001F098FF53EC1B2B02F06AF953EC1C2BBF
:105A000002F066F99DED0A1B53EC112B02F088F8A9
:105A1000BDEC0A8B05B041EC100B30BDFFE753EC39
:105A20001A2B51EC180B01F07DFF53EC1C2B01F0ED
:105A30001FFD53EC192B01F075FF9DED0A1B53EC74
:105A4000112B01F015FDE3E7242800000000000001
:105A5000495555555555C5BF000000000000E03FB1
:105A600010B553EC102B51EC100B01F001FD41EC83
:105A7000100B10BD10B553EC112B51EC100B01F0B5
:105A8000F7FC41EC100B10BD9FED050B10B553EC6E
:105A9000102B51EC100B01F093FD41EC100B10BDDD
:105AA00000000000000000009FED050B10B553EC56
:105AB000102B51EC100B01F035FF41EC100B10BD19
:105AC000000000000000001010B541EC100BFFF7C3
:105AD00073F851EC100B10BD30B50C0E15686B1C33
