:020000040800F2
:10000000D04E00200D0300082B2A000851280008BC
:10001000292A000809080008CD2E00080000000069
:100020000000000000000000000000004D02000879
:10003000650F000800000000A9020008692A0008F6
:1000400027030008270300082703000827030008E8
:1000500027030008270300082703000827030008D8
:1000600027030008270300082703000827030008C8
:1000700027030008270300082703000827030008B8
:1000800027030008270300082703000827030008A8
:10009000B508000827030008270300082703000805
:1000A0002703000827030008270300082703000888
:1000B0002703000827030008270300082703000878
:1000C0002703000827030008270300082703000868
:1000D000270300085D2E00082703000827030008F7
:1000E0002703000827030008270300082703000848
:1000F0002703000827030008270300082703000838
:100100002703000827030008270300082703000827
:100110002703000827030008392B000827030008DD
:1001200027030008270300085D0B000827030008C9
:1001300027030008270300082703000827030008F7
:100140007509000827030008270300082703000893
:1001500027030008270300082703000827030008D7
:1001600027030008270300082703000827030008C7
:1001700027030008270300082703000800000000E9
:1001800027030008270300082703000827030008A7
:100190002703000827030008270300082703000897
:1001A00000000000000000002703000800F002F833
:1001B00000F03CF80AA090E8000C82448344AAF1C5
:1001C0000107DA4501D100F031F8AFF2090EBAE8C3
:1001D0000F0013F0010F18BFFB1A43F0010318477B
:1001E0006C4F00008C4F0000103A24BF78C878C1D3
:1001F000FAD8520724BF30C830C144BF04680C602D
:10020000704700000023002400250026103A28BF74
:1002100078C1FBD8520728BF30C148BF0B60704778
:100220001FB504F0F9FE1FBD10B510BD00F0AAF90E
:100230001146FFF7F5FF03F09FF900F0C8F903B48A
:10024000FFF7F2FF03BC00F0CBF900002C4B19685C
:100250000868B0E8F04F80F30988BFF36F8F4FF064
:10026000000080F311887047000000000848006813
:10027000006880F308884FF0000080F3148862B6AD
:1002800061B6BFF34F8FBFF36F8F00DF00BF00BFBA
:1002900008ED00E0DFF80C00016841F47001016036
:1002A000704700BF88ED00E0EFF30980BFF36F8F68
:1002B000134B1A681EF0100F08BF20ED108A20E9BA
:1002C000F04F106009B44FF0500080F31188BFF375
:1002D0004F8FBFF36F8F03F02DFE4FF0000080F3C0
:1002E000118809BC19680868B0E8F04F1EF0100FBB
:1002F00008BFB0EC108A80F30988BFF36F8F704796
:1003000020000020EFF30580704700000948804777
:1003100009480047FEE7FEE7FEE7FEE7FEE7FEE7E7
:10032000FEE7FEE7FEE7FEE704480549054A064BFF
:10033000704700001D2B0008AD010008D0480020C8
:10034000D04E0020D04A0020D04A002053EA020CB0
:1003500000F069802DE9F04B4FF00006002B1FBF25
:10036000B3FA83F503FA05F424FA05F65E4012BFEA
:100370001643B2FA82F502FA05F4C5F120051EBF54
:1003800022FA05FC44EA0C04203556EA044C4FEAF4
:10039000144418BF641C4FF000084FF0000990424D
:1003A00071EB030C39D3002919BFB1FA81F701FAB7
:1003B00007F6B0FA80F700FA07F6C7F120071EBF6C
:1003C00020FA07FC46EA0C062037B6FBF4FCA7EB44
:1003D0000507103F07F01F0BCBF120060CFA0BFBB3
:1003E0002CFA06F644BFB3460026202FA4BF5E4673
:1003F0004FF0000B5BEA060C08BF4FF0010B19EB46
:100400000B09ABFB027C48EB0608C01B06FB02CCC9
:100410000BFB03CC71EB0C01C1E70B4602464146D6
:100420004846BDE8F08B13B54FF000004FF00001D7
:10043000AFF30080BDE81C407047032A40F23080D3
:1004400010F0030C00F0158011F8013BBCF1020F15
:10045000624498BF11F801CB00F8013B38BF11F896
:10046000013BA2F1040298BF00F801CB38BF00F8AD
:10047000013B11F0030300F02580083AC0F008802A
:1004800051F8043B083A51F804CBA0E80810F5E70E
:10049000121D5CBF51F8043B40F8043BAFF30080F1
:1004A000D20724BF11F8013B11F801CB48BF11F866
:1004B000012B24BF00F8013B00F801CB48BF00F836
:1004C000012B704710B5203AC0F00B80B1E81850EE
:1004D000203AA0E81850B1E81850A0E81850BFF42E
:1004E000F5AF5FEA027C24BFB1E81850A0E81850CD
:1004F00044BF18C918C0BDE810405FEA827C24BF21
:1005000051F8043B40F8043B08BF7047D20728BFAE
:1005100031F8023B48BF11F8012B28BF20F8023BFD
:1005200048BF00F8012B70474FF0000200B513469A
:1005300094469646203922BFA0E80C50A0E80C5003
:10054000B1F12001BFF4F7AF090728BFA0E80C50B4
:1005500048BF0CC05DF804EB890028BF40F8042BAD
:1005600008BF704748BF20F8022B11F0804F18BF1A
:1005700000F8012B7047704770477047004870477C
:100580006C4800207546FFF7F9FFAE460500694646
:10059000534620F00700854618B020B5FFF7C4FE8B
:1005A000BDE820404FF000064FF000074FF0000874
:1005B0004FF0000B21F00701AC46ACE8C009ACE8F5
:1005C000C009ACE8C009ACE8C0098D46704710B559
:1005D0000446AFF300802046BDE81040FFF72FBE71
:1005E00001491820ABBEFEE726000200704700005C
:1005F0000FB40022F8B500920A98C0B2A0F1250607
:10060000C82E35DA002833D00A996D4BC1F307277D
:100610006A4906ADF2EE040A0F709FED6A0A0A9C61
:10062000E4B2253C03EB04140F2F6CD023DC092F1C
:100630003CD00E2F1CD104F150038B60C4E914028E
:100640006946681C02F080FF00EE900A6946681C4B
:10065000F8EEE00A80EE801A84ED161A02F074FFBC
:1006600000EE900AF8EEE00A80EE801A84ED171A88
:10067000F8BC5DF814FB102F63D01B2FF8D104F5E4
:1006800098734B61E4E94C026946681C02F05CFF18
:10069000E0606946681C02F04FFF00EE100AB8EEF9
:1006A000C00A80EE201A84ED021AE1E706EB860606
:1006B00003EB86044C6043F826006946681C6260C0
:1006C00002F042FF00EE100A6946681CB8EEC00A4C
:1006D00084ED020A02F030FF00EE100A6946681C41
:1006E000B8EEC00A80EE201A84ED031A02F024FF4F
:1006F00000EE100ADFED340AB8EEC00A80EE201AD0
:1007000084ED041AB4E704F19003CB60E4E9240219
:100710006946681C02F018FF00EE900A6946681CE2
:10072000F8EEE00A80EE801A84ED021A02F00CFF67
:1007300000EE900AF8EEE00A80EE801A84ED031ACB
:1007400096E706EB460403EBC40303F1D0040C6107
:10075000E3E934026946681C02F0EEFE00EE100A7E
:100760006946681CB8EEC00A80EE201A83ED021AB2
:1007700002F0E2FE00EE100A6946681CB8EEC00AFC
:1007800080EE201A83ED031A02F0D6FE00EE100A66
:100790006946681CB8EEC00A80EE201A83ED041A80
:1007A00002F0CAFE00EE100ADFED080AB8EEC00A39
:1007B00080EE201A83ED051A5AE70000C4000020DD
:1007C000DC46002000401C4600007A4400004842FD
:1007D00000B587B018220A496846FFF773FE08483B
:1007E00010380FC800F0AEF8064800F0DFFF0548EB
:1007F0000068416941F00201416107B000BD00009D
:100800003801002078010020FEE700000C4800B508
:1008100000688BB04069800710D501208DF800007A
:100820000021074803AA0DF1010300F03CFD054833
:1008300000231A466946006803F0C0FC0BB000BDF7
:10084000500100200C0000200C4800B500688BB05F
:100850004069800710D501208DF80000002107486D
:1008600003AA0DF1010300F01EFD054800231A46FE
:100870006946006803F0A2FC0BB000BD50010020E7
:100880000C0000200FB4002010B50121CDE90801B3
:100890000A91069007900B900290039004900590A7
:1008A00002A9034800F078FC10BC5DF814FB0000BE
:1008B0005001002000B58BB04FF400610F4801F0EB
:1008C00003FA0F4800684069800710D501208DF8B1
:1008D000000000210A4803AA0DF1010300F0E3FC27
:1008E000084800231A466946006803F067FC0BB00D
:1008F00003485DF804EB00F04ABD00000010024020
:10090000500100200C0000200C4800B500688BB09E
:100910004069800710D502208DF8000000210748AB
:1009200003AA0DF1010300F0BEFC054800231A469E
:100930006946006803F042FC0BB000BD780100205E
:100940000C0000200FB4002010B50121CDE90801F2
:100950000A91069007900B900290039004900590E6
:1009600002A9034800F018FC10BC5DF814FB00005D
:100970007801002000B58BB04FF480510F4801F092
:10098000A3F90F4800684069800710D502208DF850
:10099000000000210A4803AA0DF1010300F083FCC6
:1009A000084800231A466946006803F007FC0BB0AC
:1009B00003485DF804EB00F0EABC000000100240C0
:1009C000780100200C00002090B0244E4FF0FF373B
:1009D0000AAC3A4606A9B06803F04EFC9DF8180030
:1009E000012826D1099840F20221A0F20222884271
:1009F0000BD006DC012810D0A0F50070013828D1FA
:100A000003E0012A01D0022A23D118222146684698
:100A1000FFF758FD1248856806E01822214668460F
:100A2000FFF750FD0F4885690DF1180C9CE80F0089
:100A3000A8479DF8180002280BD1182221466846C5
:100A4000FFF740FD08480DF1180C45689CE80F00C1
:100A5000A847012002F0A9FDBBE700000400002028
:100A6000AC000020DC000020B800002010B586B0EB
:100A70001C4671B10192029100210822CDE90312B6
:100A80008DF8141001232246694600F020FB06B0C1
:100A900010BD0092EFE700000FB410B50598A0F26A
:100AA0000120C1B2042837D201EBC10202EB0111CF
:100AB000BDF809001A4A40BA22F83100BDF80B000F
:100AC00043BA02EBC1004380BDF80D305BBA8380AE
:100AD0009DF80F30837132F83130048A1B1B41F2CC
:100AE0007074E34202DA038B5B1C05E041F2707420
:100AF000A34202DD038B5B1E038332F83130B0F971
:100B0000184003EB4433436132F831100182B0F8EE
:100B1000C410491CA0F8C41010BC5DF814FB000000
:100B2000BC43002000B587B018220A496846FFF789
:100B3000C9FC084810380FC8FFF7A4FE064800F0AB
:100B400035FE05480068416941F00201416107B086
:100B500000BD00001001002050010020014800F0FD
:100B60006BBE00003404002001681823CAB2103A9A
:100B7000B2FBF3F2054B6FF30901032A9B5CC365DB
:100B800000D9091D816508467047000074500008AF
:100B900010B5014600208B698A6A4FF0C07453B1CA
:100BA000B3F5005F15D072B1012A0CD0022A0AD029
:100BB000032A09D104E01AB1012A06D0022A03D17E
:100BC000C96AC90100D5012010BDC96AA142FAD085
:100BD00010BD002AF7D0012AF2D0022AF3D0032A4E
:100BE000F3D010BD30B50468256825F48025256054
:100BF000046863608368402B036803D099600068D1
:100C0000C26030BD9A600068C16030BD38B504462E
:100C10002068006800F0100010282CD12068C068FF
:100C200000F0100038B300BF00200090206800687A
:100C3000009020684068009000BF00BF606B0068B3
:100C4000006820F00100616B09680860606B006853
:100C50004068042803D10848016A084888471620DC
:100C6000616B09684860606B0068006840F00100D3
:100C7000616B0968086038BD800000209043002047
:100C800010B52DED0A8B044614B9BDEC0A8B10BDCE
:100C90002078617840EA0120C0F30A008C4908807E
:100CA0006078C010A17840EA4110C0F30A0088497A
:100CB0004880A0788011E17840EA8100217940EAFB
:100CC0008120C0F30A008249888020794010617930
:100CD00040EAC110C0F30A007D49C8806079001164
:100CE000800808726079C0F301104872A079E17938
:100CF00040EA012000B276498881207A617A40EA90
:100D0000012001B27248C181A07AE17A40EA012053
:100D100001B26F480182217B8174617BC174A07B29
:100D2000E17B40EA01206A498882207C617C40EABC
:100D30000120C0F30A006649488108460088A0F5F2
:100D4000806000B2088008464088A0F5806000B24C
:100D5000488008468088A0F5806000B288800846F8
:100D6000C088A0F5806000B2C88008464089A0F520
:100D7000806000B248810846B0F90000142807DC02
:100D80000846B0F9000010F1140F01DB00200880C4
:100D90004F48B0F90200142808DC4D48B0F90200B1
:100DA00010F1140F02DB0020494948804848B0F98F
:100DB0000400142808DC4648B0F9040010F1140FB0
:100DC00002DB0020424988804148B0F9060014281F
:100DD00008DC3F48B0F9060010F1140F02DB0020D8
:100DE0003B49C8803A48B0F90A00142808DC384862
:100DF000B0F90A0010F1140F02DB002034494881D9
:100E00003348B0F9060000EE100AB8EEC00AF2EE60
:100E1000040A20EE200ABDEEC00A2E4880ED000A2A
:100E20002B48B0F9040000EE100AB8EEC00AF2EE4A
:100E3000040A20EE200ABDEEC00A264880ED010A11
:100E40000146086803F0DCFE41EC1B0B21494868B1
:100E500003F0D6FE41EC1C0BB0EE4B1AF0EE6B1A11
:100E6000B0EE4C0AF0EE6C0A02F0C6F9B0EE40AA01
:100E7000F0EE60AA9FED180B53EC102B51EC1A0BFF
:100E800003F0D6FE41EC190B9FED150B53EC102B24
:100E900003F05EFD41EC180B03F080FC0D49886007
:100EA0000B48B0F9000000EE100AB8EEC00AF2EEEE
:100EB000040A20EE200ABDEEC00A084680ED030AAF
:100EC0000348007A08740248407A487400BFDCE6A0
:100ED00080000020A8430020000000000080664041
:100EE00054E3A59BC420094000200949088048809C
:100EF0008880C88008724872888100210448C181B6
:100F000001828174C1740020014988824881704740
:100F10008000002008B500BF002000900F48006846
:100F2000006800900D4800684068009000BF00BF56
:100F30000A480068C06840F4005008490968C86061
:100F400006480068C06840F0100004490968C8609D
:100F500016220349014801F097FF08BDF403002061
:100F6000904300207047000000B587B018220A495E
:100F70006846FFF7A7FA084810380FC8FFF782FC49
:100F8000064800F013FC05480068416941F0020181
:100F9000416107B000BD0000100100205001002099
:100FA0001CB504228DF800208DF8010003228DF875
:100FB00002208DF8031002466B4600210148FFF71E
:100FC00055FD1CBD500100201CB504228DF80020E9
:100FD0008DF8010002228DF802208DF803100246E0
:100FE0006B4600210148FFF741FD1CBD5001002068
:100FF0000FB40398012813D19DF8030001280FD1E5
:101000009DF8020007490246801E01F830209DF835
:101010000420DDF8053001EBC00042EA0322426003
:1010200004B070474C4800201CB504218DF8001016
:101030008DF8010001218DF80210002102468DF883
:1010400003106B460148FFF711FD1CBD5001002045
:101050001CB504218DF800108DF801008DF80210E8
:10106000AA218DF8031002466B4600210148FFF7C4
:10107000FDFC1CBD500100201CB505228DF8002090
:101080008DF801008DF802208DF80310090A8DF803
:10109000041002466B4600210148FFF7E7FC1CBD27
:1010A000500100201CB504218DF800108DF80100BE
:1010B00006218DF80210002102468DF803106B46C0
:1010C0000148FFF7D3FC1CBD500100207047F0B56C
:1010D00090F820500468A468012D05D0022D03D09B
:1010E000416A41F4802153E014F0406F01D1E500E2
:1010F0004BD5C4F30164022C03D9416A41F40001C9
:1011000046E00125A5401D608D684FF4C0739DB178
:10111000CE6835434E6845EAC605066803EB0417FA
:10112000F5514FF4C275076805EB04150E697E5141
:10113000097D012905D009E00E88CD6845EA4655AC
:10114000EBE701684E5946F480764E511179D2F89A
:1011500005504FF4C67641EA0525016806EB0416F2
:101160008D511178D2F801204FF4C47541EA022163
:10117000026805EB04155151006803EB0411425855
:1011800042F0010242500020F0BD416A41F40011DA
:1011900041620120F0BD000010B590F82020012A26
:1011A00007D0022A05D0416A41F480214162012022
:1011B00010BD3B48D0F8002242F00102C0F80022E6
:1011C000D0F8002222F47C52C0F80022D0F800228D
:1011D0004B6A42EA0322C0F800220A7D02F01F0394
:1011E00001229A40D0F81C329343C0F81C32CB69DC
:1011F000B3B9D0F80C329343C0F80C328C894B68E9
:1012000064F31F434C6900EBC404C4F840320C89FA
:101210000B6864F31F434C6900EBC404C4F8443208
:10122000CB69012B16D1D0F80C321343C0F80C3225
:101230000C884B6864F31F434C6900EBC404C4F88A
:1012400040320C89CB6864F31F434C6900EBC40443
:10125000C4F844328B69002BD0F804320ED013430B
:10126000C0F804320B69002BD0F8143208D01343B5
:10127000C0F81432096A012904D008E09343EFE76B
:101280009343F5E7D0F81C121143C0F81C12D0F8B4
:10129000001221F00101C0F80012002010BD000072
:1012A00000640040704730B590F82040012C05D014
:1012B000022C03D0416A41F480215DE004680029DA
:1012C00055D02469A40754D04FF4D874056804EBB2
:1012D00001142D5915F00405956005682D594ED05F
:1012E000ED08556005682C5904F00204D4604FF4F1
:1012F000DA74056804EB01142D5905F00F0515612A
:1013000005682D59C5F30725956105682C59240CEE
:1013100054614FF4DC72046802EB0112A4581C7093
:101320000468A458240A5C700468A458240C9C70B7
:101330000468A258120EDA704FF4DE72046802EBF1
:101340000112A4581C710468A458240A5C71046832
:10135000A458240C9C710468A258120EDA7100681B
:1013600081B1016941F020010161002030BDE468D4
:10137000A8E7416A41F400114162012030BD6D0DC2
:101380001560AFE7C16841F02001C160EDE72DE9CC
:10139000F05F0546006800244669D0F8049087682D
:1013A000D0F80CB0D0F810A0D0F81880F10748D0D1
:1013B000F90714D001218160B80703D5284600F051
:1013C00022FA0CE0780702D54FF4006407E03807F2
:1013D00002D54FF4805402E0284600F013FAF805D5
:1013E00016D529684FF480708860B80503D5284663
:1013F00000F00BFA0CE0780502D544F4005407E045
:10140000380502D544F4804402E0284600F0FCF997
:10141000F80316D529684FF480308860B80303D5E7
:10142000284600F0F4F90CE0780302D544F40044B7
:1014300007E0380302D544F4803402E0284600F087
:10144000E5F9300707D55FEACB6004D5296810209D
:1014500044F40074C86070074FF0080707D55FEACE
:101460000B7004D52868C760284600F099F9B007CA
:1014700006D52868C068800702D0284600F091F998
:10148000700607D55FEACA6004D52968102044F4C5
:1014900080640861B00607D55FEA0A7004D5286841
:1014A0000761284600F07EF9F00606D52868006935
:1014B000800702D0284600F076F9B00308D55FEA2D
:1014C000C96005D5296810204860284600F06CF9ED
:1014D000F00307D55FEA097004D5286847602846FD
:1014E00000F096F9300446D55FEA497040D5F00522
:1014F00004D55FEAC87001D044F00104B00504D5FA
:101500005FEA887001D544F00204700504D55FEAF3
:10151000487001D544F00404300529D518F0700F47
:1015200026D008F07000402815D006DC102809D01D
:1015300020280AD0302816D10AE050280ED0602882
:1015400011D10EE044F008040DE044F010040AE06C
:1015500044F0200407E044F0400404E044F0800438
:1015600001E044F480742868816921F07001816190
:10157000296804204860002C05D0686A204368620E
:101580002846FFF78FFEBDE8F09F70B5040003D03A
:1015900094F8200010B104E0012070BD204600F056
:1015A00081F82068016821F00201016000F098FBD9
:1015B0000546052604E000F093FB401B0A2811D8DD
:1015C000206840688007F6D42068016841F0010176
:1015D000016000F085FB05460BE000F081FB401B3D
:1015E0000A2806D9606A40F40030606284F82060FE
:1015F000D2E720684068C007EFD0207E012820682D
:1016000001683DD021F080010160607E01282068E2
:10161000016838D021F040010160A07E01282068D7
:10162000016833D021F020010160E07E01282068AC
:1016300001682ED041F010010160207F0128206850
:10164000016829D021F008010160607F012820682D
:10165000016824D021F004010160D4E902010843AB
:10166000D4E90412114308436168491E0843216804
:10167000C86100206062012084F82000002070BD55
:1016800041F08001C0E741F04001C5E741F0200191
:10169000CAE721F01001CFE741F00801D4E741F09B
:1016A0000401D9E7F0B587B0044614216846FEF777
:1016B0003BFF364B3648DFF8D0E01968D4F800C05D
:1016C000334A03250226092710300024491CF4451B
:1016D00022D11960012907D1016841F00071016030
:1016E000006800F000700590106840F0080010607D
:1016F0001068CDE9005600F00800CDE90470694695
:101700002448CDE9024500F0F5F900220521142016
:1017100000F072FB142033E0DFF87CE0F44531D1B7
:10172000D0F800C04CF0806CC0F800C0D0F800C009
:1017300001290CF0806CCDF814C0196007D1016844
:1017400041F000710160006800F0007005901068C1
:1017500040F002001060106802AB00F0020005903B
:101760004FF44050CDE9000683E8B00069460B48CD
:1017700000F0C0F900220521402000F03DFB402090
:1017800000F02CFB07B0F0BD00640040000000201A
:1017900030380240000C0240006800400004024063
:1017A00070477047704770477047000070B5044637
:1017B00090F82000012804D0606A40F400206062A4
:1017C00018E0022084F820002068016821F001015F
:1017D000016000F085FA05460EE000BF00F080FAD7
:1017E000401B0A2808D9606A40F400306062052076
:1017F00084F82000012070BD20684068C007EDD14A
:10180000606270BD7047704770477047704770479F
:10181000704790F83510022903D0802141650120DE
:101820007047052180F835100068016821F001013A
:1018300001600020704700002DE9F84304464FF096
:101840000009CDF8009063484FF41651A56D00686B
:10185000B0FBF1F72E6894F85C10082000FA01F153
:1018600031420FD021680A6852070BD50A6822F06E
:1018700004020A6094F85C108840A860606D40F033
:101880000100606594F85C104FF0010808FA01F05F
:10189000304208D021684969090604D5A860606D06
:1018A00040F00200606594F85C10042088403042EB
:1018B00008D021680968890704D5A860606D40F0E8
:1018C0000400606594F85C1010208840304218D005
:1018D00021680968090714D5A860206801684903D0
:1018E00004D50068000308D5A16C07E00168C905AC
:1018F00003D4016821F008010160216C09B1204680
:10190000884794F85C1020208840304231D021680C
:101910000968C9062DD5A86094F835000528206807
:10192000016806D0490347D5006800031DD4616CE7
:101930001CE021F0160101602068416921F080015E
:101940004161206C08B9A06C20B12068016821F0C9
:101950000801016094F85C103F208840A86084F87A
:10196000349084F83580216D1FE0E16B09B1204689
:101970008847606D00282BD0606DC00714D005200B
:1019800084F835002068016821F0010101600098A9
:10199000401C0090B84203D820680068C007F6D108
:1019A00084F8349084F83580E16C002910D001B0BF
:1019B0002046BDE8F04308470168C905D5D4016851
:1019C00021F01001016084F8349084F83580CCE770
:1019D000BDE8F8831C0000202DE9F041044600F02A
:1019E0007FF906465CB1002584F83450022084F863
:1019F00035002068016821F0010101600DE001203F
:101A0000BDE8F08100F06CF9801B052805D9202085
:101A10006065032084F83500F2E720680068C0079D
:101A2000F0D12268116820480140D4E9010318432D
:101A3000D4E903363343184363691843A369184351
:101A4000E3691843236A18430843616A042903D1F0
:101A5000D4E90B1319430843106020684069666A93
:101A600020F0070130460E43012704280CD1A06A5C
:101A70000643E06A40B12046FFF78AF820B14020D3
:101A8000606584F83570BAE7206846612046FFF744
:101A90006BF894F85C203F2191408160656584F883
:101AA00035700020ACE700003F8010F070B50446B0
:101AB00090F83400002501280CD0012084F834006F
:101AC00094F835600020012E06D084F834000225F9
:101AD000284670BD022070BD022684F8356060651E
:101AE0002046FFF77FF82068016841F0010101609E
:101AF000EEE700002DE9F84F00224FF00108032522
:101B00004FF00F0E0B6808FA02F42340A3426ED187
:101B10004E68012E05D0022E03D0112E01D0122EB8
:101B200012D186684FEA420C05FA0CF7BE43CF6823
:101B300007FA0CF7374387604668A6430C79C4F36D
:101B40000014944034434460C668570005FA07FC0B
:101B50008C6826EA0C06BC403443C4604C68022CF6
:101B600001D0122C13D1D40800EB8404A346D4F87E
:101B7000209054074FEAD46A0EFA0AF629EA0609B9
:101B80000E6906FA0AF646EA0906CBF820600468F0
:101B90000E7924EA0C0406F00306BE4026430660D4
:101BA0004C68E4006FD53B4C266846F480462660BE
:101BB000246822F0030604F480440094364C344434
:101BC000A446D4F808489607360F0EFA06F7BC4329
:101BD000324FB84201D100272EE0314FB84201D137
:101BE000012729E02F4FB84202D1022724E04AE022
:101BF0002D4FB84201D103271EE02C4FB84201D12E
:101C0000042719E02A4FB84201D1052714E0294FD3
:101C1000B84201D106270FE0274FB84201D107276C
:101C20000AE0264FB84201D1082705E0244FB84208
:101C300001D1092700E00A27B7402743CCF80878EC
:101C4000204E34684F689C43FF0300D51C4334602A
:101C50001C4E361D34684F689C43BF0300D51C439F
:101C60003460184E083634684F689C43FF0200D534
:101C70001C433460134E0C3634684F689C43BF02DB
:101C800000D51C433460521C102AFFF43BAFBDE862
:101C9000F88F00004438024000300140000002404C
:101CA0000004024000080240000C02400010024004
:101CB0000014024000180240001C024000200240B4
:101CC00000240240003C0140426931EA020200D196
:101CD0000904816170470AB1816170470904FBE71B
:101CE00001488068704700001000002002488168A9
:101CF0000278114481607047100000200B4810B535
:101D0000016841F400710160016841F48061016083
:101D1000016841F480710160032000F08DF800201B
:101D200000F006F800F03EF8002010BD003C024034
:101D300010B5014688B00022362000F05DF836204C
:101D400000F04CF813480024016841F010010160D4
:101D5000006805A900F010000690684600F050F9F0
:101D600000F06EF90C494000B0FBF1F10C480B4A51
:101D7000491E026040F2E732C0E90324C0E90114C1
:101D800000F060FB10B1012008B010BD044800F065
:101D900075FBF9E74038024040420F000010004058
:101DA000940400200C4882B0016841F48041016035
:101DB000006800F4804000900748001F016841F06F
:101DC000805101600068002200F0805000900F21D7
:101DD000901E02B000F010B844380240002809DB21
:101DE00000F01F02012191404009800000F1E02035
:101DF000C0F8001170470000F0B40E4B1B680C4691
:101E0000C3F30223C3F10705042D00D90425191DCE
:101E1000072901D2002300E0DB1E012606FA05F1A6
:101E2000491E214099409E40761E16403143F0BC29
:101E300001F065B80CED00E0064900F00702086803
:101E40004FF6FF03184040EA0220034A104308609F
:101E5000704700000CED00E00000FA052DE9F843A2
:101E60001748016841F0805101600068154F00F08B
:101E70008050012600903E64FFF732FF05464FF484
:101E80007A78114C05E000BFFFF72AFF401B404560
:101E90000DD86068C003F7D57E64FFF721FF0546C3
:101EA000464607E0FFF71CFF401BB04202D9032063
:101EB000BDE8F88360688003F4D50020F8E70000EF
:101EC0004038024000000E42007000402DE9F0470B
:101ED0000E46050065D0DFF81481D8F80000F7B28F
:101EE00000F00F00B04207D288F80070D8F8000068
:101EF00000F00F00B04254D128683D4C810712D544
:101F0000400703D5206840F4E0502060287800079F
:101F100003D5206840F4604020602068A96820F064
:101F2000F000084320602878C0072DD03049686849
:101F30000839012812D0022813D0032811D00968CB
:101F4000890700292DDA216821F00301014321606E
:101F5000FFF7C6FE814641F2883A0EE00968890320
:101F6000EFE709688901ECE7FFF7BAFEA0EB09018A
:101F7000514502D90320BDE8F0872068696800F068
:101F80000C00B0EB810FEFD1D8F80010404601F003
:101F90000F01B14207D90770006800F00F00B0428E
:101FA00001D00120E7E72878400705D52068E968D7
:101FB00020F4E050084320602878000706D5206808
:101FC000296920F4604040EAC100206000F058F820
:101FD0002168084AC1F30311515CC84006490860F2
:101FE00006480068FFF7A4FE0020C4E7003C02405A
:101FF000083802407C5000081C000020140000201B
:102000000F2202600C4A136803F003034360136855
:1020100003F0F0038360136803F4E053C3601268B5
:102020004FF4E05303EAD20202610448006800F072
:102030000F0008607047000008380240003C024072
:102040000448054900680968044AC1F38221515CCB
:10205000C84070471C000020083802408C5000081F
:102060000448054900680968044AC1F34231515CDB
:10207000C84070471C000020083802408C500008FF
:10208000154810B5006810F00C02144813D014491C
:10209000042A0FD0082A0ED10F4C241F226823686F
:1020A00002F03F025B0207D52068C0F38810A0FB56
:1020B000010106E0084610BD2168C1F38811A1FBAB
:1020C00000010023FEF742F92168C1F30141491CD8
:1020D0004900B0FBF1F010BD083802400024F400C4
:1020E000001BB7002DE9F84F04006ED02078DFF810
:1020F0003C93C007A9F104054AD009F10400016826
:10210000C1F38101012908D00068C0F381000228D1
:102110000AD1D9F80000400206D52868800337D5D7
:1021200060680028E1D033E06068B0F5803F10D0EF
:10213000B0F5A02F286810D020F4803028602868DF
:1021400020F4802028606068A8B1FFF7C9FD06462A
:102150000DE0286840F48030F4E740F480202860E7
:10216000F7E700BFFFF7BCFD801B642873D8286821
:102170008003F7D50CE0FFF7B3FD064605E000BF8E
:10218000FFF7AEFD801B6428F0D828688003F7D4E1
:102190002078DFF89C8280074FF0000A3ED5A348E4
:1021A000001D016811F00C0F08D00068C0F3810019
:1021B00002280BD1D9F80000400207D42868800714
:1021C00016D5E068012800D112E02BE1E068B8B133
:1021D0000120C8F80000FFF783FD064605E000BFB8
:1021E000FFF77EFD801B0228C0D828688007F7D53E
:1021F0002868216920F0F80040EAC10028600DE05D
:10220000C8F800A0FFF76CFD064604E0FFF768FD84
:10221000801B02281FD828688007F7D42078000781
:1022200022D5824E83486169703671B10121016007
:10223000FFF756FD074604E0FFF752FDC01B0228DA
:1022400009D830688007F7D50EE0C0F800A0FFF786
:1022500047FD074605E082E0FFF742FDC01B02286C
:102260007DD830688007F7D42078400768D5DFF83C
:10227000BCB100270BF13C0BDBF80000C0000BD415
:10228000DBF8001041F08051CBF80010DBF80000C3
:10229000012700F080500090674E3068C00510D4D0
:1022A000306840F480703060FFF71AFD009005E060
:1022B000FFF716FD0099401A022850D83068C00573
:1022C000F6D55A4EA0686C3601280FD00528306824
:1022D00010D020F001003060306820F00400306041
:1022E000A068B8B1FFF7FCFC00900FE0306840F048
:1022F0000100F4E740F004003060F7E7FFF7F0FC7E
:102300000099411A41F28830814266D830688007CE
:10231000F4D50EE0FFF7E4FC009007E0FFF7E0FCE7
:102320000099411A41F28830814256D830688007BE
:10233000F4D42FB1DBF8001021F08051CBF800105D
:10234000A069C8B33949091D0968C1F3810102298F
:102350004AD00228504607D0C8F8600000E03CE0B0
:10236000FFF7BEFC04463BE04746C8F86000FFF7B5
:10237000B7FC064605E000BFFFF7B2FC801B022851
:102380002BD828688001F7D4D4E907010843A16A53
:102390002A4A490802EB0141626A41EA8211084374
:1023A00094F82C1040EA0161C9F800100120386649
:1023B000FFF796FC044606E036E000BFFFF790FC0E
:1023C000001B022809D828688001F7D52CE000BF3F
:1023D000FFF786FC001B022802D90320BDE8F88F16
:1023E00028688001F4D41FE00128F7D0D9F8000054
:1023F000E26900F48001914214D1226A00F03F01A9
:1024000091420FD147F6C071626A0140914209D1F1
:10241000A26A00F44031914204D1E16A00F0706098
:10242000884201D00120D9E70020D7E704380240D4
:1024300000004742800E4742007000400000FFFF4E
:102440007047704710B5040003D094F83D0010B1F8
:1024500007E0012010BD002084F83C00204600F079
:102460000CF8022084F83D00211D206800F06AFB72
:10247000012084F83D00002010BD70470168CA6843
:1024800042F00102CA600068816801F00701062974
:1024900003D0016841F001010160002070477047DE
:1024A00070B50446006801694FF00005C94389070B
:1024B00015D4C168C943890711D4E91E01610120FF
:1024C0002077206880698007204602D0FFF7E7FF69
:1024D00004E000F098F8204600F096F82577206890
:1024E0000169C943490717D4C168C943490713D4CF
:1024F0006FF004010161022020772068806910F4E8
:10250000407F204602D0FFF7CAFF04E000F07BF8CE
:10251000204600F079F8257720680169C94309074A
:1025200016D4C168C943090712D46FF008010161CC
:10253000042020772068C0698007204602D0FFF77A
:10254000AEFF04E000F05FF8204600F05DF825776C
:1025500020680169C943C90617D4C168C943C906BF
:1025600013D46FF010010161082020772068C06942
:1025700010F4407F204602D0FFF791FF04E000F006
:1025800042F8204600F040F8257720680169C943E9
:10259000C90708D1C168C943C90704D1891E0161AF
:1025A000204600F033F820680169C943090609D4C0
:1025B000C168C943090605D46FF080010161204656
:1025C000FFF73EFF20680169C943490609D4C16885
:1025D000C943490605D46FF040010161204600F06F
:1025E0001FF820680169C94389060BD4C168C94333
:1025F000890607D46FF0200101612046BDE87040D4
:10260000FFF71FBF70BD70477047000000680349A7
:10261000884201D1FFF76ABB7047000000100040FC
:102620007047704770B5026804461068D1685369F6
:1026300010F00F0F52D003F0010501F490762E43F5
:102640005FD0C20705D0CA0503D5E26B42F0010294
:10265000E263420705D5DA0703D0E26B42F00202DB
:10266000E263820705D5DA0703D0E26B42F0040289
:10267000E263020707D501F020022A4303D0E26B90
:1026800042F00802E263E26B002A33D0800604D5F0
:10269000880602D5204600F0CFFA20684069E16B39
:1026A000C0F38010090700D428B3204600F0B6FA22
:1026B0002068416949061AD5416921F0400141610C
:1026C000606BA0B11B490165606BFFF7A2F80028A1
:1026D00010D0606B016DBDE870400847830610D5CF
:1026E0008B060ED52046BDE8704000F0A5BA204606
:1026F000FFF797FF70BD2046FFF793FF0020E063D0
:1027000070BD030606D50B0604D52046BDE8704013
:1027100000F072BB4006F3D54806F1D5D1682046DB
:1027200021F04001D160202184F8391000F08FF8A9
:1027300070BD00000D2C000870B5040004D094F8A2
:102740003900002510B106E0012070BD84F8385032
:10275000204600F023F8242084F839002068C1685E
:1027600021F40051C160204600F0B2FA20680169EE
:1027700021F4904101612068416921F02A01416101
:102780002068C16841F40051C160E563202084F8ED
:10279000390084F83A00002070BD000070B586B0A2
:1027A000064614216846FDF7BFFE2349306888427B
:1027B00040D122480025016841F010010160006805
:1027C00000F0100005901D481438016841F0020126
:1027D00001600068694600F002000590C02000908A
:1027E0000220CDE90105032003900720049014483E
:1027F000FFF780F9144C134820604FF00060C4E9E3
:1028000001054014C4E9035080106561C4E9065015
:10281000256220466562FFF7DFF808B1FEF756FC37
:102820007463002205212520A663FFF7E5FA252021
:10283000FFF7D4FA06B070BD0010014044380240E2
:102840000004024040640240340400207047704796
:10285000FEE700000F4810B50D49016005214160F9
:1028600000214FF400328160C0E90312520142613D
:102870000176012242768276C17601774177FEF7B2
:1028800084FE002803D0BDE81040FEF71FBC10BD39
:1028900000640040500100200F4810B50D49016050
:1028A0000521416000214FF400328160C0E903122C
:1028B000520142610176012242768276C176017729
:1028C0004177FEF762FE002803D0BDE81040FEF716
:1028D000FDBB10BD0068004078010020094808B524
:1028E000016841F4800101600068002200F480006A
:1028F000009005213A20FFF77FFABDE808403A2012
:10290000FFF76CBA3038024010B5124B92B00EACE3
:102910000FCB84E80F0000210EA800F052FE0E4CF1
:102920000C491C22A06010316846FDF7CBFD002148
:10293000684600F059FE074920601C222C3107A888
:10294000FDF7C0FD002107A800F04EFE606012B048
:1029500010BD00002C5000080400002070B586B0A7
:1029600014216846FDF7E0FD1E480024016841F08F
:1029700080010160016801F080010591016841F06A
:1029800010010160016801F010010591016841F03A
:1029900002010160016801F002010591016841F046
:1029A00001010160016801F001010591016841F038
:1029B0000801016000680C4E00F008004FF4F0556B
:1029C0000590012229463046FFF785F90120009540
:1029D000CDE90104694630460394FFF78BF806B051
:1029E00070BD000030380240001002400C4810B5A5
:1029F0000A4901600B494160002181600C22C160DD
:102A0000C0E904128161C161FFF796FE002803D07E
:102A1000BDE81040FEF75ABB10BD00000010014099
:102A2000F4030020A0860100FEE770470A4810B5B5
:102A3000006880470948006880470948806A8047E5
:102A40000848006A804701F0F7F8002001F0B8F963
:102A5000BDE8104001F010B9AC000020B800002023
:102A600080000020DC00002010B5502080F3118889
:102A7000BFF34F8FBFF36F8F01F036FD18B10449DC
:102A80004FF080500860002080F3118810BD0000D6
:102A900004ED00E030B593B030216846FDF744FD09
:102AA00014210CA8FDF740FD1A480025016841F0EB
:102AB00080510160006800F0805011901648016854
:102AC00041F4404101600068022400F4404011904C
:102AD00001200090000401908001CDE9064006200D
:102AE0000890B420CDE9090404200B906846FFF754
:102AF000F9FAFFF7B3F90CA90F2081E831004FF480
:102B0000A0500F90E002109005210CA8FFF7DEF90D
:102B100013B030BD403802400070004005480168E5
:102B200041F47001016003494FF000608039086092
:102B30007047000088ED00E00148FFF7B1BC0000DD
:102B400094040020F0B50268254C264D264E274FF0
:102B5000274B4FF0804CA04209D0604507D0A842D7
:102B600005D0B04203D0B84201D0984204D122F03F
:102B7000700E4A6842EA0E02A0421BD0604519D08E
:102B8000A84217D0B04215D0B84213D0984211D005
:102B9000184DA8420ED0184DA8420BD0174DA84290
:102BA00008D0174DA84205D0164DA84202D0164DA8
:102BB000A84203D122F44075CA682A434D6922F025
:102BC00080022A4302608A68C2620A688262A04266
:102BD00001D0984201D10969016301214161F0BD31
:102BE000000001400004004000080040000C0040CC
:102BF0000004014000400140004401400048014001
:102C000000180040001C00400020004010B5806B00
:102C10000021C185C184FFF704FD10BD0168CA68A9
:102C200022F49072CA6001684A6922F001024A6186
:102C3000202180F83A10704710B590F83A102229F8
:102C400001D0022010BD8168B1F5805F11D001690B
:102C5000002901681FD0496801F07F03816A4A1C7E
:102C600082620B70C18D491E0904090CC18518D000
:102C70002BE00269816A002A0268526805D0D2B24C
:102C80000A80816A491C8162ECE7C2F308020A806B
:102C9000816A891CF7E74A68816A4B1C83620A7063
:102CA000E0E70168CA6822F02002CA600168CA68C9
:102CB00022F48072CA6001684A6922F001024A6106
:102CC000202180F83A10FFF7C1FD002010BD000060
:102CD0002DE9F041044600680169E26821F44051A1
:102CE000114301612169A068E269084361691143E8
:102CF00008432168CA6849F20C639A430243CA60D8
:102D000020684169A26921F4407111434161E06981
:102D1000192764253226B0F5004F354A3549206819
:102D20004FF0000806D0884201D0904236D1FFF71C
:102D300097F935E0884201D0904202D1FFF790F92F
:102D400001E0FFF77DF961684A18A0FB070148EB35
:102D50000803FDF7FBFA0146B0FBF5F00201B1FBF9
:102D6000F5F06FF01803584301EB800006EBC0004C
:102D7000B0FBF5F000F0F80002EB4002B1FBF5F01B
:102D8000584301EB800006EBC000B0FBF5F000F00B
:102D90000700216810448860BDE8F081FFF750F912
:102DA00061688B0F8A00A0FB0701FDF7CFFA01468F
:102DB000B0FBF5F06FF01802504301EB800006EB1A
:102DC0000010B0FBF5F000F0F002B1FBF5F002EB03
:102DD0000012B1FBF5F06FF01803584301EB8000CF
:102DE00006EB0010B0FBF5F000F00F00D1E700009B
:102DF000001401400010014090F83910212901D041
:102E0000022070478168B1F5805F016A0BD04A1CCF
:102E10000262026809785160C18C491E0904090CDC
:102E2000C1840ED017E009880268C1F3080151601F
:102E300001690029016A02D0491C0162ECE7891C82
:102E4000FBE70168CA6822F08002CA600068C168B6
:102E500041F04001C16000207047000010B54FF400
:102E600080610648FEF730FF0548416A05488847FB
:102E7000BDE810400348FFF7D5BB0000001002403A
:102E800080000020F403002070B504460D4616466D
:102E900094F83A00202815D105B10EB9012070BD73
:102EA000A562A6850020E0632268111D33462A46EC
:102EB000606BFEF7FBFD2068406940F04000216830
:102EC000486101E00220EAE70020E8E7FEE703B4FA
:102ED00001984100009850EAC12018BF04204A0D13
:102EE00018BF40F0010040F2FF72B2EB515F08BF23
:102EF00040F00200012808BF052002B07047090712
:102F0000090E002804DB00F1E02080F8001470476F
:102F100000F00F0000F1E02080F8141D7047000061
:102F200070B59B482DED020B2DED068B079D25F00E
:102F30000044A04218DC9748844202DC0AD106987B
:102F400040B19DED060BBDEC068B02B0BDE87040B4
:102F500000F0C6BA002DCCBF9FED8F0B9FED900BFC
:102F6000BDEC068B02B070BD8F48A04215DD8F48C6
:102F7000A042D8BF4FF0FF3458DD9DED060B51EC59
:102F8000100BFFF7A4FF042808BF00F0BDFA9DED69
:102F9000060BBDEC068B02B070BD9DED060B51EC2F
:102FA000100B00F0DDFACDE9060181489FED828B20
:102FB000A0423CDD8248A0421FDD00249FED82AB91
:102FC0009DED060B53EC1A2B51EC100B01F018FC85
:102FD0009DED060B41EC190B53EC1A2B51EC100B29
:102FE00001F026FE53EC182B01F02CFF53EC192BAB
:102FF00001F0AEFCCDE9060149E09DED060B012490
:1030000053EC182B51EC100B01F0FAFB9DED060B65
:1030100041EC190B53EC182B51EC100B01F012FF83
:1030200053EC192B01F094FCCDE906012FE0684820
:10303000A0421FDD02249FED689B9DED060B53EC23
:10304000192B51EC100B01F0F3FD53EC182B01F090
:10305000D7FB9DED060B41EC180B53EC192B51ECF3
:10306000100B01F0EFFE53EC182B01F071FCCDE9D1
:1030700006010CE09DED060B032453EC102B9FED95
:10308000580B51EC100B01F063FCCDE906019DEDEE
:10309000060B53EC102B51EC100B01F0C9FD41EC69
:1030A000180B53EC182B01F0C3FD41EC190B4E48E3
:1030B0000621B0EE490AF0EE690A784400F094F96E
:1030C00053EC182B51EC100B01F0B2FD41EC180B36
:1030D0004648B0EE490AF0EE690A0521784400F04E
:1030E00083F953EC192B51EC100B01F0A1FD41ECCD
:1030F000100B51EC180B53EC102B002C0EDA01F0D6
:103100007FFB9DED061B53EC112B01F091FD9DED16
:10311000061B53EC112B01F089FE35E001F070FB2A
:103120009DED061B53EC112B01F082FD41EC100BC1
:103130002F48784400EBC40090ED001B51EC100BBD
:1031400053EC112B01F07EFE9DED061B53EC112B71
:1031500001F078FE41EC100B2648784400EBC400E7
:1031600090ED001B51EC100B53EC112B01F05EFEA7
:1031700041EC100B002DA2BFBDEC068B02B070BD60
:1031800051EC100B01F0FEFA41EC100B01E70000CE
:10319000000010440000F07F182D4454FB21F93F3B
:1031A000182D4454FB21F9BF0000DC3F0000203EF5
:1031B0000000F33F00000000000000000000F03FAE
:1031C0000000E63F0000000000000000000000409A
:1031D0000080034000000000000000000000F83FF5
:1031E000000000000000F0BF42200000F81F0000B7
:1031F000821F00003A1F000070B56B4E2DED040BCE
:103200002DED028B82B0DDF81CC0DDE905235C42A8
:103210002CF000411C4341EAD474049D22F000408C
:10322000B44205D86C422C4340EAD474B4420BD962
:103230009DED061B9DED040B02B0BDEC028B04B0AE
:10324000BDE8704000F056B9ACF14054A4F17F6481
:103250001C430BD0022404EAAC7444EAD274054344
:103260009FED538B9FED542B07D015E09DED040B84
:1032700051EC100B00F058F942E0002C11BF012C6A
:103280009DED040B02B0BDEC028B04BF04B070BD19
:10329000022C38D0032C3BD00B439FED491B9FEDF4
:1032A0004A0B0AD0B14218D1B04209D121F0804175
:1032B00020F08040079105900FE0002A15DA10E019
:1032C000434B7B44002C08BF93ED000B0DD0012C29
:1032D00010D0022C17D0032C1AD0B0421DD1002AD6
:1032E00003DAB0EE410AF0EE610A02B0BDEC028BE7
:1032F00004B070BD93ED000B51EC100B01F042FADD
:1033000041EC100BF1E7B0EE480AF0EE680AECE78A
:10331000B0EE420AF0EE620AE7E7401A00153C28D8
:10332000C8BF8DED000B19DCBCF1000FBEBF10F162
:103330003C0F9FED290B8DED000B0FDB9DED060B78
:1033400053EC102B9DED040B51EC100B01F000FB26
:1033500000F006F900F0E8F8CDE90001002C08BF04
:103360009DED000BC1D0012C10D0022C9FED1C0B49
:1033700053EC102B9DED000B51EC100B0DD001F018
:1033800061FD53EC182B01F05DFDB9E7019880F069
:10339000004001909DED000BA7E701F053FD53ECB9
:1033A000182B01F043FDABE70000F07F00000000A8
:1033B000182D4454FB210940182D4454FB2109C009
:1033C000182D4454FB21F9BF182D4454FB21F93F1B
:1033D0006A1E000000000000000000000000000065
:1033E000075C143326A6A13C70B504462DED028B74
:1033F0004D1E00EBC500B0EE408AF0EE608A90ED05
:10340000000B35F0060017D053EC182B51EC100BC5
:1034100001F00EFC41EC100B6D1E04EBC50090EDAD
:10342000001B51EC100B53EC112B01F0E9F941ECAE
:10343000100B35F00600E7D1022D36D0042D1CD03C
:10344000062D1CBFBDEC028B70BD53EC182B51EC4C
:10345000100B01F0EDFB94ED0A1B53EC112B01F066
:10346000CFF953EC182B01F0E3FB94ED081B53EC60
:10347000112B01F0C5F941EC100B53EC182B51EC5A
:10348000100B01F0D5FB94ED061B53EC112B01F052
:10349000B7F953EC182B01F0CBFB94ED040B53EC74
:1034A000102B01F0ADF941EC100B53EC182B51EC43
:1034B000100B01F0BDFB94ED021B53EC112B01F03E
:1034C0009FF953EC182B01F0B3FB94ED001B53EC68
:1034D000112B01F095F9BDEC028B41EC100B70BD86
:1034E00010B553EC102B51EC100B01F089F941ECA5
:1034F000100B10BD10B553EC112B51EC100B01F05B
:103500007FF941EC100B10BD9FED050B10B553EC8E
:10351000102B51EC100B01F08BFB41EC100B10BD8C
:10352000000000000000001010B541EC100BFFF788
:10353000F7FC51EC100B10BD0A681044921C008877
:103540000A6040BA00B270470B681A18C01C1268B3
:10355000185C12BA22F0FF0210431B1D0B6070476B
:1035600082B0CDE9000121F0004001909DED000BFB
:1035700002B051EC100B7047FEF7C0FBFFF78AFA60
:10358000FFF7ECF9FFF7AAF9FFF730FAFFF762F956
:10359000FFF782F9FFF7B8F900F00EF8FEE70146F1
:1035A0000020842900D0C81C704710B500B9012044
:1035B00000F0E0FB002010BD10B500F07DFC002005
:1035C00010BD38B5D0E9011204683AB1C3682BB117
:1035D00000200090204600F079FD38BD2046BDE86F
:1035E0003840002200F04EBD7FB50D4604464169CB
:1035F000B0F9080081B1A16971B1FFF7D0FFD4E93A
:1036000005128DE80700D4E900102B46226900F06E
:1036100032FF039004B070BDFFF7C1FF03A9CDE9ED
:103620000001208A2B4682B2D4E9001000F0F6FE99
:10363000012801D00020EDE70398EBE770B5124CAC
:10364000054666692068001D00F0A6FA38B92068B2
:1036500090F82C1001208840A1698143A161206865
:103660003544B5424560216805D2A068BDE8704088
:10367000091D00F0BDBA6068091D00F0B9FA206BA1
:10368000854200D2256370BD200000202DE9F04165
:10369000054600F0D1FA2B4C2069401C20612068BF
:1036A000294F10B1E06910B327E025602069012897
:1036B00023D1002606EB860007EB800000F08AFA93
:1036C000761C1F2EF6D3214800F084FA1F481430D0
:1036D00000F080FA1D48283000F07CFA1B483C308E
:1036E00000F078FA194860601430A06005E02068A6
:1036F000E96AC06A884200D82560E06A401CE0623E
:10370000E96A0120A26988401043A06101EB8100B1
:1037100007EB8000291D00F083FA00F0ADFAE069A4
:1037200000280CD02068E96AC06A884207D208499C
:103730004FF080500860BFF34F8FBFF36F8FBDE82D
:10374000F081000020000020D40400204007002069
:1037500004ED00E030B4026C0B46002A0BD0C168C7
:103760001144C1608468A14201D30168C16030BCCA
:103770001846FCF762BE30BC70472DE9F041856BFE
:10378000174604460026026C82B1C7B1E068FCF718
:1037900054FEE168206C091AE1602268914202D26D
:1037A000A168081AE060022F16D017E02068A8B9B7
:1037B000A06800F0FDFE06460020A0600EE06068F4
:1037C000FCF73BFE216C606808446060A168884299
:1037D00004D32068606001E005B16D1E6D1CA56317
:1037E0003046BDE8F08110B5044690F8510058B15C
:1037F00001280CD002280FD0502080F31188BFF38D
:103800004F8FBFF36F8FFEE7206B00F049FA204621
:10381000BDE8104000F044BA10BD000010484FF45D
:103820007051420706D0C01D0D4920F00700411A13
:10383000C1F570510B4A00230144C2E90003083965
:10384000103A21F0070111604B600B600B1AC0E9C0
:10385000001393604FF000405360D0607047000049
:10386000900700206C000020144E154CA6F52A7716
:103870004FF08058DFF84C9012E000BF00F0DCF908
:10388000F068C568281D00F087F92069401E206196
:10389000E068401EE06000F0EFF92846FFF7A3FF64
:1038A000E0680028EAD138680128F9D9C9F8008011
:1038B000BFF34F8FBFF36F8FF2E700007C0700204C
:1038C0002000002004ED00E00346009829B10260CA
:1038D000C0E90F31012100F02DBC0060F8E72DE9AF
:1038E000F0479A46DDE9098481466FF00303206BB7
:1038F00003EB82021044089E20F00707780707D0E8
:10390000502080F31188BFF34F8FBFF36F8FFEE716
:10391000002561B1002023180A5C83F834200A5C7A
:1039200012B1401C1028F6D384F8435001E084F80B
:1039300034501F2E00D31E26E662C4E91165201DF7
:1039400000F053F904F1180000F04FF92461C6F1BA
:103950001F006462A061E56484F8505052464946F5
:10396000384600F003F92060B8F1000F01D0C8F824
:103970000040BDE8F087000030B5114900E0114675
:103980000A688242FBD34B685C18844203D14068CA
:1039900018444860084643681C18944209D1084CF2
:1039A000103C2468A24209D052681A4442600A6856
:1039B00012680260814200D0086030BD0460F9E7FF
:1039C0006C00002010B5044600F036F9A06B28B159
:1039D0005FF0000400F050F9204610BD0124F9E723
:1039E00006484168096829B14168C968C9684968D9
:1039F000016370474FF0FF31FAE70000200000201C
:103A000008484068401C4FF0500080F3118804D0F3
:103A1000BFF34F8FBFF36F8FFEE7BFF34F8FBFF33F
:103A20006F8FFEE7740000202DE9F041044600F09E
:103A300003F994F9455004F1240609E0606A48B19D
:103A4000304600F001FE08B100F018FA6D1E6DB2AC
:103A5000002DF3DC4FF0FF3684F8456000F00CF9E0
:103A600000F0EAF894F9445004F1100709E02069E5
:103A700048B1384600F0E8FD08B100F0FFF96D1ECE
:103A80006DB2002DF3DC84F84460BDE8F04100F035
:103A9000F3B800002DE9F0410546002700F042FA96
:103AA000314E306808B9FFF7B9FEF06805424BD1D6
:103AB000C5B3083568070ED005F00700C0F108004F
:103AC0000544680707D0502080F31188BFF34F8F5B
:103AD000BFF36F8FFEE72DB37068854234D822485C
:103AE000103001460C6801E020460C466168A9428E
:103AF00002D221680029F7D131688C4224D00768AE
:103B00002168016060680837411B10290FD96019CE
:103B1000420708D0502080F31188BFF34F8FBFF3C6
:103B20006F8FFEE710E041606560FFF725FF616879
:103B30007068401A7060B268904200D2B060F0685D
:103B400001430020C4E9000100F0BAFD780707D066
:103B5000502080F31188BFF34F8FBFF36F8FFEE7C4
:103B60003846BDE8F08100005C00002010B5031F5E
:103B70004FF080741C601B1F21F001011960191F98
:103B8000044B0B6014390A60091F6FF002024438BD
:103B90000A6010BD013A0008D0E9013201699A605B
:103BA000D0E901235A604A68824201D182684A60A2
:103BB000002202610868401E086008687047000023
:103BC000034B036003F154000860802010607047CD
:103BD000A001002000F108014FF0FF32C0E90112FE
:103BE000C1600161002101607047002101617047DF
:103BF00030B50B685A1C02D000F1080202E00269DD
:103C000004E02246546825689D42FAD953684B6007
:103C100099608A60516008610168491C016030BD8B
:103C200042684A6093688B6093685960916008614C
:103C30000168491C01607047502080F31188BFF370
:103C40004F8FBFF36F8F0A494868401C48600128B6
:103C50000CD10848006810F0FF0F07D0502080F307
:103C60001188BFF34F8FBFF36F8FFEE770470000DF
:103C70007400002004ED00E00849486828B1401EA7
:103C8000486001D180F311887047502080F311887B
:103C9000BFF34F8FBFF36F8FFEE70000740000206B
:103CA00070B5002827D0144DA0F108046168E868B9
:103CB000014207D1502080F31188BFF34F8FBFF32B
:103CC0006F8FFEE722683AB1502080F31188BFF36E
:103CD0004F8FBFF36F8FFEE78143616000F022F9E1
:103CE00060686968084468602046FFF745FEBDE8E3
:103CF000704000F0E5BC70BD5C0000204FF0E0209B
:103D000000210161816105494FF47A720968B1FBB4
:103D1000F2F1491E41610721016170471C0000203A
:103D200010B5FCF7EFFA114910280ED300F1E0208E
:103D300090F8F0030A78904207D2502080F311885F
:103D4000BFF34F8FBFF36F8FFEE7094800688968A4
:103D500000F4E060884207D9502080F31188BFF357
:103D60004F8FBFF36F8FFEE710BD0000740000207F
:103D70000CED00E010B5020014D00F48806B38B194
:103D8000502080F31188BFF34F8FBFF36F8FFEE792
:103D900000F0C8F800211046FFF750FC00F090FC3E
:103DA000002807D105494FF080500860BFF34F8FBE
:103DB000BFF36F8F10BD00002000002004ED00E075
:103DC00070B50546FFF738FF244C05B92568281D56
:103DD000FFF7E2FE58B9E86A214A00EB800152F889
:103DE000211021B901218140A0698843A061A86AFE
:103DF00018B105F11800FFF7CFFEE06A401CE06241
:103E00002068854207D1291D1648FFF709FFE068A1
:103E1000401CE06007E02069401E20612846FFF753
:103E2000E2FCFFF7DDFDFFF727FFE069002814D073
:103E30002068854211D1A06B38B1502080F31188E1
:103E4000BFF34F8FBFF36F8FFEE707494FF08050EE
:103E50000860BFF34F8FBFF36F8F70BD200000204D
:103E6000D40400207C07002004ED00E002498A6AA7
:103E7000026049694160704720000020014901202B
:103E8000486270472000002010B50C4650B1094927
:103E900009681831FFF7ACFE2046BDE8104001214B
:103EA000FFF7CCBB502080F31188BFF34F8FBFF3D7
:103EB0006F8FFEE72000002010B586B00024039429
:103EC00005AA04A903A80494FFF77AFEDDE903011B
:103ED0000094CDE9011000230EA11048059A00F0CE
:103EE000CAFA0F490028486311D0502080F3118886
:103EF000BFF34F8FBFF36F8F4FF0FF300863012088
:103F0000C8614C6106B0BDE8104000F041B806B091
:103F100010BD000049444C4500000000693800080D
:103F2000200000200248816B491C8163704700001B
:103F3000200000201448816B11B1012141627047BB
:103F4000002141628169B1FA81F1C1F11F0101EBE8
:103F500081020E4951F822306BB101EB820101F16F
:103F600008034A6852684A609A4201D152684A601E
:103F7000D16801607047502080F31188BFF34F8FE4
:103F8000BFF36F8FFEE7000020000020D404002064
:103F90001CB537480168374A914207D1502080F359
:103FA0001188BFF34F8FBFF36F8FFEE70068314971
:103FB000491E884207D1502080F31188BFF34F8FEC
:103FC000BFF36F8FFEE72C4908780190FF2008703F
:103FD00008788DF800009DF800009DF8002000F0A2
:103FE000F000904207D0502080F31188BFF34F8F2C
:103FF000BFF36F8FFEE79DF80000204B00F05000EC
:1040000018700720986005E09DF8002052008DF898
:104010000020401E9DF800201206F5D49860032869
:1040200007D0502080F31188BFF34F8FBFF36F8FFD
:10403000FEE74FF440709860019808700C482030FB
:10404000016841F470010160016841F07041016054
:10405000FFF754FE00205860FCF71CF9084801687F
:1040600041F040410160FCF701F900201CBD000057
:1040700000ED00E071C20F4100E400E07400002098
:1040800034EF00E0F8B517460E46050014D0DEB157
:1040900005FB06F04830FFF7FDFC04000AD00020C5
:1040A00084F8460004F148023B4631462846009415
:1040B000FFF70AFC2046F8BD502080F31188BFF3BB
:1040C0004F8FBFF36F8FFEE70020E3E738B5049D05
:1040D00018B153B1CAB181B120E0502080F31188EA
:1040E000BFF34F8FBFF36F8FFEE7502080F311882F
:1040F000BFF34F8FBFF36F8FFEE7502080F311881F
:10410000BFF34F8FBFF36F8FFEE739B1502080F3BD
:104110001188BFF34F8FBFF36F8FFEE748241C4613
:10412000012384F846302B460094FFF7CDFB204650
:1041300038BD000070B50D46040025D0FFF77CFDAA
:10414000D4E90F20216802FB0011A1600021A163C6
:10415000216861600A46D4E90F01401E00FB01217D
:10416000E16021464FF0FF3001F8440F487004F140
:1041700010008DB1FFF72EFD04F12400FFF72AFD9A
:10418000FFF77AFD012070BD502080F31188BFF346
:104190004F8FBFF36F8FFEE721690029F0D000F049
:1041A00053FA0028ECD004494FF080500860BFF368
:1041B0004F8FBFF36F8FE3E704ED00E02DE9F04789
:1041C0001F4690468946040003D0B9F1000F08D07D
:1041D00011E0502080F31188BFF34F8FBFF36F8F32
:1041E000FEE7206C38B1502080F31188BFF34F8F69
:1041F000BFF36F8FFEE7022F0AD1E06B012807D0D3
:10420000502080F31188BFF34F8FBFF36F8FFEE70D
:10421000FFF786FD5020EFF3118680F31188BFF37E
:104220004F8FBFF36F8FA06BE16B884206D3022FD5
:1042300004D0002086F31188BDE8F08794F945503A
:104240003A4649462046FFF798FA681C04D06D1C90
:1042500084F845500120EDE7606A0028FAD004F1A7
:10426000240000F0F1F90028F4D0B8F1000FF1D0EB
:104270000121C8F80010EDE72DE9F747002683B0CB
:104280008A46040003D0BAF1000F08D011E0502094
:1042900080F31188BFF34F8FBFF36F8FFEE7206C61
:1042A00038B1502080F31188BFF34F8FBFF36F8F69
:1042B000FEE700F00BF9DFF8F4804FF000094FF053
:1042C000805748B9059838B1502080F31188BFF362
:1042D0004F8FBFF36F8FFEE7FFF7AEFCA56BC5B145
:1042E00051462046FFF736FA6D1EA563206950B18E
:1042F00004F1100000F0A8F928B1C8F80070BFF36D
:104300004F8FBFF36F8FFFF7B7FC012006B0BDE8FA
:10431000F087059808B11EB106E0FFF7ADFC27E075
:104320006846FFF7A3FD0126FFF7A6FCFFF7FAFD9D
:10433000FFF782FC94F94400401C01D184F84490BA
:1043400094F94500401C01D184F84590FFF794FC96
:1043500005A9684600F02CF8002820460AD0FFF78F
:1043600063FB00F0ADF92046FFF72CFB0028B3D02B
:104370000020CBE7FFF726FB90B104F1240005995C
:10438000FFF782FD2046FFF74FFB00F099F9002868
:10439000A2D1C8F80070BFF34F8FBFF36F8F9BE7B8
:1043A0002046FFF741FB00F08BF995E704ED00E0B4
:1043B00070B50C4605000ED0ACB1FFF73DFC164BB6
:1043C00059696A682E689B6A881A9E4213D08A428D
:1043D00011D8012418E0502080F31188BFF34F8FCB
:1043E000BFF36F8FFEE7502080F31188BFF34F8F2C
:1043F000BFF36F8FFEE72168814209D9081A206058
:104400002846FFF733FD0024FFF736FC204670BD39
:1044100000202060DDE70000200000202DE9FF5F84
:104420008346DDE90E87994616468A469000FFF7D7
:1044300031FB05001CD05420FFF72CFB040014D0E6
:104440000020256384F85100CDE90240CDE90087C2
:104450004B46324651465846FFF741FA2046FFF791
:1044600015F9012004B0BDE8F09F2846FFF718FCBD
:104470004FF0FF30F6E7F0B585B0DDE90B640A9D3B
:10448000A6B1DCB1542700972663022684F8516058
:10449000002604AFCDE90246CDE90057FFF71FFA29
:1044A0002046FFF7F3F8049805B0F0BD502080F3E4
:1044B0001188BFF34F8FBFF36F8FFEE7502080F35B
:1044C0001188BFF34F8FBFF36F8FFEE70548C169B7
:1044D00019B1806B18B1002070470120704702208D
:1044E00070470000200000202DE9F0412E4C0027ED
:1044F000A06B40B1206A401C2062606A00B10127B5
:104500003846BDE8F0816669761C666113D1606843
:10451000006838B1502080F31188BFF34F8FBFF38C
:104520006F8FFEE76068A1686160A060A06A401CB0
:10453000A062FFF755FA206BDFF87080864209D33E
:104540006068006880B16068C068C5686868864255
:104550000DD220632068C06A00EB800158F821006A
:104560000128CAD90127C8E74FF0FF30F1E7281D1D
:10457000FFF712FBA86A18B105F11800FFF70CFB52
:10458000E86A0121A26981401143A16100EB800129
:1045900008EB8100291DFFF743FBE86A2168C96A1F
:1045A0008842CDD30127CBE720000020D40400208F
:1045B00070B504004FF0000140D0214D28688442BE
:1045C00007D0502080F31188BFF34F8FBFF36F8F58
:1045D000FEE7A06C38B1401EA064636CE26A9A42A8
:1045E0002CD040B12AE0502080F31188BFF34F8FC8
:1045F000BFF36F8FFEE7201DFFF7CEFA114A0121AE
:1046000050B9E06A00EB800352F8233023B9AB695C
:1046100001FA00F08343AB61606CE062C0F11F00FF
:10462000A061E06AAB6981401943A96100EB800099
:1046300002EB8000211DFFF7F3FA0121084670BD4F
:1046400020000020D40400202DE9F041C068C46897
:10465000ACB104F118000746FFF79EFA154DA86BA0
:104660000126A0B139461448FFF7DAFAE06A296852
:10467000C96A88421BD901206E62BDE8F0815020D2
:1046800080F31188BFF34F8FBFF36F8FFEE7201DBC
:10469000FFF782FAE16AAA6906FA01F01043A861FD
:1046A00001EB8100054901EB8000211DDCE70020C2
:1046B000E3E700002000002068070020D404002069
:1046C0002DE9F0472C4D00242746A86B38B1FFF7A1
:1046D000B3FAA86B401EA863A86B40B146E0502017
:1046E00080F31188BFF34F8FBFF36F8FFEE7296907
:1046F000224E0120D1B3A6F5257980463068E8B175
:10470000F068C46804F11800FFF746FA201DFFF7AF
:1047100043FAE06AAA6908FA00F11143A96100EBC3
:10472000800109EB8100211DFFF77AFAE06A296810
:10473000C96A8842E2D3C5F82480DFE70CB1FFF7ED
:104740004FF92C6A44B14646FFF7CEFE00B16E62C7
:10475000641EF9D100202862686A38B1084901272F
:1047600038070860BFF34F8FBFF36F8FFFF784FAEE
:104770003846BDE8F08700002000002068070020D0
:1047800004ED00E081F00041704780F00040704788
:1047900021F00041704720F00040704721F00042B6
:1047A000A2F16052B2F5801F01F0004328BFD2F1A0
:1047B0007F6C0BD95FEA001C43EAC20242EB5070E7
:1047C00018BF704728BF20F001007047B2F5801F66
:1047D000BCBF184670474FEA410C1CF5001F02D2BF
:1047E000084600F01EBC70B500F0CCFA000000894D
:1047F000FFF7F6BF4FF00040A0F5800070470000C3
:1048000010B591EA030F48BF83F0004300F1228303
:10481000841A71EB030C05D2121943EB0C03001B35
:1048200061EB0C01DFF824E14FEA1154A4EB135CB7
:104830001EEA430F18BF9EEA445F73D023EA0E03BB
:10484000DCF1200E21EA045143F4801332D322FA22
:104850000CFE10EB0E0023FA0CFE41EB0E01CCF126
:10486000200E03FA0EFE10EB0E0051F10001B1F51F
:10487000801FCCF1200E32D201EB045112FA0EF25D
:10488000BDE8104058BF7047401C38BF5FEA420285
:1048900018BF7047002814BF20F0010041F100014B
:1048A0004FEA410313F5001F38BF7047A1F1C04123
:1048B00000F0B6BA012A43EB0302ACF1200CDCF1A4
:1048C0001F0E32BF4FF0000E23FA0CF310EB030063
:1048D00041EB0451B4EB115FD0D0A1EB045101F5D1
:1048E000801149085FEA300001EB04510ED350F10A
:1048F000000038BF12FA0EFE08D1BDE81040C9E72B
:10490000401C38BF5FEA4202CAD1C3E7BDE810408D
:104910004FEA410313F5001F38BF7047A1F1C041B2
:1049200000F07EBA9EEA445F08D011EA5E0FBDE84F
:10493000104004BF01F0004100207047BDE8104066
:1049400070B500F01FFA00BF64FBBE3E0000E0FF40
:104950002DE9C04130B4DFF8A0C23CEA111418BF01
:104960003CEA131400F0EC8081EA03051CEA111400
:1049700044EAD57418BF1CEA131500F0C780A4EBF5
:1049800005044FF0004545EAC12145EAC32341EA49
:10499000505143EA525304F17F74994204F50034B4
:1049A0004FEAC0204FEAC22208BF904200F09C802C
:1049B0004FEA13650FF24016765D4FEA134506FB8A
:1049C00005F7C7F1807706FB07F74FEAD737A7FB54
:1049D00003687642C8F58038A7FB06CE38BFA8F139
:1049E000010807FB08E64FF0000EA6FB028CE6FB71
:1049F00003CEDCF1000CCEF1004E38BFAEF1010E5B
:104A0000A6FB0C584FF000074FF00005E6FB0E87A1
:104A1000A1FB08C6A0FB07CE16EB0E0645F100056C
:104A2000E1FB076515F1E04E7EBFA4F580345FEA37
:104A300046066D4116F1800745F100054FEA17273C
:104A40004FEA066647EA0567A6F1DE46B6F1805FE3
:104A50004FEA15251FD9384624F0010C05EBC47127
:104A6000BCF1FE6F01EB0C1102D8F0BCBDE8008177
:104A700024425CBF01F5801E9EEAC47F02D4F0BCD4
:104A8000BDE80081244238D4F0BCA1F1C041BDE8AA
:104A9000004100F0C5B94FEAD22242EA43524FEA40
:104AA000D323A7FB02864FEAD02040EA415007FB00
:104AB00003661EEA0E0F4FEAD12105FB026658BFBE
:104AC000A6EB0056B6EB00564FEA520E4EEAC37EF6
:104AD00018EB0E0E56EB530EBDD518EB02085E41D7
:104AE0007F1C55F10005B6E74FF480154FF0000725
:104AF0004FF000064FF00008ADE7F0BC4FF00000AB
:104B000001F1C04101F00041BDE8008111EA0C1F34
:104B10000CEA131500D00CE013EA0C1F00F02580FE
:104B20004FF00000F0BC81EA030101F00041BDE854
:104B30000081F0BCBDE8004181EA030100F070B9DA
:104B4000F0BCBDE8004170B500F01CF9097EFC3EE8
:104B500000F007B881EA03014FF0000001F00041C6
:104B6000704781EA030100F05BB9F0BCBDE8004189
:104B70004FF0000021497047FFFDFBF9F7F5F4F213
:104B8000F0EEEDEBE9E8E6E4E3E1E0DEDDDBDAD8E8
:104B9000D7D5D4D3D1D0CFCDCCCBCAC8C7C6C5C446
:104BA000C2C1C0BFBEBDBCBBBAB9B8B7B6B5B4B35D
:104BB000B2B1B0AFAEADACABAAA9A8A8A7A6A5A448
:104BC000A3A3A2A1A09F9F9E9D9C9C9B9A9999980C
:104BD0009797969595949393929191908F8F8E8EAF
:104BE0008D8C8C8B8B8A898988888787868585843C
:104BF00084838382828181800000FF070000F87F28
:104C000010F0004248BF4042B0FA80F310FA03F1BE
:104C10000AD0C3F11D0303F580634FEA415002EB54
:104C2000035202EBD12170474FF0000070470000A3
:104C3000DFF848C170B51CEA111E1EBF1CEA13152F
:104C40009EEA0C0F95EA0C0F00F06F8081EA0304D6
:104C500023EA4C134EEAD47E21EA4C1141F4801130
:104C600043F48013AE44A1FB024CA0FB0365AEF1FC
:104C70007F7E361955EB0C05A1FB034C4CF100036C
:104C8000A0FB021C16EB0C06654153F10003094220
:104C900018BF46F0010613F4007F0BD14FEA033131
:104CA0004FEA0530340341EA155140EA16506FF0DF
:104CB00003020AE04FEAC3214FEAC520F40241EAA9
:104CC000555140EA56506FF0020202EB2E4201EBC2
:104CD000025585EACE710AD05FEA440C18BF24F071
:104CE000004450F1000041F1000120EAD47040F28C
:104CF000FE7C624500D270BDA84214BF4FF08044D4
:104D00004FF04044002E08BF0024BEF1806FA8BFC2
:104D1000A1F1C041BDE8704080F282804FF00000F8
:104D200001F1C04101F0004170479EEA0C0F0CEA0E
:104D3000131518BF95EA0C0F06D04FF0000081EA5A
:104D4000030E0EF0004170BD00F01CF88900013E1A
:104D500000F007B800F009B84FEA430C5FEA5C5C6A
:104D600008D081EA030100F05BB84FEA410C5FEA2A
:104D70005C5CF6D14FF00000014970470000FF076E
:104D80000000F87F0EF1020E2EF0030E5EF8046BA9
:104D9000364205D4012A43EB030515F5001F12D84E
:104DA000012841EB010C1CF5001F0CD80ED14FEA75
:104DB000D17C15F5001F0CEB4C0C0CF1020C08BF5C
:104DC0004CEBD37C04E04FF0080C01E04FEAD37CBD
:104DD0000CEB4C0526FA05F606F00706B6F1040CB6
:104DE00006D20EEB860CBDE870404CF0010C60471B
:104DF000DFE80CF0090B02024FF000414FF0000019
:104E0000A1F5002170BD19461046012851EB01049F
:104E100018BFD4F5001484BF002001F0004170BD1C
:104E20000808A0F500114FEA3101704791EA030F1D
:104E300010B581F000413FF5EBAC83F0004300F08A
:104E400009B8000010B591EA030F48BF83F0004392
:104E50003FF5DEAC841A71EB030C07D212198CF00B
:104E6000004C43EB0C03001B61EB0C01DFF8A4E1E9
:104E70004FEA1154A4EB135C1EEA430F18BF9EEADD
:104E8000445F00F0B08023EA6E03524221EA0451ED
:104E9000C3EB6E0338BF5B1EDCF1200E25D322FA74
:104EA0000CFE10EB0E0043FA0CFE41EB0E01CCF1B0
:104EB000200E03FA0EFE10EB0E0051F10001CCF1B2
:104EC000200E29D412FA0EF201EB0451BDE8104075
:104ED00058BF7047401C1CBFB2F1004F70470028FC
:104EE0000CBF491C20F00100704712EB020E43EB8F
:104EF000030218BF4FF0010E4EEA4202ACF1200C43
:104F0000DCF11E0E54D943FA0CFE10EB0E0051F1E9
:104F1000FF31CCF11E0ED5D50EF1010E12FA0EFEA8
:104F2000404141EB010101EB445C5FEA5C5C10D95C
:104F300010EBDE7001EB045138BFBEF1004FBDE84D
:104F4000104018BF704700280CBF491C20F001001A
:104F5000704730D24FEAD42C11F5001124F40064CC
:104F60001BD0B1FA81F20B3AA41AA41ED2F120038D
:104F7000914030FA03F31943904001EBCC71002CBF
:104F800001EB0451BDE81040A8BF704701F1C041DA
:104F90004FF0000001F000417047B0FA80F310FAC2
:104FA00003F100D110BDE41A173C4805C90AE4E733
:104FB00001EB045110BD491001EB0451BDE8104054
:104FC0004FEA300002E04FF0000170474A0008BF8E
:104FD0000042F8D0B2F5001F28BF704701F0004131
:104FE0004FF0000070479EEA445F07D011EA5E0F61
:104FF000BDE8104004BF002100207047BDE810400C
:1050000070B5FFF7BFFE00BF40DFF63E83F0004102
:10501000104670470000E0FF4FF04070E1EE100ACC
:105020007047FF2141EAD050C005704710000000D2
:1050300028000000000000000000000040510008AF
:105040002D2A000800000000000000008000000081
:10505000000000000000000038510008C9090008E5
:10506000020000000000000000010000000000003D
:1050700000000000000610160006101600000000D8
:1050800000000000010203040607080900000000F8
:1050900001020304000000004FBB610567ACDD3F67
:1050A000182D4454FB21E93F9BF681D20B73EF3F4F
:1050B000182D4454FB21F93FE2652F227F2B7A3CC7
:1050C000075C143326A6813CBDCBF07A8807703C80
:1050D000075C143326A6913CC4EB98999999C9BFF3
:1050E000711623FEC671BCBF6D9A74AFF2B0B3BF28
:1050F0009AFDDE522DDEADBF2F6C6A2C44B4A2BFE8
:105100000D5555555555D53FFF8300922449C23F53
:105110006E204CC5CD45B73F513DD0A0660DB13F87
:10512000EB0D76244B7BA93F11DA22E33AAD903F99
:10513000000000000000000043414E5461736B000A
:1051400053746172745461736B0000006C510008F9
:105150000000002000010000E80100086C52000877
:1051600000010020D04D00000402000800000000F3
:10517000000000000000000000000000010000002E
:1051800010000000000000000024F40000000000F7
:10519000000000000000000000000000000000000F
:1051A00000000000000000000000000000000000FF
:1051B00000000000000000000000000000000000EF
:1051C00000000000000000000000000000000000DF
:1051D00000000000000000000000000000000000CF
:1051E00000000000AAAAAAAA000000000000000017
:1051F00000000000000000000000000000000000AF
:105200000000000000000000E90E0008810C00080A
:105210000D0C0008150F0008250B00080D080008EC
:10522000990A0008D1070008F105000809090008DB
:10523000000000000000000000000000000000006E
:10524000000000000000000029100008C90F00083D
:10525000A10F00085110000879100008A5100008DF
:0C526000F10F000849080008690F000861
:04000005080001AD41
:00000001FF
