:020000040800F2
:100000007047002081020008EB1E0008111D000847
:10001000E91E0008B10300083123000800000000B9
:10002000000000000000000000000000C101000806
:100030003D070008000000001D020008111F000815
:100040009B0200089B0200089B0200089B0200081C
:100050009B0200089B0200089B0200089B0200080C
:100060009B0200089B0200089B0200089B020008FC
:100070009B0200089B0200089B0200089B020008EC
:100080009B0200089B0200089B0200089B020008DC
:10009000E50300089B0200089B0200089B02000881
:1000A0009B0200089B0200089B0200089B020008BC
:1000B0009B0200089B0200089B0200089B020008AC
:1000C0009B0200089B0200089B0200089B0200089C
:1000D0009B020008052300089B0200089B02000801
:1000E0009B0200089B0200089B0200089B0200087C
:1000F0009B0200089B0200089B0200089B0200086C
:100100009B0200089B0200089B0200089B0200085B
:100110009B0200089B020008E11F00089B020008E8
:100120009B0200089B020008B90400089B0200081B
:100130009B0200089B0200089B0200089B0200082B
:10014000350400089B0200089B0200089B0200087F
:100150009B0200089B0200089B0200089B0200080B
:100160009B0200089B0200089B0200089B020008FB
:100170009B0200089B0200089B0200080000000090
:100180009B0200089B0200089B0200089B020008DB
:100190009B0200089B0200089B0200089B020008CB
:1001A00000000000000000009B020008DFF80CD0F7
:1001B00000F0ECF800480047712300087047002069
:1001C0002C4B19680868B0E8F04F80F30988BFF33A
:1001D0006F8F4FF0000080F311887047000000001F
:1001E00008480068006880F308884FF0000080F33A
:1001F000148862B661B6BFF34F8FBFF36F8F00DF15
:1002000000BF00BF08ED00E0DFF80C00016841F41A
:1002100070010160704700BF88ED00E0EFF30980D6
:10022000BFF36F8F134B1A681EF0100F08BF20ED3D
:10023000108A20E9F04F106009B44FF0500080F3AD
:100240001188BFF34F8FBFF36F8F02F091FC4FF017
:10025000000080F3118809BC19680868B0E8F04F05
:100260001EF0100F08BFB0EC108A80F30988BFF3AE
:100270006F8F704720000020EFF30580704700006B
:100280000648804706480047FEE7FEE7FEE7FEE730
:10029000FEE7FEE7FEE7FEE7FEE7FEE7C51F000814
:1002A000AD0100082DE9F05F0546002092469B460F
:1002B00088460646814640241BE02846414647467C
:1002C000224600F053F853465A46C01A914110D3C3
:1002D00011461846224600F03AF82D1A67EB01083D
:1002E0004F4622460120002100F031F817EB0009AB
:1002F0004E41201EA4F10104DFDC484631462A4667
:100300004346BDE8F09F40EA01039B0703D009E0A4
:1003100008C9121F08C0042AFAD203E011F8013BF1
:1003200000F8013B521EF9D27047D2B201E000F84A
:10033000012B491EFBD270470022F6E710B5134689
:100340000A4604461946FFF7F0FF204610BD202A52
:1003500004DB203A00FA02F1002070479140C2F11C
:10036000200320FA03F3194390407047202A04DB4E
:10037000203A21FA02F00021704721FA02F3D0401E
:10038000C2F120029140084319467047064C074DC0
:1003900006E0E06840F0010394E807009847103455
:1003A000AC42F6D3FFF706FF2831000848310008B9
:1003B000FEE700000FB4002010B50121CDE90801CF
:1003C0000A91069007900B9002900390049005907C
:1003D00002A9034800F0B4F910BC5DF814FB00005A
:1003E0000401002010B54FF40061044800F0CCFE79
:1003F000BDE81040024800F02ABA00000010024098
:10040000040100200FB4002010B50121CDE908013E
:100410000A91069007900B9002900390049005902B
:1004200002A9034800F08CF910BC5DF814FB000031
:100430002C010020014800F00ABA00002C01002025
:10044000012001F0AEFFFBE700B587B018220A4992
:100450006846FFF758FF084810380FC8FFF7AAFF93
:10046000064800F003FC05480068416941F00201BC
:10047000416107B000BD0000C4000020040100205D
:1004800000B587B018220A496846FFF73CFF0848C4
:1004900010380FC8FFF7B6FF064800F0E7FB054825
:1004A0000068416941F00201416107B000BD0000F0
:1004B000EC0000202C010020014800F01DBC0000D1
:1004C000E803002001681823CAB2103AB2FBF3F225
:1004D000054B6FF30901032A9B5CC36500D9091D15
:1004E0008165084670470000F430000810B50146E9
:1004F00000208B698A6A4FF0C07453B1B3F5005F76
:1005000015D072B1012A0CD0022A0AD0032A09D1CF
:1005100004E01AB1012A06D0022A03D1C96AC9012E
:1005200000D5012010BDC96AA142FAD010BD002A31
:10053000F7D0012AF2D0022AF3D0032AF3D010BD5B
:1005400030B50468256825F480252560046863605B
:100550008368402B036803D099600068C26030BD97
:100560009A600068C16030BD38B504460068016813
:10057000C9061ED5C168C9061BD501684068009030
:10058000606B0068016821F001010160606B006828
:100590004068042803D10748016A07488847616B0F
:1005A000162009684860606B0068016841F001012D
:1005B000016038BD800000204443002070B5002851
:1005C0007BD00188C1F30A053C490D8042788378CD
:1005D000D20842EA4312C2F30A034B808278C478FD
:1005E000920942EA84020479A5F5806542EA8422F0
:1005F000C2F30A028A8004794679640844EAC61480
:10060000C4F30A04CC804679A3F58063B6090E7260
:100610004679A2F58062C6F301164E72C6888E81B5
:100620000689CE8146890E82067B8E74467BCE7407
:10063000C6898E82008ACE8AC0F30A00761CCE82DA
:100640000D804B808A80A4F58064CC80A0F580600A
:10065000002614354881282D00D80E801433282B0D
:1006600000D84E801432282A00D88E801434282CCA
:1006700000D8CE801430282800D84E81B1F9060069
:1006800000EE100A0E48F8EEC00AB2EE040A60EE60
:10069000800AC0ED000AB1F9042000EE902AF8EEBD
:1006A000E00A20EE800A80ED020AB1F9001000EEA7
:1006B000101AB8EEC00A80ED010A70BD800000205B
:1006C0005C43002007480021018041808180C18077
:1006D000017241728181C18101828174C174818200
:1006E000418170478000002038B512490025086814
:1006F000026842680092C26842F40052C260086810
:10070000C16841F01001C1600A4C0B4A94F83A00EC
:1007100020280DD11623A262A385E5632168606BB2
:10072000091D00F023FC2068416941F0400141614E
:1007300038BD0000A80300204443002070477047E4
:1007400010B590F82020012A07D0022A05D0416A6E
:1007500041F480214162012010BD3B48D0F80022C5
:1007600042F00102C0F80022D0F8002222F47C52AC
:10077000C0F80022D0F800224B6A42EA0322C0F8F7
:1007800000220A7D02F01F0301229A40D0F81C3299
:100790009343C0F81C32CB69B3B9D0F80C32934301
:1007A000C0F80C328C894B6864F31F434C6900EB32
:1007B000C404C4F840320C890B6864F31F434C69CD
:1007C00000EBC404C4F84432CB69012B16D1D0F835
:1007D0000C321343C0F80C320C884B6864F31F438F
:1007E0004C6900EBC404C4F840320C89CB6864F354
:1007F0001F434C6900EBC404C4F844328B69002BDE
:10080000D0F804320ED01343C0F804320B69002B29
:10081000D0F8143208D01343C0F81432096A012901
:1008200004D008E09343EFE79343F5E7D0F81C12B8
:100830001143C0F81C12D0F8001221F00101C0F8D9
:100840000012002010BD00000064004070472DE938
:10085000F05F0546006800244669D0F80490876878
:10086000D0F80CB0D0F810A0D0F81880F10748D01C
:10087000F90714D001218160B80703D5284600F09C
:1008800022FA0CE0780702D54FF4006407E038073D
:1008900002D54FF4805402E0284600F013FAF80520
:1008A00016D529684FF480708860B80503D52846AE
:1008B00000F00BFA0CE0780502D544F4005407E090
:1008C000380502D544F4804402E0284600F0FCF9E3
:1008D000F80316D529684FF480308860B80303D533
:1008E000284600F0F4F90CE0780302D544F4004403
:1008F00007E0380302D544F4803402E0284600F0D3
:10090000E5F9300707D55FEACB6004D529681020E8
:1009100044F40074C86070074FF0080707D55FEA19
:100920000B7004D52868C760284600F099F9B00715
:1009300006D52868C068800702D0284600F091F9E3
:10094000700607D55FEACA6004D52968102044F410
:1009500080640861B00607D55FEA0A7004D528688C
:100960000761284600F07EF9F00606D52868006980
:10097000800702D0284600F076F9B00308D55FEA78
:10098000C96005D5296810204860284600F06CF938
:10099000F00307D55FEA097004D528684760284648
:1009A00000F096F9300446D55FEA497040D5F0056D
:1009B00004D55FEAC87001D044F00104B00504D545
:1009C0005FEA887001D544F00204700504D55FEA3F
:1009D000487001D544F00404300529D518F0700F93
:1009E00026D008F07000402815D006DC102809D069
:1009F00020280AD0302816D10AE050280ED06028CE
:100A000011D10EE044F008040DE044F010040AE0B7
:100A100044F0200407E044F0400404E044F0800483
:100A200001E044F480742868816921F070018161DB
:100A3000296804204860002C05D0686A2043686259
:100A40002846FFF703FFBDE8F09F70B5040003D010
:100A500094F8200010B104E0012070BD204600F0A1
:100A600081F82068016821F00201016000F098FB24
:100A70000546052604E000F093FB401B0A2811D828
:100A8000206840688007F6D42068016841F00101C1
:100A9000016000F085FB05460BE000F081FB401B88
:100AA0000A2806D9606A40F40030606284F8206049
:100AB000D2E720684068C007EFD0207E0128206878
:100AC00001683DD021F080010160607E012820682E
:100AD000016838D021F040010160A07E0128206823
:100AE000016833D021F020010160E07E01282068F8
:100AF00001682ED041F010010160207F012820689C
:100B0000016829D021F008010160607F0128206878
:100B1000016824D021F004010160D4E902010843F6
:100B2000D4E90412114308436168491E084321684F
:100B3000C86100206062012084F82000002070BDA0
:100B400041F08001C0E741F04001C5E741F02001DC
:100B5000CAE721F01001CFE741F00801D4E741F0E6
:100B60000401D9E7F0B587B0044614216846FFF7C1
:100B7000E3FB364B3648DFF8D0E01968D4F800C004
:100B8000334A03250226092710300024491CF44566
:100B900022D11960012907D1016841F0007101607B
:100BA000006800F000700590106840F008001060C8
:100BB0001068CDE9005600F00800CDE904706946E0
:100BC0002448CDE9024500F0F5F900220521142062
:100BD00000F072FB142033E0DFF87CE0F44531D103
:100BE000D0F800C04CF0806CC0F800C0D0F800C055
:100BF00001290CF0806CCDF814C0196007D1016890
:100C000041F000710160006800F00070059010680C
:100C100040F002001060106802AB00F00200059086
:100C20004FF44050CDE9000683E8B00069460B4818
:100C300000F0C0F900220521402000F03DFB4020DB
:100C400000F02CFB07B0F0BD006400400000002065
:100C500030380240000C02400068004000040240AE
:100C600070477047704770477047000070B5044682
:100C700090F82000012804D0606A40F400206062EF
:100C800018E0022084F820002068016821F00101AA
:100C9000016000F085FA05460EE000BF00F080FA22
:100CA000401B0A2808D9606A40F4003060620520C1
:100CB00084F82000012070BD20684068C007EDD195
:100CC000606270BD704770477047704770477047EB
:100CD000704790F83510022903D08021416501202A
:100CE0007047052180F835100068016821F0010186
:100CF00001600020704700002DE9F84304464FF0E2
:100D00000009CDF8009063484FF41651A56D0068B6
:100D1000B0FBF1F72E6894F85C10082000FA01F19E
:100D200031420FD021680A6852070BD50A6822F0B9
:100D300004020A6094F85C108840A860606D40F07E
:100D40000100606594F85C104FF0010808FA01F0AA
:100D5000304208D021684969090604D5A860606D51
:100D600040F00200606594F85C1004208840304236
:100D700008D021680968890704D5A860606D40F033
:100D80000400606594F85C1010208840304218D050
:100D900021680968090714D5A8602068016849031B
:100DA00004D50068000308D5A16C07E00168C905F7
:100DB00003D4016821F008010160216C09B12046CB
:100DC000884794F85C1020208840304231D0216858
:100DD0000968C9062DD5A86094F835000528206853
:100DE000016806D0490347D5006800031DD4616C33
:100DF0001CE021F0160101602068416921F08001AA
:100E00004161206C08B9A06C20B12068016821F014
:100E10000801016094F85C103F208840A86084F8C5
:100E2000349084F83580216D1FE0E16B09B12046D4
:100E30008847606D00282BD0606DC00714D0052056
:100E400084F835002068016821F0010101600098F4
:100E5000401C0090B84203D820680068C007F6D153
:100E600084F8349084F83580E16C002910D001B00A
:100E70002046BDE8F04308470168C905D5D401689C
:100E800021F01001016084F8349084F83580CCE7BB
:100E9000BDE8F8831C0000202DE9F041044600F075
:100EA0007FF906465CB1002584F83450022084F8AE
:100EB00035002068016821F0010101600DE001208A
:100EC000BDE8F08100F06CF9801B052805D92020D1
:100ED0006065032084F83500F2E720680068C007E9
:100EE000F0D12268116820480140D4E90103184379
:100EF000D4E903363343184363691843A36918439D
:100F0000E3691843236A18430843616A042903D13B
:100F1000D4E90B1319430843106020684069666ADE
:100F200020F0070130460E43012704280CD1A06AA7
:100F30000643E06A40B12046FFF7D8FA20B14020CE
:100F4000606584F83570BAE7206846612046FFF78F
:100F5000B9FA94F85C203F2191408160656584F87E
:100F600035700020ACE700003F8010F070B50446FB
:100F700090F83400002501280CD0012084F83400BA
:100F800094F835600020012E06D084F83400022544
:100F9000284670BD022070BD022684F83560606569
:100FA0002046FFF7CDFA2068016841F00101016099
:100FB000EEE700002DE9F84F00224FF0010803256D
:100FC0004FF00F0E0B6808FA02F42340A3426ED1D3
:100FD0004E68012E05D0022E03D0112E01D0122E04
:100FE00012D186684FEA420C05FA0CF7BE43CF686F
:100FF00007FA0CF7374387604668A6430C79C4F3B9
:101000000014944034434460C668570005FA07FC56
:101010008C6826EA0C06BC403443C4604C68022C41
:1010200001D0122C13D1D40800EB8404A346D4F8C9
:10103000209054074FEAD46A0EFA0AF629EA060904
:101040000E6906FA0AF646EA0906CBF8206004683B
:101050000E7924EA0C0406F00306BE40264306601F
:101060004C68E4006FD53B4C266846F48046266009
:10107000246822F0030604F480440094364C34447F
:10108000A446D4F808489607360F0EFA06F7BC4374
:10109000324FB84201D100272EE0314FB84201D182
:1010A000012729E02F4FB84202D1022724E04AE06D
:1010B0002D4FB84201D103271EE02C4FB84201D179
:1010C000042719E02A4FB84201D1052714E0294F1F
:1010D000B84201D106270FE0274FB84201D10727B8
:1010E0000AE0264FB84201D1082705E0244FB84254
:1010F00001D1092700E00A27B7402743CCF8087838
:10110000204E34684F689C43FF0300D51C43346075
:101110001C4E361D34684F689C43BF0300D51C43EA
:101120003460184E083634684F689C43FF0200D57F
:101130001C433460134E0C3634684F689C43BF0226
:1011400000D51C433460521C102AFFF43BAFBDE8AD
:10115000F88F000044380240003001400000024097
:101160000004024000080240000C0240001002404F
:101170000014024000180240001C024000200240FF
:1011800000240240003C0140426931EA020200D1E1
:101190000904816170470AB1816170470904FBE766
:1011A00001488068704700001000002002488168F4
:1011B0000278114481607047100000200B4810B580
:1011C000016841F400710160016841F480610160CF
:1011D000016841F480710160032000F08DF8002067
:1011E00000F006F800F03EF8002010BD003C024080
:1011F00010B5014688B00022362000F05DF8362098
:1012000000F04CF813480024016841F0100101601F
:10121000006805A900F010000690684600F050F93B
:1012200000F06EF90C494000B0FBF1F10C480B4A9C
:10123000491E026040F2E732C0E90324C0E901140C
:1012400000F060FB10B1012008B010BD044800F0B0
:1012500075FBF9E74038024040420F0000100040A3
:10126000480400200C4882B0016841F480410160CC
:10127000006800F4804000900748001F016841F0BA
:10128000805101600068002200F0805000900F2122
:10129000901E02B000F010B844380240002809DB6C
:1012A00000F01F02012191404009800000F1E02080
:1012B000C0F8001170470000F0B40E4B1B680C46DC
:1012C000C3F30223C3F10705042D00D90425191D1A
:1012D000072901D2002300E0DB1E012606FA05F1F2
:1012E000491E214099409E40761E16403143F0BC75
:1012F00001F01FB80CED00E0064900F00702086895
:101300004FF6FF03184040EA0220034A10430860EA
:10131000704700000CED00E00000FA052DE9F843ED
:101320001748016841F0805101600068154F00F0D6
:101330008050012600903E64FFF732FF05464FF4CF
:101340007A78114C05E000BFFFF72AFF401B4045AB
:101350000DD86068C003F7D57E64FFF721FF05460E
:10136000464607E0FFF71CFF401BB04202D90320AE
:10137000BDE8F88360688003F4D50020F8E700003A
:101380004038024000000E42007000402DE9F04756
:101390000E46050065D0DFF81481D8F80000F7B2DA
:1013A00000F00F00B04207D288F80070D8F80000B3
:1013B00000F00F00B04254D128683D4C810712D58F
:1013C000400703D5206840F4E050206028780007EB
:1013D00003D5206840F4604020602068A96820F0B0
:1013E000F000084320602878C0072DD03049686895
:1013F0000839012812D0022813D0032811D0096817
:10140000890700292DDA216821F0030101432160B9
:10141000FFF7C6FE814641F2883A0EE0096889036B
:10142000EFE709688901ECE7FFF7BAFEA0EB0901D5
:10143000514502D90320BDE8F0872068696800F0B3
:101440000C00B0EB810FEFD1D8F80010404601F04E
:101450000F01B14207D90770006800F00F00B042D9
:1014600001D00120E7E72878400705D52068E96822
:1014700020F4E050084320602878000706D5206853
:10148000296920F4604040EAC100206000F058F86B
:101490002168084AC1F30311515CC840064908603D
:1014A00006480068FFF7A4FE0020C4E7003C0240A5
:1014B00008380240FC3000081C0000201400002006
:1014C0000F2202600C4A136803F0030343601368A1
:1014D00003F0F0038360136803F4E053C360126801
:1014E0004FF4E05303EAD20202610448006800F0BE
:1014F0000F0008607047000008380240003C0240BE
:101500000448054900680968044AC1F38221515C16
:10151000C84070471C000020083802400C31000809
:101520000448054900680968044AC1F34231515C26
:10153000C84070471C000020083802400C310008E9
:10154000154810B5006810F00C02144813D0144967
:10155000042A0FD0082A0ED10F4C241F22682368BA
:1015600002F03F025B0207D52068C0F38810A0FBA1
:10157000010106E0084610BD2168C1F38811A1FBF6
:1015800000010023FEF78EFE2168C1F30141491CD2
:101590004900B0FBF1F010BD083802400024F4000F
:1015A000001BB7002DE9F84F04006ED02078DFF85B
:1015B0003C93C007A9F104054AD009F10400016871
:1015C000C1F38101012908D00068C0F3810002281D
:1015D0000AD1D9F80000400206D52868800337D523
:1015E00060680028E1D033E06068B0F5803F10D03B
:1015F000B0F5A02F286810D020F48030286028682B
:1016000020F4802028606068A8B1FFF7C9FD064675
:101610000DE0286840F48030F4E740F48020286032
:10162000F7E700BFFFF7BCFD801B642873D828686C
:101630008003F7D50CE0FFF7B3FD064605E000BFD9
:10164000FFF7AEFD801B6428F0D828688003F7D42C
:101650002078DFF89C8280074FF0000A3ED5A3482F
:10166000001D016811F00C0F08D00068C0F3810064
:1016700002280BD1D9F80000400207D4286880075F
:1016800016D5E068012800D112E02BE1E068B8B17E
:101690000120C8F80000FFF783FD064605E000BF03
:1016A000FFF77EFD801B0228C0D828688007F7D589
:1016B0002868216920F0F80040EAC10028600DE0A8
:1016C000C8F800A0FFF76CFD064604E0FFF768FDD0
:1016D000801B02281FD828688007F7D420780007CD
:1016E00022D5824E83486169703671B10121016053
:1016F000FFF756FD074604E0FFF752FDC01B022826
:1017000009D830688007F7D50EE0C0F800A0FFF7D1
:1017100047FD074605E082E0FFF742FDC01B0228B7
:101720007DD830688007F7D42078400768D5DFF887
:10173000BCB100270BF13C0BDBF80000C0000BD460
:10174000DBF8001041F08051CBF80010DBF800000E
:10175000012700F080500090674E3068C00510D41B
:10176000306840F480703060FFF71AFD009005E0AB
:10177000FFF716FD0099401A022850D83068C005BE
:10178000F6D55A4EA0686C3601280FD0052830686F
:1017900010D020F001003060306820F0040030608C
:1017A000A068B8B1FFF7FCFC00900FE0306840F093
:1017B0000100F4E740F004003060F7E7FFF7F0FCC9
:1017C0000099411A41F28830814266D8306880071A
:1017D000F4D50EE0FFF7E4FC009007E0FFF7E0FC33
:1017E0000099411A41F28830814256D8306880070A
:1017F000F4D42FB1DBF8001021F08051CBF80010A9
:10180000A069C8B33949091D0968C1F381010229DA
:101810004AD00228504607D0C8F8600000E03CE0FB
:10182000FFF7BEFC04463BE04746C8F86000FFF700
:10183000B7FC064605E000BFFFF7B2FC801B02289C
:101840002BD828688001F7D4D4E907010843A16A9E
:101850002A4A490802EB0141626A41EA82110843BF
:1018600094F82C1040EA0161C9F800100120386694
:10187000FFF796FC044606E036E000BFFFF790FC59
:10188000001B022809D828688001F7D52CE000BF8A
:10189000FFF786FC001B022802D90320BDE8F88F61
:1018A00028688001F4D41FE00128F7D0D9F800009F
:1018B000E26900F48001914214D1226A00F03F01F4
:1018C00091420FD147F6C071626A0140914209D13D
:1018D000A26A00F44031914204D1E16A00F07060E4
:1018E000884201D00120D9E70020D7E70438024020
:1018F00000004742800E4742007000400000FFFF9A
:101900007047704710B5040003D094F83D0010B143
:1019100007E0012010BD002084F83C00204600F0C4
:101920000CF8022084F83D00211D206800F05EFBC9
:10193000012084F83D00002010BD70470168CA688E
:1019400042F00102CA600068816801F007010629BF
:1019500003D0016841F00101016000207047704729
:1019600070B50446006801694FF00005C943890756
:1019700015D4C168C943890711D4E91E016101204A
:101980002077206880698007204602D0FFF7E7FFB4
:1019900004E000F098F8204600F096F825772068DB
:1019A0000169C943490717D4C168C943490713D41A
:1019B0006FF004010161022020772068806910F433
:1019C000407F204602D0FFF7CAFF04E000F07BF81A
:1019D000204600F079F8257720680169C943090796
:1019E00016D4C168C943090712D46FF00801016118
:1019F000042020772068C0698007204602D0FFF7C6
:101A0000AEFF04E000F05FF8204600F05DF82577B7
:101A100020680169C943C90617D4C168C943C9060A
:101A200013D46FF010010161082020772068C0698D
:101A300010F4407F204602D0FFF791FF04E000F051
:101A400042F8204600F040F8257720680169C94334
:101A5000C90708D1C168C943C90704D1891E0161FA
:101A6000204600F033F820680169C943090609D40B
:101A7000C168C943090605D46FF0800101612046A1
:101A8000FFF73EFF20680169C943490609D4C168D0
:101A9000C943490605D46FF040010161204600F0BA
:101AA0001FF820680169C94389060BD4C168C9437E
:101AB000890607D46FF0200101612046BDE870401F
:101AC000FFF71FBF70BD70477047000000680349F3
:101AD000884201D1FFF76ABB704700000010004048
:101AE0007047704770B5026804461068D168536942
:101AF00010F00F0F52D003F0010501F490762E4341
:101B00005FD0C20705D0CA0503D5E26B42F00102DF
:101B1000E263420705D5DA0703D0E26B42F0020226
:101B2000E263820705D5DA0703D0E26B42F00402D4
:101B3000E263020707D501F020022A4303D0E26BDB
:101B400042F00802E263E26B002A33D0800604D53B
:101B5000880602D5204600F0C3FA20684069E16B90
:101B6000C0F38010090700D428B3204600F0AAFA79
:101B70002068416949061AD5416921F04001416157
:101B8000606BA0B11B490165606BFFF7A2F80028EC
:101B900010D0606B016DBDE870400847830610D51A
:101BA0008B060ED52046BDE8704000F099BA20465D
:101BB000FFF797FF70BD2046FFF793FF0020E0631B
:101BC00070BD030606D50B0604D52046BDE870405F
:101BD00000F066BB4006F3D54806F1D5D168204633
:101BE00021F04001D160202184F8391000F08FF8F5
:101BF00070BD0000B520000870B5040004D094F852
:101C00003900002510B106E0012070BD84F838507D
:101C1000204600F023F8242084F839002068C168A9
:101C200021F40051C160204600F0A6FA2068016945
:101C300021F4904101612068416921F02A0141614C
:101C40002068C16841F40051C160E563202084F838
:101C5000390084F83A00002070BD000070B586B0ED
:101C6000064614216846FEF767FB23493068884220
:101C700040D122480025016841F010010160006850
:101C800000F0100005901D481438016841F0020171
:101C900001600068694600F002000590C0200090D5
:101CA0000220CDE901050320039007200490144889
:101CB000FFF780F9144C134820604FF00060C4E92E
:101CC00001054014C4E9035080106561C4E9065061
:101CD000256220466562FFF7DFF808B1FEF72FFDA9
:101CE0007463002205212520A663FFF7E5FA25206D
:101CF000FFF7D4FA06B070BD00100140443802402E
:101D00000004024040640240E8030020704770472E
:101D1000FEE700000F4810B50D4901600521416044
:101D200000214FF400328160C0E903125201426188
:101D30000176012242768276C17601774177FEF7FD
:101D400084FE002803D0BDE81040FEF7F8BC10BDAB
:101D500000640040040100200F4810B50D490160E7
:101D60000521416000214FF400328160C0E9031277
:101D7000520142610176012242768276C176017774
:101D80004177FEF762FE002803D0BDE81040FEF761
:101D9000D6BC10BD006800402C010020094808B5E1
:101DA000016841F4800101600068002200F48000B5
:101DB000009005213A20FFF77FFABDE808403A205D
:101DC000FFF76CBA3038024010B5124B92B00EAC2F
:101DD0000FCB84E80F0000210EA800F0EEFA0E4CA5
:101DE0000C491C22A06010316846FEF78CFA0021D5
:101DF000684600F0F5FA074920601C222C3107A83C
:101E0000FEF781FA002107A800F0EAFA606012B03C
:101E100010BD0000AC3000080400002070B586B092
:101E200014216846FEF788FA1E480024016841F034
:101E300080010160016801F080010591016841F0B5
:101E400010010160016801F010010591016841F085
:101E500002010160016801F002010591016841F091
:101E600001010160016801F001010591016841F083
:101E70000801016000680C4E00F008004FF4606536
:101E80000590012229463046FFF785F9012000958B
:101E9000CDE90104694630460394FFF78BF806B09C
:101EA00070BD000030380240001002400C4810B5F0
:101EB0000A4901600B494160002181600C22C16028
:101EC000C0E904128161C161FFF796FE002803D0CA
:101ED000BDE81040FEF733BC10BD0000001001400B
:101EE000A8030020A0860100FEE7704710B5074C4C
:101EF000206880476068804700F00CFD002000F0FB
:101F0000A3FDBDE8104000F025BD0000AC0000209E
:101F100010B5502080F31188BFF34F8FBFF36F8F40
:101F200000F0C2FF18B104494FF080500860002053
:101F300080F3118810BD000004ED00E030B593B0CF
:101F400030216846FEF7F8F914210CA8FEF7F4F9E1
:101F50001A480025016841F080510160006800F0D6
:101F6000805011901648016841F4404101600068BA
:101F7000022400F4404011900120009000040190E0
:101F80008001CDE9064006200890B420CDE909047F
:101F900004200B906846FFF705FBFFF7BFF90CA97B
:101FA0000F2081E831004FF4A0500F90E002109014
:101FB00005210CA8FFF7EAF913B030BD4038024004
:101FC000007000400548016841F470010160034958
:101FD0004FF00060803908607047000088ED00E035
:101FE0000148FFF7BDBC000048040020F0B50268BE
:101FF000254C264D264E274F274B4FF0804CA042B4
:1020000009D0604507D0A84205D0B04203D0B842FD
:1020100001D0984204D122F0700E4A6842EA0E02C2
:10202000A0421BD0604519D0A84217D0B04215D0AD
:10203000B84213D0984211D0184DA8420ED0184D76
:10204000A8420BD0174DA84208D0174DA84205D082
:10205000164DA84202D0164DA84203D122F4407575
:10206000CA682A434D6922F080022A4302608A68C6
:10207000C2620A688262A04201D0984201D1096915
:10208000016301214161F0BD0000014000040040F6
:1020900000080040000C00400004014000400140E6
:1020A000004401400048014000180040001C00406E
:1020B0000020004010B5806B0021C185C184FFF76E
:1020C00010FD10BD0168CA6822F49072CA600168F0
:1020D0004A6922F001024A61202180F83A107047D3
:1020E00010B590F83A10222901D0022010BD816865
:1020F000B1F5805F11D00169002901681FD04968DE
:1021000001F07F03816A4A1C82620B70C18D491EF7
:102110000904090CC18518D02BE00269816A002AE4
:102120000268526805D0D2B20A80816A491C816275
:10213000ECE7C2F308020A80816A891CF7E74A6863
:10214000816A4B1C83620A70E0E70168CA6822F06A
:102150002002CA600168CA6822F48072CA600168FD
:102160004A6922F001024A61202180F83A10FFF703
:10217000CDFD002010BD00002DE9F04104460068AF
:102180000169E26821F44051114301612169A068AD
:10219000E26908436169114308432168CA6849F24A
:1021A0000C639A430243CA6020684169A26921F422
:1021B000407111434161E069192764253226B0F569
:1021C000004F354A354920684FF0000806D0884254
:1021D00001D0904236D1FFF7A3F935E0884201D013
:1021E000904202D1FFF79CF901E0FFF789F961689D
:1021F0004A18A0FB070148EB0803FEF753F8014615
:10220000B0FBF5F00201B1FBF5F06FF01803584395
:1022100001EB800006EBC000B0FBF5F000F0F80029
:1022200002EB4002B1FBF5F0584301EB800006EBF6
:10223000C000B0FBF5F000F0070021681044886092
:10224000BDE8F081FFF75CF961688B0F8A00A0FBA5
:102250000701FEF727F80146B0FBF5F06FF0180212
:10226000504301EB800006EB0010B0FBF5F000F0EE
:10227000F002B1FBF5F002EB0012B1FBF5F06FF0EC
:102280001803584301EB800006EB0010B0FBF5F09B
:1022900000F00F00D1E700000014014000100140E1
:1022A00090F83910212901D0022070478168B1F5DA
:1022B000805F016A0BD04A1C026202680978516093
:1022C000C18C491E0904090CC1840ED017E009888D
:1022D0000268C1F30801516001690029016A02D056
:1022E000491C0162ECE7891CFBE70168CA6822F01F
:1022F0008002CA600068C16841F04001C1600020EE
:102300007047000010B54FF480610648FEF73CFFAF
:102310000548416A05488847BDE810400348FFF773
:10232000E1BB00000010024080000020A803002054
:10233000FEE70907090E002804DB00F1E02080F821
:102340000014704700F00F0000F1E02080F8141D29
:10235000704702E008C8121F08C1002AFAD170476E
:102360007047002001E001C1121F002AFBD1704715
:10237000FEF724FFFFF7E2FDFFF750FDFFF70EFD2C
:10238000FFF794FDFFF7C6FCFFF7E6FCFFF71CFD27
:1023900000F00EF8FEE701460020842900D0C81C9A
:1023A000704710B500B9012000F028FB002010BDD7
:1023B00010B500F09FFB002010BD38B5D0E9011228
:1023C00004683AB1C3682BB100200090204600F0A9
:1023D0009BFC38BD2046BDE83840002200F070BCB0
:1023E0007FB50D4604464169B0F9080081B1A16985
:1023F00071B1FFF7D0FFD4E905128DE80700D4E9E9
:1024000000102B46226900F024FD039004B070BD3B
:10241000FFF7C1FF03A9CDE90001208A2B4682B254
:10242000D4E9001000F0E8FC012801D00020EDE71D
:102430000398EBE770B5124C054666692068001DED
:1024400000F018FA38B9206890F82C100120884064
:10245000A1698143A16120683544B5424560216886
:1024600005D2A068BDE87040091D00F02FBA606871
:10247000091D00F02BFA206B854200D2256370BD48
:10248000200000202DE9F041054600F043FA2B4CD6
:102490002069401C20612068294F10B1E06910B309
:1024A00027E025602069012823D1002606EB86005D
:1024B00007EB800000F0FCF9761C1F2EF6D32148B4
:1024C00000F0F6F91F48143000F0F2F91D482830EA
:1024D00000F0EEF91B483C3000F0EAF91948606062
:1024E0001430A06005E02068E96AC06A884200D81C
:1024F0002560E06A401CE062E96A0120A269884028
:102500001043A06101EB810007EB8000291D00F062
:10251000F5F900F01FFAE06900280CD02068E96A9C
:10252000C06A884207D208494FF080500860BFF364
:102530004F8FBFF36F8FBDE8F081000020000020B7
:1025400088040020F406002004ED00E010B50446E5
:1025500090F8510058B101280CD002280FD050201B
:1025600080F31188BFF34F8FBFF36F8FFEE7206BAF
:1025700000F004FA2046BDE8104000F0FFB910BD9D
:1025800010484FF47051420706D0C01D0D4920F08D
:102590000700411AC1F570510B4A00230144C2E9FA
:1025A00000030839103A21F0070111604B600B60FD
:1025B0000B1AC0E9001393604FF000405360D060E5
:1025C00070470000440700206C000020144E154C9A
:1025D000A6F52A774FF08058DFF84C9012E000BF44
:1025E00000F098F9F068C568281D00F043F92069EB
:1025F000401E2061E068401EE06000F0ABF9284614
:10260000FFF7A4FFE0680028EAD138680128F9D96B
:10261000C9F80080BFF34F8FBFF36F8FF2E7000060
:10262000300700202000002004ED00E00346009861
:1026300029B10260C0E90F31012100F099BB0060AF
:10264000F8E72DE9F0479A46DDE9098481466FF005
:102650000303206B03EB82021044089E20F007075F
:10266000780707D0502080F31188BFF34F8FBFF356
:102670006F8FFEE7002561B1002023180A5C83F804
:1026800034200A5C12B1401C1028F6D384F8435061
:1026900001E084F834501F2E00D31E26E662C4E900
:1026A0001165201D00F00FF904F1180000F00BF97E
:1026B0002461C6F11F006462A061E56484F8505093
:1026C00052464946384600F0BFF82060B8F1000F86
:1026D00001D0C8F80040BDE8F087000030B51149CE
:1026E00000E011460A688242FBD34B685C188442C2
:1026F00003D1406818444860084643681C18944257
:1027000009D1084C103C2468A24209D052681A44EE
:1027100042600A6812680260814200D0086030BDE1
:102720000460F9E76C00002006484168096829B197
:102730004168C968C9684968016370474FF0FF3153
:10274000FAE700002000002008484068401C4FF0D5
:10275000500080F3118804D0BFF34F8FBFF36F8F09
:10276000FEE7BFF34F8FBFF36F8FFEE774000020CB
:102770002DE9F0410546002700F0F2F9314E3068AE
:1027800008B9FFF7FDFEF06805424BD1C5B3083527
:1027900068070ED005F00700C0F10800054468077F
:1027A00007D0502080F31188BFF34F8FBFF36F8F96
:1027B000FEE72DB37068854234D8224810300146B8
:1027C0000C6801E020460C466168A94202D22168EB
:1027D0000029F7D131688C4224D007682168016054
:1027E00060680837411B10290FD96019420708D0CB
:1027F000502080F31188BFF34F8FBFF36F8FFEE738
:1028000010E041606560FFF769FF61687068401A19
:102810007060B268904200D2B060F068014300205E
:10282000C4E9000100F0E0FB780707D0502080F3F6
:102830001188BFF34F8FBFF36F8FFEE73846BDE8B7
:10284000F08100005C00002010B5031F4FF0807481
:102850001C601B1F21F001011960191F044B0B6044
:1028600014390A60091F6FF0020244380A6010BD73
:1028700049270008D0E9013201699A60D0E90123B3
:102880005A604A68824201D182684A60002202612D
:102890000868401E0860086870470000034B03602A
:1028A00003F154000860802010607047540100203C
:1028B00000F108014FF0FF32C0E90112C16001616F
:1028C00000210160704700210161704730B50B683D
:1028D0005A1C02D000F1080202E0026904E022461C
:1028E000546825689D42FAD953684B6099608A60A4
:1028F000516008610168491C016030BD42684A604E
:1029000093688B6093685960916008610168491C05
:1029100001607047502080F31188BFF34F8FBFF3E1
:102920006F8F0A494868401C486001280CD108484C
:10293000006810F0FF0F07D0502080F31188BFF31C
:102940004F8FBFF36F8FFEE77047000074000020C9
:1029500004ED00E00849486828B1401E486001D1F4
:1029600080F311887047502080F31188BFF34F8F98
:10297000BFF36F8FFEE700007400002070B50028E1
:1029800027D0144DA0F108046168E868014207D11E
:10299000502080F31188BFF34F8FBFF36F8FFEE796
:1029A00022683AB1502080F31188BFF34F8FBFF3F4
:1029B0006F8FFEE78143616000F0D2F8606869685C
:1029C000084468602046FFF789FEBDE8704000F0CB
:1029D0000BBB70BD5C0000204FF0E02000210161C6
:1029E000816105494FF47A720968B1FBF2F1491E21
:1029F00041610721016170471C00002010B50200F1
:102A000014D00F48806B38B1502080F31188BFF389
:102A10004F8FBFF36F8FFEE700F0A2F80021104642
:102A2000FFF708FD00F0E0FA002807D105494FF054
:102A300080500860BFF34F8FBFF36F8F10BD000051
:102A40002000002004ED00E070B50546FFF762FFAE
:102A5000244C05B92568281DFFF70CFF58B9E86A12
:102A6000214A00EB800152F8211021B90121814057
:102A7000A0698843A061A86A18B105F11800FFF7A2
:102A8000F9FEE06A401CE0622068854207D1291DFA
:102A90001648FFF733FFE068401CE06007E020695C
:102AA000401E20612846FFF751FDFFF73DFEFFF76E
:102AB00051FFE069002814D02068854211D1A06B35
:102AC00038B1502080F31188BFF34F8FBFF36F8F61
:102AD000FEE707494FF080500860BFF34F8FBFF308
:102AE0006F8F70BD20000020880400203007002078
:102AF00004ED00E010B586B00024039405AA04A9F3
:102B000003A80494FFF7CAFEDDE903010094CDE9B0
:102B1000011000230EA11048059A00F09AF90F4900
:102B20000028486311D0502080F31188BFF34F8FE5
:102B3000BFF36F8F4FF0FF3008630120C8614C6115
:102B400006B0BDE8104000F041B806B010BD00006E
:102B500049444C4500000000CD250008200000201D
:102B60000248816B491C81637047000020000020EF
:102B70001448816B11B1012141627047002141620B
:102B80008169B1FA81F1C1F11F0101EB81020E49A6
:102B900051F822306BB101EB820101F108034A6860
:102BA00052684A609A4201D152684A60D168016015
:102BB0007047502080F31188BFF34F8FBFF36F8FA2
:102BC000FEE7000020000020880400201CB53748E4
:102BD0000168374A914207D1502080F31188BFF332
:102BE0004F8FBFF36F8FFEE700683149491E88425F
:102BF00007D1502080F31188BFF34F8FBFF36F8F41
:102C0000FEE72C4908780190FF20087008788DF8BD
:102C100000009DF800009DF8002000F0F0009042B8
:102C200007D0502080F31188BFF34F8FBFF36F8F11
:102C3000FEE79DF80000204B00F0500018700720C0
:102C4000986005E09DF8002052008DF80020401E9D
:102C50009DF800201206F5D49860032807D0502074
:102C600080F31188BFF34F8FBFF36F8FFEE74FF4F0
:102C700040709860019808700C482030016841F459
:102C800070010160016841F070410160FFF7A4FE2E
:102C900000205860FDF7B8FA0848016841F040414B
:102CA0000160FDF79DFA00201CBD000000ED00E072
:102CB00071C20F4100E400E07400002034EF00E036
:102CC000F8B517460E46050014D0DEB105FB06F038
:102CD0004830FFF74DFD04000AD0002084F846007C
:102CE00004F148023B46314628460094FFF79EFC1B
:102CF0002046F8BD502080F31188BFF34F8FBFF3FB
:102D00006F8FFEE70020E3E738B5049D18B153B19B
:102D1000CAB181B120E0502080F31188BFF34F8FFA
:102D2000BFF36F8FFEE7502080F31188BFF34F8F02
:102D3000BFF36F8FFEE7502080F31188BFF34F8FF2
:102D4000BFF36F8FFEE739B1502080F31188BFF3D6
:102D50004F8FBFF36F8FFEE748241C46012384F892
:102D600046302B460094FFF761FC204638BD00003A
:102D700070B50D46040025D0FFF7CCFDD4E90F2037
:102D8000216802FB0011A1600021A163216861603C
:102D90000A46D4E90F01401E00FB0121E1602146F3
:102DA0004FF0FF3001F8440F487004F110008DB16E
:102DB000FFF77EFD04F12400FFF77AFDFFF7CAFD5F
:102DC000012070BD502080F31188BFF34F8FBFF3F7
:102DD0006F8FFEE721690029F0D000F0C9F80028C4
:102DE000ECD004494FF080500860BFF34F8FBFF321
:102DF0006F8FE3E704ED00E02DE9FF5F8346DDE937
:102E00000E87994616468A469000FFF7B1FC0500EA
:102E10001CD05420FFF7ACFC040014D00020256324
:102E200084F85100CDE90240CDE900874B46324697
:102E300051465846FFF705FC2046FFF723FB0120CB
:102E400004B0BDE8F09F2846FFF798FD4FF0FF3033
:102E5000F6E7F0B585B0DDE90B640A9DA6B1DCB1FB
:102E6000542700972663022684F85160002604AF99
:102E7000CDE90246CDE90057FFF7E3FB2046FFF717
:102E800001FB049805B0F0BD502080F31188BFF31A
:102E90004F8FBFF36F8FFEE7502080F31188BFF391
:102EA0004F8FBFF36F8FFEE72DE9F0412E4C0027C7
:102EB000A06B40B1206A401C2062606A00B101270B
:102EC0003846BDE8F0816669761C666113D160689A
:102ED000006838B1502080F31188BFF34F8FBFF3E3
:102EE0006F8FFEE76068A1686160A060A06A401C07
:102EF000A062FFF719FC206BDFF87080864209D3CF
:102F00006068006880B16068C068C56868688642AB
:102F10000DD220632068C06A00EB800158F82100C0
:102F20000128CAD90127C8E74FF0FF30F1E7281D73
:102F3000FFF7A0FCA86A18B105F11800FFF79AFC8A
:102F4000E86A0121A26981401143A16100EB80017F
:102F500008EB8100291DFFF7D1FCE86A2168C96AE6
:102F60008842CDD30127CBE7200000208804002031
:102F70002DE9F041C068C468ACB104F118000746FF
:102F8000FFF778FC154DA86B0126A0B1394614480F
:102F9000FFF7B4FCE06A2968C96A88421BD901209E
:102FA0006E62BDE8F081502080F31188BFF34F8F2F
:102FB000BFF36F8FFEE7201DFFF75CFCE16AAA6993
:102FC00006FA01F01043A86101EB8100054901EB0D
:102FD0008000211DDCE70020E3E700002000002046
:102FE0001C070020880400202DE9F0472C4D002408
:102FF0002746A86B38B1FFF78DFCA86B401EA8636D
:10300000A86B40B146E0502080F31188BFF34F8F8A
:10301000BFF36F8FFEE72969224E0120D1B3A6F5D9
:10302000257980463068E8B1F068C46804F118007A
:10303000FFF720FC201DFFF71DFCE06AAA6908FAD3
:1030400000F11143A96100EB800109EB8100211D12
:10305000FFF754FCE06A2968C96A8842E2D3C5F8E0
:103060002480DFE70CB1FFF75FFB2C6A44B14646D2
:10307000FFF71AFF00B16E62641EF9D100202862CA
:10308000686A38B10849012738070860BFF34F8FD5
:10309000BFF36F8FFFF75EFC3846BDE8F087000096
:1030A000200000201C07002004ED00E010000000BC
:1030B0002800000000000000000000001C31000893
:1030C000ED1E00080000000000000000800000006D
:1030D0000000000000000000143100084104000856
:1030E00002000000000000000001000000000000DD
:1030F0000000000000061016000610160000000078
:103100000000000001020304060708090000000097
:103110000102030443414E5461736B0053746172A6
:10312000745461736B0000004831000800000020F7
:10313000B400000052230008FC310008B400002055
:10314000BC460000622300080000000000000000F0
:10315000000000000000000001000000100000005E
:10316000000000000024F400000000000000000047
:10317000000000000000000000000000000000004F
:10318000000000000000000000000000000000003F
:10319000000000000000000000000000000000002F
:1031A000000000000000000000000000000000001F
:1031B000000000000000000000000000000000000F
:1031C000AAAAAAAA00000000000000000000000057
:1031D00000000000000000000000000000000000EF
:1031E00000000000C5060008BD05000869050008CC
:0C31F000E90600084904000881040008FA
:04000005080001AD41
:00000001FF
